{"contracts/GlobalFI.sol":{"GlobalFi":{"abi":[{"anonymous":false,"inputs":[{"indexed":false,"internalType":"address","name":"previousAdmin","type":"address"},{"indexed":false,"internalType":"address","name":"newAdmin","type":"address"}],"name":"AdminChanged","type":"event"},{"anonymous":false,"inputs":[{"indexed":true,"internalType":"address","name":"beacon","type":"address"}],"name":"BeaconUpgraded","type":"event"},{"anonymous":false,"inputs":[{"indexed":false,"internalType":"uint256","name":"referrerId","type":"uint256"},{"indexed":false,"internalType":"uint256","name":"userId","type":"uint256"},{"indexed":false,"internalType":"uint256","name":"valueInWei","type":"uint256"}],"name":"DirectBusinessUpdated","type":"event"},{"anonymous":false,"inputs":[{"indexed":false,"internalType":"uint256","name":"id","type":"uint256"},{"indexed":false,"internalType":"uint8","name":"poolId","type":"uint8"},{"indexed":false,"internalType":"uint256","name":"rewardInWei","type":"uint256"}],"name":"DistributedPoolReward","type":"event"},{"anonymous":false,"inputs":[{"indexed":false,"internalType":"address","name":"userAddress","type":"address"},{"indexed":false,"internalType":"uint256","name":"id","type":"uint256"}],"name":"IdOwnerUpdated","type":"event"},{"anonymous":false,"inputs":[{"indexed":false,"internalType":"address","name":"userAddress","type":"address"},{"indexed":false,"internalType":"uint256","name":"id","type":"uint256"}],"name":"IdUpdated","type":"event"},{"anonymous":false,"inputs":[{"indexed":false,"internalType":"uint256","name":"id","type":"uint256"},{"indexed":false,"internalType":"uint8","name":"poolId","type":"uint8"}],"name":"IdUpgradedInPool","type":"event"},{"anonymous":false,"inputs":[{"indexed":false,"internalType":"uint8","name":"version","type":"uint8"}],"name":"Initialized","type":"event"},{"anonymous":false,"inputs":[{"indexed":true,"internalType":"address","name":"previousOwner","type":"address"},{"indexed":true,"internalType":"address","name":"newOwner","type":"address"}],"name":"OwnershipTransferred","type":"event"},{"anonymous":false,"inputs":[{"indexed":false,"internalType":"address","name":"account","type":"address"}],"name":"Paused","type":"event"},{"anonymous":false,"inputs":[{"indexed":false,"internalType":"uint256","name":"parentId","type":"uint256"},{"indexed":false,"internalType":"uint256","name":"referrerId","type":"uint256"},{"indexed":false,"internalType":"uint256","name":"userId","type":"uint256"}],"name":"RefereeAssigned","type":"event"},{"anonymous":false,"inputs":[{"indexed":false,"internalType":"uint256","name":"referrerId","type":"uint256"},{"indexed":false,"internalType":"uint256","name":"userId","type":"uint256"},{"indexed":false,"internalType":"uint256","name":"referralValue","type":"uint256"},{"indexed":false,"internalType":"uint256","name":"level","type":"uint256"}],"name":"ReferralDistributed","type":"event"},{"anonymous":false,"inputs":[{"indexed":false,"internalType":"uint256","name":"referrerId","type":"uint256"},{"indexed":false,"internalType":"uint256","name":"userId","type":"uint256"}],"name":"ReferrerUpdated","type":"event"},{"anonymous":false,"inputs":[{"indexed":false,"internalType":"address","name":"newAddress","type":"address"}],"name":"SelfAddressUpdated","type":"event"},{"anonymous":false,"inputs":[{"indexed":false,"internalType":"uint256","name":"userId","type":"uint256"},{"indexed":false,"internalType":"uint256","name":"valueInWei","type":"uint256"}],"name":"SelfBusinessUpdated","type":"event"},{"anonymous":false,"inputs":[{"indexed":false,"internalType":"uint256","name":"referrerId","type":"uint256"},{"indexed":false,"internalType":"uint256","name":"userId","type":"uint256"},{"indexed":false,"internalType":"uint256","name":"valueInWei","type":"uint256"},{"indexed":false,"internalType":"uint256","name":"level","type":"uint256"}],"name":"TeamBusinessUpdated","type":"event"},{"anonymous":false,"inputs":[{"indexed":false,"internalType":"address","name":"parent","type":"address"},{"indexed":false,"internalType":"address","name":"user","type":"address"}],"name":"TeamNonGlobaRemoved","type":"event"},{"anonymous":false,"inputs":[{"indexed":false,"internalType":"address","name":"parent","type":"address"},{"indexed":false,"internalType":"address","name":"user","type":"address"}],"name":"TeamNonGlobalAdded","type":"event"},{"anonymous":false,"inputs":[{"indexed":false,"internalType":"uint256","name":"parent","type":"uint256"},{"indexed":false,"internalType":"uint256","name":"userId","type":"uint256"}],"name":"TeamUpdated","type":"event"},{"anonymous":false,"inputs":[{"indexed":false,"internalType":"address","name":"account","type":"address"}],"name":"Unpaused","type":"event"},{"anonymous":false,"inputs":[{"indexed":true,"internalType":"address","name":"implementation","type":"address"}],"name":"Upgraded","type":"event"},{"inputs":[{"internalType":"address","name":"_tokenContractAddress","type":"address"},{"internalType":"bool","name":"_isStable","type":"bool"},{"internalType":"address","name":"_aggregatorContractAddress","type":"address"}],"name":"addBaseCurrency","outputs":[],"stateMutability":"nonpayable","type":"function"},{"inputs":[{"internalType":"address","name":"_tokenAddress","type":"address"}],"name":"claimPendingTax","outputs":[],"stateMutability":"nonpayable","type":"function"},{"inputs":[],"name":"getContractAnalytics","outputs":[{"internalType":"address[]","name":"usersAddress","type":"address[]"},{"internalType":"uint256","name":"usersCount","type":"uint256"},{"internalType":"uint256","name":"idsCount","type":"uint256"},{"internalType":"uint256[]","name":"nonGlobalIds","type":"uint256[]"},{"internalType":"uint256","name":"nonGlobalIdsCount","type":"uint256"},{"internalType":"uint256","name":"totalReferralPaid","type":"uint256"},{"internalType":"uint256","name":"totalValueRegistered","type":"uint256"},{"internalType":"uint256","name":"totalTaxCollected","type":"uint256"},{"internalType":"uint256","name":"taxPendingToWithdraw","type":"uint256"}],"stateMutability":"view","type":"function"},{"inputs":[],"name":"getContractDefaults","outputs":[{"internalType":"uint256[]","name":"levelRates","type":"uint256[]"},{"internalType":"uint256","name":"maxRefereeLimit","type":"uint256"},{"internalType":"uint256","name":"teamLevelsToCount","type":"uint256"},{"internalType":"uint256","name":"registrationAmountInUSD","type":"uint256"},{"internalType":"address[]","name":"taxBeneficiaryAddress","type":"address[]"},{"internalType":"uint256","name":"taxPer","type":"uint256"},{"components":[{"internalType":"address","name":"contractAddress","type":"address"},{"internalType":"uint256","name":"decimals","type":"uint256"},{"internalType":"bool","name":"isStable","type":"bool"},{"internalType":"address","name":"aggregatorAddress","type":"address"},{"internalType":"bool","name":"isEnaled","type":"bool"}],"internalType":"struct SupportedTokensStruct[]","name":"_supportedCurrency","type":"tuple[]"}],"stateMutability":"view","type":"function"},{"inputs":[{"internalType":"uint256","name":"_id","type":"uint256"}],"name":"getIdAccount","outputs":[{"components":[{"internalType":"uint256","name":"id","type":"uint256"},{"internalType":"address","name":"owner","type":"address"},{"internalType":"uint256","name":"referrerId","type":"uint256"},{"internalType":"uint256","name":"parentId","type":"uint256"},{"components":[{"internalType":"uint256","name":"refereeId","type":"uint256"},{"internalType":"uint256","name":"assignedTo","type":"uint256"},{"internalType":"uint256","name":"assignedFrom","type":"uint256"}],"internalType":"struct RefereeStruct[]","name":"refereeIds","type":"tuple[]"},{"components":[{"internalType":"uint256","name":"teamId","type":"uint256"},{"internalType":"uint256","name":"teamLevel","type":"uint256"}],"internalType":"struct TeamStruct[]","name":"team","type":"tuple[]"},{"components":[{"internalType":"uint256","name":"selfBusiness","type":"uint256"},{"internalType":"uint256","name":"directBusiness","type":"uint256"},{"internalType":"uint256","name":"teamBusiness","type":"uint256"}],"internalType":"struct BusinessStruct","name":"business","type":"tuple"},{"components":[{"internalType":"uint256","name":"referralRewards","type":"uint256"},{"internalType":"uint256","name":"spillOverRewards","type":"uint256"},{"internalType":"uint256","name":"globalRewards","type":"uint256"}],"internalType":"struct RewardsStruct","name":"rewards","type":"tuple"},{"components":[{"internalType":"bool","name":"isInPool","type":"bool"},{"internalType":"uint8","name":"currentPool","type":"uint8"},{"internalType":"uint256","name":"currentPoolIndex","type":"uint256"}],"internalType":"struct PoolIdStruct","name":"pool","type":"tuple"},{"components":[{"internalType":"bool","name":"isThisRegenerated","type":"bool"},{"internalType":"uint256[]","name":"regenratedIds","type":"uint256[]"},{"internalType":"uint256","name":"regeneratedIdBy","type":"uint256"}],"internalType":"struct RegeneratedIdsStruct","name":"regenratedIds","type":"tuple"}],"internalType":"struct IdStruct","name":"","type":"tuple"}],"stateMutability":"view","type":"function"},{"inputs":[{"internalType":"uint8","name":"_poolId","type":"uint8"}],"name":"getIdsByPool","outputs":[{"internalType":"uint256[]","name":"","type":"uint256[]"}],"stateMutability":"view","type":"function"},{"inputs":[{"internalType":"uint8","name":"_poolId","type":"uint8"}],"name":"getPools","outputs":[{"components":[{"internalType":"uint8","name":"poolId","type":"uint8"},{"internalType":"uint256","name":"rewardToDistribute","type":"uint256"},{"internalType":"uint256","name":"idsToRegenerate","type":"uint256"},{"internalType":"uint8","name":"minUserCounter","type":"uint8"},{"internalType":"uint256","name":"count","type":"uint256"},{"internalType":"uint256","name":"userCountToUpgrade","type":"uint256"},{"internalType":"uint256[]","name":"userIds","type":"uint256[]"},{"internalType":"uint256","name":"totalRewardDistributed","type":"uint256"}],"internalType":"struct PoolStruct","name":"","type":"tuple"}],"stateMutability":"view","type":"function"},{"inputs":[],"name":"getSupportedCurrencies","outputs":[{"components":[{"internalType":"address","name":"contractAddress","type":"address"},{"internalType":"uint256","name":"decimals","type":"uint256"},{"internalType":"bool","name":"isStable","type":"bool"},{"internalType":"address","name":"aggregatorAddress","type":"address"},{"internalType":"bool","name":"isEnaled","type":"bool"}],"internalType":"struct SupportedTokensStruct[]","name":"","type":"tuple[]"}],"stateMutability":"view","type":"function"},{"inputs":[{"internalType":"address","name":"_userAddress","type":"address"}],"name":"getUserAccount","outputs":[{"components":[{"internalType":"address","name":"selfAddress","type":"address"},{"internalType":"uint256[]","name":"ids","type":"uint256[]"},{"internalType":"uint256[]","name":"regeneratedIds","type":"uint256[]"}],"internalType":"struct AccountStruct","name":"","type":"tuple"}],"stateMutability":"view","type":"function"},{"inputs":[],"name":"initialize","outputs":[],"stateMutability":"nonpayable","type":"function"},{"inputs":[],"name":"owner","outputs":[{"internalType":"address","name":"","type":"address"}],"stateMutability":"view","type":"function"},{"inputs":[],"name":"paused","outputs":[{"internalType":"bool","name":"","type":"bool"}],"stateMutability":"view","type":"function"},{"inputs":[],"name":"proxiableUUID","outputs":[{"internalType":"bytes32","name":"","type":"bytes32"}],"stateMutability":"view","type":"function"},{"inputs":[{"internalType":"uint256","name":"_referrerId","type":"uint256"},{"internalType":"address","name":"_userAddress","type":"address"},{"internalType":"address","name":"_tokenAddress","type":"address"}],"name":"register","outputs":[],"stateMutability":"nonpayable","type":"function"},{"inputs":[{"internalType":"uint8","name":"_noOfIds","type":"uint8"},{"internalType":"uint256","name":"_referrerId","type":"uint256"},{"internalType":"address","name":"_userAddress","type":"address"},{"internalType":"address","name":"_tokenAddress","type":"address"}],"name":"registerBulk","outputs":[],"stateMutability":"nonpayable","type":"function"},{"inputs":[{"internalType":"address","name":"_tokenContractAddress","type":"address"},{"internalType":"bool","name":"_status","type":"bool"}],"name":"removeBaseCurrency","outputs":[],"stateMutability":"nonpayable","type":"function"},{"inputs":[],"name":"renounceOwnership","outputs":[],"stateMutability":"nonpayable","type":"function"},{"inputs":[{"internalType":"uint8[]","name":"_poolId","type":"uint8[]"},{"internalType":"uint256[]","name":"_rewardToDistributeInDecimals","type":"uint256[]"},{"internalType":"uint256[]","name":"_idsToGenerate","type":"uint256[]"},{"internalType":"uint8","name":"_minUserCounter","type":"uint8"}],"name":"setPools","outputs":[],"stateMutability":"nonpayable","type":"function"},{"inputs":[{"internalType":"address","name":"newOwner","type":"address"}],"name":"transferOwnership","outputs":[],"stateMutability":"nonpayable","type":"function"},{"inputs":[{"internalType":"address","name":"newImplementation","type":"address"}],"name":"upgradeTo","outputs":[],"stateMutability":"nonpayable","type":"function"},{"inputs":[{"internalType":"address","name":"newImplementation","type":"address"},{"internalType":"bytes","name":"data","type":"bytes"}],"name":"upgradeToAndCall","outputs":[],"stateMutability":"payable","type":"function"}],"evm":{"bytecode":{"linkReferences":{},"object":"60a060405230608052348015610013575f80fd5b506080516142b36100485f395f81816107d801528181610821015281816108f60152818161093601526109c701526142b35ff3fe608060405260043610610126575f3560e01c8063715018a6116100a8578063a73c50fa1161006d578063a73c50fa14610313578063c48d8e0214610332578063f2fde38b1461035e578063f782abc71461037d578063fb47e0161461039c578063ff43599c146103c8575f80fd5b8063715018a61461027c578063754ac430146102905780638129fc1c146102af57806383b41e66146102c35780638da5cb5b146102ec575f80fd5b8063493ce4e1116100ee578063493ce4e1146101e75780634f1ef2861461020657806352d1902d1461021957806354f132e81461023b5780635c975abb1461025a575f80fd5b806315b463ff1461012a5780631a7463441461015f5780632b3412e3146101865780632ce75863146101a75780633659cfe6146101c8575b5f80fd5b348015610135575f80fd5b5061014961014436600461377f565b6103f4565b60405161015691906137d3565b60405180910390f35b34801561016a575f80fd5b5061017361045b565b6040516101569796959493929190613886565b348015610191575f80fd5b506101a56101a03660046138fa565b6105e5565b005b3480156101b2575f80fd5b506101bb610726565b6040516101569190613913565b3480156101d3575f80fd5b506101a56101e23660046138fa565b6107ce565b3480156101f2575f80fd5b506101a5610201366004613925565b6108b4565b6101a5610214366004613985565b6108ec565b348015610224575f80fd5b5061022d6109bb565b604051908152602001610156565b348015610246575f80fd5b506101a5610255366004613a4e565b610a6c565b348015610265575f80fd5b5060335460ff166040519015158152602001610156565b348015610287575f80fd5b506101a5610bdd565b34801561029b575f80fd5b506101a56102aa366004613acb565b610bf0565b3480156102ba575f80fd5b506101a5610d02565b3480156102ce575f80fd5b506102d7610ecf565b60405161015699989796959493929190613b71565b3480156102f7575f80fd5b506065546040516001600160a01b039091168152602001610156565b34801561031e575f80fd5b506101a561032d366004613bd2565b610fbe565b34801561033d575f80fd5b5061035161034c36600461377f565b611057565b6040516101569190613c0b565b348015610369575f80fd5b506101a56103783660046138fa565b61115d565b348015610388575f80fd5b506101a5610397366004613c7f565b6111d3565b3480156103a7575f80fd5b506103bb6103b63660046138fa565b611462565b6040516101569190613caa565b3480156103d3575f80fd5b506103e76103e2366004613cf4565b61156b565b6040516101569190613dc4565b60ff81165f90815261010e602090815260409182902060060180548351818402810184019094528084526060939283018282801561044f57602002820191905f5260205f20905b81548152602001906001019080831161043b575b50505050509050919050565b60605f805f60605f606060ff8054806020026020016040519081016040528092919081815260200182805480156104af57602002820191905f5260205f20905b81548152602001906001019080831161049b575b505050505096506101005495506101015f9054906101000a900460ff1660ff16945061010254935061010380548060200260200160405190810160405280929190818152602001828054801561052c57602002820191905f5260205f20905b81546001600160a01b0316815260019091019060200180831161050e575b50505050509250610104549150610109805480602002602001604051908101604052809291908181526020015f905b828210156105d6575f8481526020908190206040805160a0810182526003860290920180546001600160a01b0390811684526001808301548587015260029092015460ff80821615159486019490945261010081049091166060850152600160a81b900490911615156080830152908352909201910161055b565b50505050905090919293949596565b5f61010380548060200260200160405190810160405280929190818152602001828054801561063b57602002820191905f5260205f20905b81546001600160a01b0316815260019091019060200180831161061d575b505050505090505f6101065490505f8251826106579190613eea565b90505f5b83518160ff16101561071a57846001600160a01b031663a9059cbb858360ff168151811061068b5761068b613f09565b602002602001015161069d85896117a7565b6040516001600160e01b031960e085901b1681526001600160a01b03909216600483015260248201526044016020604051808303815f875af11580156106e5573d5f803e3d5ffd5b505050506040513d601f19601f820116820180604052508101906107099190613f1d565b5061071381613f38565b905061065b565b50505f61010655505050565b6060610109805480602002602001604051908101604052809291908181526020015f905b828210156107c5575f8481526020908190206040805160a0810182526003860290920180546001600160a01b0390811684526001808301548587015260029092015460ff80821615159486019490945261010081049091166060850152600160a81b900490911615156080830152908352909201910161074a565b50505050905090565b6001600160a01b037f000000000000000000000000000000000000000000000000000000000000000016300361081f5760405162461bcd60e51b815260040161081690613f56565b60405180910390fd5b7f00000000000000000000000000000000000000000000000000000000000000006001600160a01b03166108675f80516020614237833981519152546001600160a01b031690565b6001600160a01b03161461088d5760405162461bcd60e51b815260040161081690613fa2565b61089681611837565b604080515f808252602082019092526108b19183919061183f565b50565b610104545f5b8560ff168160ff1610156108e4576108d4858585856119ae565b6108dd81613f38565b90506108ba565b505050505050565b6001600160a01b037f00000000000000000000000000000000000000000000000000000000000000001630036109345760405162461bcd60e51b815260040161081690613f56565b7f00000000000000000000000000000000000000000000000000000000000000006001600160a01b031661097c5f80516020614237833981519152546001600160a01b031690565b6001600160a01b0316146109a25760405162461bcd60e51b815260040161081690613fa2565b6109ab82611837565b6109b78282600161183f565b5050565b5f306001600160a01b037f00000000000000000000000000000000000000000000000000000000000000001614610a5a5760405162461bcd60e51b815260206004820152603860248201527f555550535570677261646561626c653a206d757374206e6f742062652063616c60448201527f6c6564207468726f7567682064656c656761746563616c6c00000000000000006064820152608401610816565b505f8051602061423783398151915290565b610a74611e32565b6001600160a01b038281165f90815261010d602052604090205416610af85760405162461bcd60e51b815260206004820152603460248201527f736574537570706f72746564546f6b656e53746174757328293a20546f6b656e6044820152731034b9903737ba1030b23232b21030b23232b21760611b6064820152608401610816565b6001600160a01b0382165f90815261010d6020526040902060020154811515600160a81b90910460ff16151503610ba55760405162461bcd60e51b815260206004820152604560248201527f736574537570706f72746564546f6b656e53746174757328293a20546f6b656e60448201527f2073746174757320697320616c72656164792073616d65206173206d656e746960648201526437b732b21760d91b608482015260a401610816565b6001600160a01b039091165f90815261010d602052604090206002018054911515600160a81b0260ff60a81b19909216919091179055565b610be5611e32565b610bee5f611e8c565b565b610bf8611e32565b5f5b60ff8116871115610cf8575f61010e5f8a8a8560ff16818110610c1f57610c1f613f09565b9050602002016020810190610c34919061377f565b60ff1660ff1681526020019081526020015f20905088888360ff16818110610c5e57610c5e613f09565b9050602002016020810190610c73919061377f565b815460ff191660ff918216178255879087908416818110610c9657610c96613f09565b90506020020135670de0b6b3a7640000610cb09190613fee565b6001820155848460ff8416818110610cca57610cca613f09565b6020029190910135600283015550600301805460ff191660ff8416179055610cf181613f38565b9050610bfa565b5050505050505050565b5f54610100900460ff1615808015610d2057505f54600160ff909116105b80610d395750303b158015610d3957505f5460ff166001145b610d9c5760405162461bcd60e51b815260206004820152602e60248201527f496e697469616c697a61626c653a20636f6e747261637420697320616c72656160448201526d191e481a5b9a5d1a585b1a5e995960921b6064820152608401610816565b5f805460ff191660011790558015610dbd575f805461ff0019166101001790555b600261010055604080516020810190915260328152610de09060ff906001613640565b50610101805460ff191660141790556101038054600181810183555f8390527f02c297ab74aad0aede3a1895c857b1f2c71e6a203feb727bec95ac752998cb7891820180546001600160a01b0319908116331790915583549182019093550180549091167314a8ee34edcb63f88d301215862ff5e017ebdff11790556801158e460913d0000061010255600561010455610e78611edd565b610e80611f0b565b610e88611f39565b80156108b1575f805461ff0019169055604051600181527f7f26b83ff96e1f2b6a682f133852f6798a09c465da95921460cefb38474024989060200160405180910390a150565b60605f8060605f805f805f60fb805480602002602001604051908101604052809291908181526020018280548015610f2e57602002820191905f5260205f20905b81546001600160a01b03168152600190910190602001808311610f10575b5050505050985060fb80549050975060fc54965060fd80549050945060fd805480602002602001604051908101604052809291908181526020018280548015610f9457602002820191905f5260205f20905b815481526020019060010190808311610f80575b50505050509550610107549350610108549250610105549150610106549050909192939495969798565b61010a5460ff16156110265760405162461bcd60e51b815260206004820152602b60248201527f5265656e7472616e6379477561726428293a20436f6e7472616374205265656e60448201526a1d1c985b98de51dd585c9960aa1b6064820152608401610816565b61010a805460ff1916600117905561010454611047908490849084906119ae565b505061010a805460ff1916905550565b61109e6040518061010001604052805f60ff1681526020015f81526020015f81526020015f60ff1681526020015f81526020015f8152602001606081526020015f81525090565b60ff8083165f90815261010e60209081526040918290208251610100810184528154851681526001820154818401526002820154818501526003820154909416606085015260048101546080850152600581015460a0850152600681018054845181850281018501909552808552919360c086019390929083018282801561114357602002820191905f5260205f20905b81548152602001906001019080831161112f575b505050505081526020016007820154815250509050919050565b611165611e32565b6001600160a01b0381166111ca5760405162461bcd60e51b815260206004820152602660248201527f4f776e61626c653a206e6577206f776e657220697320746865207a65726f206160448201526564647265737360d01b6064820152608401610816565b6108b181611e8c565b6111db611e32565b6001600160a01b038381165f90815261010d6020526040902054161561125f5760405162461bcd60e51b815260206004820152603360248201527f70757368537570706f72746564546f6b656e546f4c69737428293a20546f6b65604482015272371034b99030b63932b0b23c9030b23232b21760691b6064820152608401610816565b6040518060a00160405280846001600160a01b03168152602001846001600160a01b031663313ce5676040518163ffffffff1660e01b8152600401602060405180830381865afa1580156112b5573d5f803e3d5ffd5b505050506040513d601f19601f820116820180604052508101906112d99190614005565b60ff90811682529315156020808301919091526001600160a01b03938416604080840191909152600160609384018190529685165f90815261010d8352818120855181549088166001600160a01b031991821617825593860151818a0190815592860151600282018054968801516080909801511515600160a81b90810260ff60a81b19998b16610100908102610100600160a81b031995151586166001600160a81b03199b8c1617178b1691909117835561010980549d8e01815590955292546003909b027fd7f48d1c2d4fdcceabee32a4fd1437f382c65f0f9af09a878c95c20147dc06a8810180549097169b8a169b909b1790955592547fd7f48d1c2d4fdcceabee32a4fd1437f382c65f0f9af09a878c95c20147dc06a98a015583547fd7f48d1c2d4fdcceabee32a4fd1437f382c65f0f9af09a878c95c20147dc06aa9099018054998916151560ff198b1681178255855484900490981690920296909216979093169690961793909317808255925485900490931615159093029216919091179055565b61148e60405180606001604052805f6001600160a01b0316815260200160608152602001606081525090565b6001600160a01b038083165f90815261010b602090815260409182902082516060810184528154909416845260018101805484518185028101850190955280855291938584019390929083018282801561150557602002820191905f5260205f20905b8154815260200190600101908083116114f1575b505050505081526020016002820180548060200260200160405190810160405280929190818152602001828054801561155b57602002820191905f5260205f20905b815481526020019060010190808311611547575b5050505050815250509050919050565b61157361368e565b5f82815261010c602090815260408083208151610140810183528154815260018201546001600160a01b03168185015260028201548184015260038201546060820152600482018054845181870281018701909552808552919592946080870194939192919084015b82821015611629578382905f5260205f2090600302016040518060600160405290815f820154815260200160018201548152602001600282015481525050815260200190600101906115dc565b50505050815260200160058201805480602002602001604051908101604052809291908181526020015f905b82821015611698578382905f5260205f2090600202016040518060400160405290815f820154815260200160018201548152505081526020019060010190611655565b505050908252506040805160608082018352600685015482526007850154602083810191909152600886015483850152808501929092528251808201845260098601548152600a86015481840152600b860154818501528385015282518082018452600c86015460ff80821615158352610100909104811682850152600d870154828601528286019190915283519182018452600e8601805490911615158252600f8601805485518186028101860190965280865260809096019592949193858101939083018282801561178957602002820191905f5260205f20905b815481526020019060010190808311611775575b50505050508152602001600282015481525050815250509050919050565b5f670de0b6b3a7640000826001600160a01b031663313ce5676040518163ffffffff1660e01b8152600401602060405180830381865afa1580156117ed573d5f803e3d5ffd5b505050506040513d601f19601f820116820180604052508101906118119190614005565b61181c90600a614100565b6118269085613fee565b6118309190613eea565b9392505050565b6108b1611e32565b7f4910fdfa16fed3260ed0e7147f7cc6da11a60208b5b9406d12a635614ffd91435460ff16156118775761187283611f5f565b505050565b826001600160a01b03166352d1902d6040518163ffffffff1660e01b8152600401602060405180830381865afa9250505080156118d1575060408051601f3d908101601f191682019092526118ce9181019061410e565b60015b6119345760405162461bcd60e51b815260206004820152602e60248201527f45524331393637557067726164653a206e657720696d706c656d656e7461746960448201526d6f6e206973206e6f74205555505360901b6064820152608401610816565b5f8051602061423783398151915281146119a25760405162461bcd60e51b815260206004820152602960248201527f45524331393637557067726164653a20756e737570706f727465642070726f786044820152681a58589b195555525160ba1b6064820152608401610816565b50611872838383611ffa565b610102546001600160a01b0383165f90815261010d6020526040902060020154339190600160a81b900460ff1615611a7657836001600160a01b03166323b872dd83306119fb85896117a7565b6040516001600160e01b031960e086901b1681526001600160a01b03938416600482015292909116602483015260448201526064016020604051808303815f875af1158015611a4c573d5f803e3d5ffd5b505050506040513d601f19601f82011682018060405250810190611a709190613f1d565b50611add565b60405162461bcd60e51b815260206004820152603660248201527f726567697374657228293a20426173652043757272656e6379206973206e6f746044820152751039bab83837b93a32b21037b91032b730b13632b21760511b6064820152608401610816565b5f86815261010c602090815260408083206001600160a01b038916845261010b90925282206001810154919290919003611b5c5760fb80546001810182555f919091527f3e7257b7272bb46d49cd6019b04ddee20da7c0cb13f7c1ec3391291b2ccebabc0180546001600160a01b0319166001600160a01b0386161790555b611b668188612024565b5f611b6f61209c565b5f81815261010c60205260409020909150611b8a81846120b1565b5060408051610140810182528254815260018301546001600160a01b031660208083019190915260028401548284015260038401546060830152600484018054845181840281018401909552808552611de594869360808601939192905f9084015b82821015611c39578382905f5260205f2090600302016040518060600160405290815f82015481526020016001820154815260200160028201548152505081526020019060010190611bec565b50505050815260200160058201805480602002602001604051908101604052809291908181526020015f905b82821015611ca8578382905f5260205f2090600202016040518060400160405290815f820154815260200160018201548152505081526020019060010190611c65565b505050908252506040805160608082018352600685015482526007850154602083810191909152600886015483850152808501929092528251808201845260098601548152600a86015481840152600b860154818501528385015282518082018452600c86015460ff80821615158352610100909104811682850152600d870154828601528286019190915283519182018452600e8601805490911615158252600f86018054855181860281018601909652808652608090960195929491938581019390830182828015611d9957602002820191905f5260205f20905b815481526020019060010190808311611d85575b50505050508152602001600282015481525050815250505160fd80546001810182555f919091527f9346ac6dd7de6b96975fec380d4d994c4c12e6a8897544f22915316cc6cca2800155565b611def84826121ef565b611dfb81868a8a612770565b611e0588886129a1565b846101085f828254611e179190614125565b90915550611e26905085612eee565b50505050505050505050565b6065546001600160a01b03163314610bee5760405162461bcd60e51b815260206004820181905260248201527f4f776e61626c653a2063616c6c6572206973206e6f7420746865206f776e65726044820152606401610816565b606580546001600160a01b038381166001600160a01b0319831681179093556040519116919082907f8be0079c531659141344cd1fd0a4f28419497f9722a3daafe3b4186f6b6457e0905f90a35050565b5f54610100900460ff16611f035760405162461bcd60e51b815260040161081690614138565b610bee612f40565b5f54610100900460ff16611f315760405162461bcd60e51b815260040161081690614138565b610bee612f72565b5f54610100900460ff16610bee5760405162461bcd60e51b815260040161081690614138565b6001600160a01b0381163b611fcc5760405162461bcd60e51b815260206004820152602d60248201527f455243313936373a206e657720696d706c656d656e746174696f6e206973206e60448201526c1bdd08184818dbdb9d1c9858dd609a1b6064820152608401610816565b5f8051602061423783398151915280546001600160a01b0319166001600160a01b0392909216919091179055565b61200383612fa1565b5f8251118061200f5750805b156118725761201e8383612fe0565b50505050565b81546001600160a01b031615801561204457506001600160a01b03811615155b156109b75781546001600160a01b0319166001600160a01b03821690811783556040519081527f3b819cfb39116b78a5d1267e92ab85058e96d63a7882322d296ab4135720b79a906020015b60405180910390a15050565b5f60fc5460016120ac9190614125565b905090565b81545f901561210e5760405162461bcd60e51b815260206004820152602360248201527f5f757064617465496428293a20496420697320616c726561647920637265617460448201526232b21760e91b6064820152608401610816565b60fc8054905f61211d83614183565b909155505060fc548084556001838101805491820181555f9081526020908190209091018290558354604080516001600160a01b0390921682529181018390529192507f1edfaf20eb0251dd2ca45e125c8b9a615022667b9822cf6a8dc1d2ce7e91ea68910160405180910390a181546001840180546001600160a01b0319166001600160a01b03928316179055825460408051919092168152602081018390527f4f3673673d1e6f88f67f26845b9609a7707201984d7885988d35aedf43b9fe44910160405180910390a192915050565b80546065546001600160a01b031633146122865782545f036122705760405162461bcd60e51b815260206004820152603460248201527f5f616464526566657272657228293a2052656665727265204964206973206e6f6044820152733a1030b1ba34bb30ba32b21037b9103d32b9379760611b6064820152608401610816565b60018301546001600160a01b0316612286575f80fd5b808360020154036122f45760405162461bcd60e51b815260206004820152603260248201527f5f616464526566657272657228293a20526566657265652063616e6e6f74206260448201527132903932b332b93932b9103ab83634b7329760711b6064820152608401610816565b6002820154156123595760405162461bcd60e51b815260206004820152602a60248201527f5f616464526566657272657228293a205573657220726566657272657220616c6044820152693932b0b23c9039b2ba1760b11b6064820152608401610816565b82548190036123c65760405162461bcd60e51b815260206004820152603360248201527f5f616464526566657272657228293a20526566657272657220616e6420557365604482015272391024b21031b0b713ba1031329039b0b6b29760691b6064820152608401610816565b82546003808401829055604080516101408101825292835260018601546001600160a01b03166020808501919091526002870154848301529186015460608401526004860180548251818502810185019093528083526125fa949388936080860193909290915f9084015b8282101561247e578382905f5260205f2090600302016040518060600160405290815f82015481526020016001820154815260200160028201548152505081526020019060010190612431565b50505050815260200160058201805480602002602001604051908101604052809291908181526020015f905b828210156124ed578382905f5260205f2090600202016040518060400160405290815f8201548152602001600182015481525050815260200190600101906124aa565b505050908252506040805160608082018352600685015482526007850154602083810191909152600886015483850152808501929092528251808201845260098601548152600a86015481840152600b860154818501528385015282518082018452600c86015460ff80821615158352610100909104811682850152600d870154828601528286019190915283519182018452600e8601805490911615158252600f860180548551818602810186019096528086526080909601959294919385810193908301828280156125de57602002820191905f5260205f20905b8154815260200190600101908083116125ca575b50505050508152602001600282015481525050815250506130d2565b612699578254600280840191909155604080516060810182528381525f602080830182815293830182815260048901805460018181018355918552929093209351600390920290930190815592519083015551910155612659836130fe565b825460408051918252602082018390527fe6b2c1ca4b33533eddccfdd2dd0fbe5ff44d75017001d4b2329b4daee1821436910160405180910390a16126a3565b6126a3838361320e565b6101015460ff165f5b818110156127695760028401545f81815261010c602052604081209190036126d45750612769565b8060050160405180604001604052808681526020018460016126f69190614125565b90528154600180820184555f9384526020938490208351600290930201918255918301519101558154604080519182529181018690527f48e403ae2a509cd9336134c0899083ba110bf3a35566606add88a2066ccbaa1a910160405180910390a1935061276281614183565b90506126ac565b5050505050565b82846006015f015f8282546127859190614125565b9091555050835460408051918252602082018590527f7bc272836d15a231dbca2c8759d5bb751d4ecf39d918fef56f6cc2fc3c2386b0910160405180910390a160038401545f90815261010c60205260408120600781018054919286926127ed908490614125565b90915550508054855460408051928352602083019190915281018590527f57b50e0e70daa32ac46409245990bb5a21b96da6f9c1bcbba5424aa58723907a9060600160405180910390a15f606460ff5f8154811061284d5761284d613f09565b905f5260205f200154866128619190613fee565b61286b9190613eea565b60018301549091506001600160a01b03161561291a5760018201546001600160a01b038086169163a9059cbb91166128ac6128a685896117a7565b876135f5565b6040516001600160e01b031960e085901b1681526001600160a01b03909216600483015260248201526044016020604051808303815f875af11580156128f4573d5f803e3d5ffd5b505050506040513d601f19601f820116820180604052508101906129189190613f1d565b505b815486546040805192835260208301919091528101829052600160608201527ff4bff7ddf097f430e0163107b212ddccc7c9a80ff7d32462be0c6f30bbbad0df9060800160405180910390a180826009015f015f82825461297b9190614125565b92505081905550806101075f8282546129949190614125565b9091555050505050505050565b60015b60148160ff1610156118725760ff81165f90815261010e6020526040902060fc5460068201541561276957815460ff165f036129e1575050505050565b5f61010c5f846006018560050154815481106129ff576129ff613f09565b5f918252602080832090910154835282019290925260400190206003840154600485015491925060ff161480612a4157506003830154600484015460ff909116105b15612ed8575f8360020154118015612a5e5750600e81015460ff16155b15612c5a575f5b83600201548160ff161015612c3e575f61010c81612a8660ff851687614125565b612a91906001614125565b81526020019081526020015f2090508160ff1684612aaf9190614125565b612aba906001614125565b815560018084015490820180546001600160a01b0319166001600160a01b0390921691909117905582546003820155612af3838261320e565b600e81018054600160ff199091168117909155835460108301558154600f8501805480840182555f91825260208083209091019290925561010e909152600c8301805461ffff191661010117905582547fa878eb11fc349df4d534cef6ff510e6105e5cf3b4b4fa388042492f04f08403e805493840181558083527fd25d8021baf18e67615f94b1797b8535ac46660862294ef46088cae957d4e434909301559054600d8301557fa878eb11fc349df4d534cef6ff510e6105e5cf3b4b4fa388042492f04f08403c80547fa878eb11fc349df4d534cef6ff510e6105e5cf3b4b4fa388042492f04f08403892909190612beb83614183565b9091555050815460408051918252600160208301527fdae0be714878398df4bce5e16513993cf11a07c4b626f7acf376a79f71f721f8910160405180910390a1505080612c3790613f38565b9050612a65565b50826002015460fc5f828254612c549190614125565b90915550505b5f61010e81612c6a87600161419b565b60ff1660ff1681526020019081526020015f2090508060060184600601856005015481548110612c9c57612c9c613f09565b5f918252602080832090910154835460018101855593835291209091015560058401546006850180547fdae0be714878398df4bce5e16513993cf11a07c4b626f7acf376a79f71f721f892908110612cf657612cf6613f09565b905f5260205f200154866001612d0c919061419b565b6040805192835260ff90911660208301520160405180910390a1600481018054905f612d3783614183565b9190505550866001600160a01b031663a9059cbb836001015f9054906101000a90046001600160a01b0316612d79612d7388600101548c6117a7565b8a6135f5565b6040516001600160e01b031960e085901b1681526001600160a01b03909216600483015260248201526044016020604051808303815f875af1158015612dc1573d5f803e3d5ffd5b505050506040513d601f19601f82011682018060405250810190612de59190613f1d565b507f89b70f5f92b02d089769dea775c6dce9797ebfb25ae57bcfbab1d88a31a6721284600601856005015481548110612e2057612e20613f09565b5f9182526020918290200154865460018801546040805193845260ff9092169383019390935281019190915260600160405180910390a18054600c8301805460ff9092166101000261ff00199092169190911790556006810154600d8301556001840154600b830180545f90612e97908490614125565b909155505060018401546007850180545f90612eb4908490614125565b90915550505f6004850181905560058501805491612ed183614183565b9190505550505b5050508080612ee690613f38565b9150506129a4565b5f60646101045483612f009190613fee565b612f0a9190613eea565b9050806101055f828254612f1e9190614125565b92505081905550806101065f828254612f379190614125565b90915550505050565b5f54610100900460ff16612f665760405162461bcd60e51b815260040161081690614138565b6033805460ff19169055565b5f54610100900460ff16612f985760405162461bcd60e51b815260040161081690614138565b610bee33611e8c565b612faa81611f5f565b6040516001600160a01b038216907fbc7cd75a20ee27fd9adebab32041f755214dbc6bffa90cc0225b39da2e5c2d3b905f90a250565b60606001600160a01b0383163b6130485760405162461bcd60e51b815260206004820152602660248201527f416464726573733a2064656c65676174652063616c6c20746f206e6f6e2d636f6044820152651b9d1c9858dd60d21b6064820152608401610816565b5f80846001600160a01b03168460405161306291906141d6565b5f60405180830381855af49150503d805f811461309a576040519150601f19603f3d011682016040523d82523d5f602084013e61309f565b606091505b50915091506130c7828260405180606001604052806027815260200161425760279139613602565b925050505b92915050565b5f6101005482608001515114806130f0575061010054826080015151115b156130f9575060015b919050565b610100546004820154036108b15761010e602052600c8101805461ffff191661010117905580547fa878eb11fc349df4d534cef6ff510e6105e5cf3b4b4fa388042492f04f08403e80546001810182555f8281527fd25d8021baf18e67615f94b1797b8535ac46660862294ef46088cae957d4e4349091019290925554600d8301557fa878eb11fc349df4d534cef6ff510e6105e5cf3b4b4fa388042492f04f08403c80547fa878eb11fc349df4d534cef6ff510e6105e5cf3b4b4fa388042492f04f084038929091906131d183614183565b9091555050815460408051918252600160208301527fdae0be714878398df4bce5e16513993cf11a07c4b626f7acf376a79f71f721f89101612090565b5f60fd80548060200260200160405190810160405280929190818152602001828054801561325957602002820191905f5260205f20905b815481526020019060010190808311613245575b505050505090505f8151116132bc5760405162461bcd60e51b8152602060048201526024808201527f5f616464526566657272657228293a20476c6f62616c2069647320617265206f6044820152633b32b91760e11b6064820152608401610816565b60fe545f5b8251811015612769575f61010c5f8585815181106132e1576132e1613f09565b60209081029190910181015182528181019290925260409081015f9081208251610140810184528154815260018201546001600160a01b031681860152600282015481850152600382015460608201526004820180548551818802810188019096528086529296506133a59591948794608087019491938401821561247e578382905f5260205f2090600302016040518060600160405290815f82015481526020016001820154815260200160028201548152505081526020019060010190612431565b156133d25760fe8054905f6133b983614183565b919050555082806133c990614183565b935050506135e5565b84548154036133e557826133c981614183565b8054600280870182905560408051606080820183528954825260208083019586525f8385018181526004808f0180546001818101835591855285852097516003918202909801978855995187820155915195880195909555855193840186528c5484528383018281528e54968501968752948901805480830182559083529290912092519190960290910190815590519381019390935551910155613489816130fe565b85548154865460408051938452602084019290925282820152517f347a3b2fe969c7ab7c51c290dbcae965d7b5a6b03d2b9336a480169d79a5f51f9181900360600190a1805485546040517fe6b2c1ca4b33533eddccfdd2dd0fbe5ff44d75017001d4b2329b4daee18214369261350892908252602082015260400190565b60405180910390a160408051610140810182528254815260018301546001600160a01b0316602080830191909152600284015482840152600384015460608301526004840180548451818402810184019095528085526135bb94869360808601939192905f908401821561247e578382905f5260205f2090600302016040518060600160405290815f82015481526020016001820154815260200160028201548152505081526020019060010190612431565b80156135c5575081155b156135df5760fe8054905f6135d983614183565b91905055505b50612769565b6135ee81614183565b90506132c1565b5f606461181c83826141f1565b60608315613611575081611830565b61183083838151156136265781518083602001fd5b8060405162461bcd60e51b81526004016108169190614204565b828054828255905f5260205f2090810192821561367e579160200282015b8281111561367e578251829060ff1690559160200191906001019061365e565b5061368a92915061375d565b5090565b6040518061014001604052805f81526020015f6001600160a01b031681526020015f81526020015f815260200160608152602001606081526020016136ea60405180606001604052805f81526020015f81526020015f81525090565b815260200161371060405180606001604052805f81526020015f81526020015f81525090565b8152604080516060810182525f808252602082810182905292820152910190815260200161375860405180606001604052805f15158152602001606081526020015f81525090565b905290565b5b8082111561368a575f815560010161375e565b60ff811681146108b1575f80fd5b5f6020828403121561378f575f80fd5b813561183081613771565b5f8151808452602080850194508084015f5b838110156137c8578151875295820195908201906001016137ac565b509495945050505050565b602081525f611830602083018461379a565b5f8151808452602080850194508084015f5b838110156137c85781516001600160a01b0316875295820195908201906001016137f7565b5f8151808452602080850194508084015f5b838110156137c857815180516001600160a01b03908116895284820151858a01526040808301511515908a01526060808301519091169089015260809081015115159088015260a0909601959082019060010161382e565b60e081525f61389860e083018a61379a565b88602084015287604084015286606084015282810360808401526138bc81876137e5565b90508460a084015282810360c08401526138d6818561381c565b9a9950505050505050505050565b80356001600160a01b03811681146130f9575f80fd5b5f6020828403121561390a575f80fd5b611830826138e4565b602081525f611830602083018461381c565b5f805f8060808587031215613938575f80fd5b843561394381613771565b935060208501359250613958604086016138e4565b9150613966606086016138e4565b905092959194509250565b634e487b7160e01b5f52604160045260245ffd5b5f8060408385031215613996575f80fd5b61399f836138e4565b9150602083013567ffffffffffffffff808211156139bb575f80fd5b818501915085601f8301126139ce575f80fd5b8135818111156139e0576139e0613971565b604051601f8201601f19908116603f01168101908382118183101715613a0857613a08613971565b81604052828152886020848701011115613a20575f80fd5b826020860160208301375f6020848301015280955050505050509250929050565b80151581146108b1575f80fd5b5f8060408385031215613a5f575f80fd5b613a68836138e4565b91506020830135613a7881613a41565b809150509250929050565b5f8083601f840112613a93575f80fd5b50813567ffffffffffffffff811115613aaa575f80fd5b6020830191508360208260051b8501011115613ac4575f80fd5b9250929050565b5f805f805f805f6080888a031215613ae1575f80fd5b873567ffffffffffffffff80821115613af8575f80fd5b613b048b838c01613a83565b909950975060208a0135915080821115613b1c575f80fd5b613b288b838c01613a83565b909750955060408a0135915080821115613b40575f80fd5b50613b4d8a828b01613a83565b9094509250506060880135613b6181613771565b8091505092959891949750929550565b5f610120808352613b848184018d6137e5565b90508a60208401528960408401528281036060840152613ba4818a61379a565b6080840198909852505060a081019490945260c084019290925260e083015261010090910152949350505050565b5f805f60608486031215613be4575f80fd5b83359250613bf4602085016138e4565b9150613c02604085016138e4565b90509250925092565b6020815260ff8251166020820152602082015160408201526040820151606082015260ff6060830151166080820152608082015160a082015260a082015160c08201525f60c08301516101008060e0850152613c6b61012085018361379a565b60e095909501519301929092525090919050565b5f805f60608486031215613c91575f80fd5b613c9a846138e4565b92506020840135613bf481613a41565b602080825282516001600160a01b031682820152820151606060408301525f90613cd7608084018261379a565b90506040840151601f198483030160608501526130c7828261379a565b5f60208284031215613d04575f80fd5b5035919050565b5f8151808452602080850194508084015f5b838110156137c857613d448783518051825260208082015190830152604090810151910152565b6060969096019590820190600101613d1d565b5f8151808452602080850194508084015f5b838110156137c8578151805188528301518388015260409096019590820190600101613d69565b8051151582525f602082015160606020850152613db0606085018261379a565b604093840151949093019390935250919050565b60208152815160208201525f6020830151613dea60408401826001600160a01b03169052565b50604083015160608301526060830151608083015260808301516102008060a0850152613e1b610220850183613d0b565b915060a0850151601f19808685030160c0870152613e398483613d57565b60c0880151805160e089015260208101516101008901526040810151610120890152909450915060e08701518051610140880152602081015161016088015260408101516101808801529150610100870151805115156101a0880152602081015160ff166101c088015260408101516101e08801529150610120870151915080868503018387015250613ecc8382613d90565b9695505050505050565b634e487b7160e01b5f52601160045260245ffd5b5f82613f0457634e487b7160e01b5f52601260045260245ffd5b500490565b634e487b7160e01b5f52603260045260245ffd5b5f60208284031215613f2d575f80fd5b815161183081613a41565b5f60ff821660ff8103613f4d57613f4d613ed6565b60010192915050565b6020808252602c908201527f46756e6374696f6e206d7573742062652063616c6c6564207468726f7567682060408201526b19195b1959d85d1958d85b1b60a21b606082015260800190565b6020808252602c908201527f46756e6374696f6e206d7573742062652063616c6c6564207468726f7567682060408201526b6163746976652070726f787960a01b606082015260800190565b80820281158282048414176130cc576130cc613ed6565b5f60208284031215614015575f80fd5b815161183081613771565b600181815b8085111561405a57815f190482111561404057614040613ed6565b8085161561404d57918102915b93841c9390800290614025565b509250929050565b5f82614070575060016130cc565b8161407c57505f6130cc565b8160018114614092576002811461409c576140b8565b60019150506130cc565b60ff8411156140ad576140ad613ed6565b50506001821b6130cc565b5060208310610133831016604e8410600b84101617156140db575081810a6130cc565b6140e58383614020565b805f19048211156140f8576140f8613ed6565b029392505050565b5f61183060ff841683614062565b5f6020828403121561411e575f80fd5b5051919050565b808201808211156130cc576130cc613ed6565b6020808252602b908201527f496e697469616c697a61626c653a20636f6e7472616374206973206e6f74206960408201526a6e697469616c697a696e6760a81b606082015260800190565b5f6001820161419457614194613ed6565b5060010190565b60ff81811683821601908111156130cc576130cc613ed6565b5f5b838110156141ce5781810151838201526020016141b6565b50505f910152565b5f82516141e78184602087016141b4565b9190910192915050565b818103818111156130cc576130cc613ed6565b602081525f82518060208401526142228160408501602087016141b4565b601f01601f1916919091016040019291505056fe360894a13ba1a3210667c828492db98dca3e2076cc3735a920a3ca505d382bbc416464726573733a206c6f772d6c6576656c2064656c65676174652063616c6c206661696c6564a26469706673582212203dd509e94f48343b13ad6989c176ddd6c5a0aea96be2cdfb9a9c808d776b525364736f6c63430008140033","opcodes":"PUSH1 0xA0 PUSH1 0x40 MSTORE ADDRESS PUSH1 0x80 MSTORE CALLVALUE DUP1 ISZERO PUSH2 0x13 JUMPI PUSH0 DUP1 REVERT JUMPDEST POP PUSH1 0x80 MLOAD PUSH2 0x42B3 PUSH2 0x48 PUSH0 CODECOPY PUSH0 DUP2 DUP2 PUSH2 0x7D8 ADD MSTORE DUP2 DUP2 PUSH2 0x821 ADD MSTORE DUP2 DUP2 PUSH2 0x8F6 ADD MSTORE DUP2 DUP2 PUSH2 0x936 ADD MSTORE PUSH2 0x9C7 ADD MSTORE PUSH2 0x42B3 PUSH0 RETURN INVALID PUSH1 0x80 PUSH1 0x40 MSTORE PUSH1 0x4 CALLDATASIZE LT PUSH2 0x126 JUMPI PUSH0 CALLDATALOAD PUSH1 0xE0 SHR DUP1 PUSH4 0x715018A6 GT PUSH2 0xA8 JUMPI DUP1 PUSH4 0xA73C50FA GT PUSH2 0x6D JUMPI DUP1 PUSH4 0xA73C50FA EQ PUSH2 0x313 JUMPI DUP1 PUSH4 0xC48D8E02 EQ PUSH2 0x332 JUMPI DUP1 PUSH4 0xF2FDE38B EQ PUSH2 0x35E JUMPI DUP1 PUSH4 0xF782ABC7 EQ PUSH2 0x37D JUMPI DUP1 PUSH4 0xFB47E016 EQ PUSH2 0x39C JUMPI DUP1 PUSH4 0xFF43599C EQ PUSH2 0x3C8 JUMPI PUSH0 DUP1 REVERT JUMPDEST DUP1 PUSH4 0x715018A6 EQ PUSH2 0x27C JUMPI DUP1 PUSH4 0x754AC430 EQ PUSH2 0x290 JUMPI DUP1 PUSH4 0x8129FC1C EQ PUSH2 0x2AF JUMPI DUP1 PUSH4 0x83B41E66 EQ PUSH2 0x2C3 JUMPI DUP1 PUSH4 0x8DA5CB5B EQ PUSH2 0x2EC JUMPI PUSH0 DUP1 REVERT JUMPDEST DUP1 PUSH4 0x493CE4E1 GT PUSH2 0xEE JUMPI DUP1 PUSH4 0x493CE4E1 EQ PUSH2 0x1E7 JUMPI DUP1 PUSH4 0x4F1EF286 EQ PUSH2 0x206 JUMPI DUP1 PUSH4 0x52D1902D EQ PUSH2 0x219 JUMPI DUP1 PUSH4 0x54F132E8 EQ PUSH2 0x23B JUMPI DUP1 PUSH4 0x5C975ABB EQ PUSH2 0x25A JUMPI PUSH0 DUP1 REVERT JUMPDEST DUP1 PUSH4 0x15B463FF EQ PUSH2 0x12A JUMPI DUP1 PUSH4 0x1A746344 EQ PUSH2 0x15F JUMPI DUP1 PUSH4 0x2B3412E3 EQ PUSH2 0x186 JUMPI DUP1 PUSH4 0x2CE75863 EQ PUSH2 0x1A7 JUMPI DUP1 PUSH4 0x3659CFE6 EQ PUSH2 0x1C8 JUMPI JUMPDEST PUSH0 DUP1 REVERT JUMPDEST CALLVALUE DUP1 ISZERO PUSH2 0x135 JUMPI PUSH0 DUP1 REVERT JUMPDEST POP PUSH2 0x149 PUSH2 0x144 CALLDATASIZE PUSH1 0x4 PUSH2 0x377F JUMP JUMPDEST PUSH2 0x3F4 JUMP JUMPDEST PUSH1 0x40 MLOAD PUSH2 0x156 SWAP2 SWAP1 PUSH2 0x37D3 JUMP JUMPDEST PUSH1 0x40 MLOAD DUP1 SWAP2 SUB SWAP1 RETURN JUMPDEST CALLVALUE DUP1 ISZERO PUSH2 0x16A JUMPI PUSH0 DUP1 REVERT JUMPDEST POP PUSH2 0x173 PUSH2 0x45B JUMP JUMPDEST PUSH1 0x40 MLOAD PUSH2 0x156 SWAP8 SWAP7 SWAP6 SWAP5 SWAP4 SWAP3 SWAP2 SWAP1 PUSH2 0x3886 JUMP JUMPDEST CALLVALUE DUP1 ISZERO PUSH2 0x191 JUMPI PUSH0 DUP1 REVERT JUMPDEST POP PUSH2 0x1A5 PUSH2 0x1A0 CALLDATASIZE PUSH1 0x4 PUSH2 0x38FA JUMP JUMPDEST PUSH2 0x5E5 JUMP JUMPDEST STOP JUMPDEST CALLVALUE DUP1 ISZERO PUSH2 0x1B2 JUMPI PUSH0 DUP1 REVERT JUMPDEST POP PUSH2 0x1BB PUSH2 0x726 JUMP JUMPDEST PUSH1 0x40 MLOAD PUSH2 0x156 SWAP2 SWAP1 PUSH2 0x3913 JUMP JUMPDEST CALLVALUE DUP1 ISZERO PUSH2 0x1D3 JUMPI PUSH0 DUP1 REVERT JUMPDEST POP PUSH2 0x1A5 PUSH2 0x1E2 CALLDATASIZE PUSH1 0x4 PUSH2 0x38FA JUMP JUMPDEST PUSH2 0x7CE JUMP JUMPDEST CALLVALUE DUP1 ISZERO PUSH2 0x1F2 JUMPI PUSH0 DUP1 REVERT JUMPDEST POP PUSH2 0x1A5 PUSH2 0x201 CALLDATASIZE PUSH1 0x4 PUSH2 0x3925 JUMP JUMPDEST PUSH2 0x8B4 JUMP JUMPDEST PUSH2 0x1A5 PUSH2 0x214 CALLDATASIZE PUSH1 0x4 PUSH2 0x3985 JUMP JUMPDEST PUSH2 0x8EC JUMP JUMPDEST CALLVALUE DUP1 ISZERO PUSH2 0x224 JUMPI PUSH0 DUP1 REVERT JUMPDEST POP PUSH2 0x22D PUSH2 0x9BB JUMP JUMPDEST PUSH1 0x40 MLOAD SWAP1 DUP2 MSTORE PUSH1 0x20 ADD PUSH2 0x156 JUMP JUMPDEST CALLVALUE DUP1 ISZERO PUSH2 0x246 JUMPI PUSH0 DUP1 REVERT JUMPDEST POP PUSH2 0x1A5 PUSH2 0x255 CALLDATASIZE PUSH1 0x4 PUSH2 0x3A4E JUMP JUMPDEST PUSH2 0xA6C JUMP JUMPDEST CALLVALUE DUP1 ISZERO PUSH2 0x265 JUMPI PUSH0 DUP1 REVERT JUMPDEST POP PUSH1 0x33 SLOAD PUSH1 0xFF AND PUSH1 0x40 MLOAD SWAP1 ISZERO ISZERO DUP2 MSTORE PUSH1 0x20 ADD PUSH2 0x156 JUMP JUMPDEST CALLVALUE DUP1 ISZERO PUSH2 0x287 JUMPI PUSH0 DUP1 REVERT JUMPDEST POP PUSH2 0x1A5 PUSH2 0xBDD JUMP JUMPDEST CALLVALUE DUP1 ISZERO PUSH2 0x29B JUMPI PUSH0 DUP1 REVERT JUMPDEST POP PUSH2 0x1A5 PUSH2 0x2AA CALLDATASIZE PUSH1 0x4 PUSH2 0x3ACB JUMP JUMPDEST PUSH2 0xBF0 JUMP JUMPDEST CALLVALUE DUP1 ISZERO PUSH2 0x2BA JUMPI PUSH0 DUP1 REVERT JUMPDEST POP PUSH2 0x1A5 PUSH2 0xD02 JUMP JUMPDEST CALLVALUE DUP1 ISZERO PUSH2 0x2CE JUMPI PUSH0 DUP1 REVERT JUMPDEST POP PUSH2 0x2D7 PUSH2 0xECF JUMP JUMPDEST PUSH1 0x40 MLOAD PUSH2 0x156 SWAP10 SWAP9 SWAP8 SWAP7 SWAP6 SWAP5 SWAP4 SWAP3 SWAP2 SWAP1 PUSH2 0x3B71 JUMP JUMPDEST CALLVALUE DUP1 ISZERO PUSH2 0x2F7 JUMPI PUSH0 DUP1 REVERT JUMPDEST POP PUSH1 0x65 SLOAD PUSH1 0x40 MLOAD PUSH1 0x1 PUSH1 0x1 PUSH1 0xA0 SHL SUB SWAP1 SWAP2 AND DUP2 MSTORE PUSH1 0x20 ADD PUSH2 0x156 JUMP JUMPDEST CALLVALUE DUP1 ISZERO PUSH2 0x31E JUMPI PUSH0 DUP1 REVERT JUMPDEST POP PUSH2 0x1A5 PUSH2 0x32D CALLDATASIZE PUSH1 0x4 PUSH2 0x3BD2 JUMP JUMPDEST PUSH2 0xFBE JUMP JUMPDEST CALLVALUE DUP1 ISZERO PUSH2 0x33D JUMPI PUSH0 DUP1 REVERT JUMPDEST POP PUSH2 0x351 PUSH2 0x34C CALLDATASIZE PUSH1 0x4 PUSH2 0x377F JUMP JUMPDEST PUSH2 0x1057 JUMP JUMPDEST PUSH1 0x40 MLOAD PUSH2 0x156 SWAP2 SWAP1 PUSH2 0x3C0B JUMP JUMPDEST CALLVALUE DUP1 ISZERO PUSH2 0x369 JUMPI PUSH0 DUP1 REVERT JUMPDEST POP PUSH2 0x1A5 PUSH2 0x378 CALLDATASIZE PUSH1 0x4 PUSH2 0x38FA JUMP JUMPDEST PUSH2 0x115D JUMP JUMPDEST CALLVALUE DUP1 ISZERO PUSH2 0x388 JUMPI PUSH0 DUP1 REVERT JUMPDEST POP PUSH2 0x1A5 PUSH2 0x397 CALLDATASIZE PUSH1 0x4 PUSH2 0x3C7F JUMP JUMPDEST PUSH2 0x11D3 JUMP JUMPDEST CALLVALUE DUP1 ISZERO PUSH2 0x3A7 JUMPI PUSH0 DUP1 REVERT JUMPDEST POP PUSH2 0x3BB PUSH2 0x3B6 CALLDATASIZE PUSH1 0x4 PUSH2 0x38FA JUMP JUMPDEST PUSH2 0x1462 JUMP JUMPDEST PUSH1 0x40 MLOAD PUSH2 0x156 SWAP2 SWAP1 PUSH2 0x3CAA JUMP JUMPDEST CALLVALUE DUP1 ISZERO PUSH2 0x3D3 JUMPI PUSH0 DUP1 REVERT JUMPDEST POP PUSH2 0x3E7 PUSH2 0x3E2 CALLDATASIZE PUSH1 0x4 PUSH2 0x3CF4 JUMP JUMPDEST PUSH2 0x156B JUMP JUMPDEST PUSH1 0x40 MLOAD PUSH2 0x156 SWAP2 SWAP1 PUSH2 0x3DC4 JUMP JUMPDEST PUSH1 0xFF DUP2 AND PUSH0 SWAP1 DUP2 MSTORE PUSH2 0x10E PUSH1 0x20 SWAP1 DUP2 MSTORE PUSH1 0x40 SWAP2 DUP3 SWAP1 KECCAK256 PUSH1 0x6 ADD DUP1 SLOAD DUP4 MLOAD DUP2 DUP5 MUL DUP2 ADD DUP5 ADD SWAP1 SWAP5 MSTORE DUP1 DUP5 MSTORE PUSH1 0x60 SWAP4 SWAP3 DUP4 ADD DUP3 DUP3 DUP1 ISZERO PUSH2 0x44F JUMPI PUSH1 0x20 MUL DUP3 ADD SWAP2 SWAP1 PUSH0 MSTORE PUSH1 0x20 PUSH0 KECCAK256 SWAP1 JUMPDEST DUP2 SLOAD DUP2 MSTORE PUSH1 0x20 ADD SWAP1 PUSH1 0x1 ADD SWAP1 DUP1 DUP4 GT PUSH2 0x43B JUMPI JUMPDEST POP POP POP POP POP SWAP1 POP SWAP2 SWAP1 POP JUMP JUMPDEST PUSH1 0x60 PUSH0 DUP1 PUSH0 PUSH1 0x60 PUSH0 PUSH1 0x60 PUSH1 0xFF DUP1 SLOAD DUP1 PUSH1 0x20 MUL PUSH1 0x20 ADD PUSH1 0x40 MLOAD SWAP1 DUP2 ADD PUSH1 0x40 MSTORE DUP1 SWAP3 SWAP2 SWAP1 DUP2 DUP2 MSTORE PUSH1 0x20 ADD DUP3 DUP1 SLOAD DUP1 ISZERO PUSH2 0x4AF JUMPI PUSH1 0x20 MUL DUP3 ADD SWAP2 SWAP1 PUSH0 MSTORE PUSH1 0x20 PUSH0 KECCAK256 SWAP1 JUMPDEST DUP2 SLOAD DUP2 MSTORE PUSH1 0x20 ADD SWAP1 PUSH1 0x1 ADD SWAP1 DUP1 DUP4 GT PUSH2 0x49B JUMPI JUMPDEST POP POP POP POP POP SWAP7 POP PUSH2 0x100 SLOAD SWAP6 POP PUSH2 0x101 PUSH0 SWAP1 SLOAD SWAP1 PUSH2 0x100 EXP SWAP1 DIV PUSH1 0xFF AND PUSH1 0xFF AND SWAP5 POP PUSH2 0x102 SLOAD SWAP4 POP PUSH2 0x103 DUP1 SLOAD DUP1 PUSH1 0x20 MUL PUSH1 0x20 ADD PUSH1 0x40 MLOAD SWAP1 DUP2 ADD PUSH1 0x40 MSTORE DUP1 SWAP3 SWAP2 SWAP1 DUP2 DUP2 MSTORE PUSH1 0x20 ADD DUP3 DUP1 SLOAD DUP1 ISZERO PUSH2 0x52C JUMPI PUSH1 0x20 MUL DUP3 ADD SWAP2 SWAP1 PUSH0 MSTORE PUSH1 0x20 PUSH0 KECCAK256 SWAP1 JUMPDEST DUP2 SLOAD PUSH1 0x1 PUSH1 0x1 PUSH1 0xA0 SHL SUB AND DUP2 MSTORE PUSH1 0x1 SWAP1 SWAP2 ADD SWAP1 PUSH1 0x20 ADD DUP1 DUP4 GT PUSH2 0x50E JUMPI JUMPDEST POP POP POP POP POP SWAP3 POP PUSH2 0x104 SLOAD SWAP2 POP PUSH2 0x109 DUP1 SLOAD DUP1 PUSH1 0x20 MUL PUSH1 0x20 ADD PUSH1 0x40 MLOAD SWAP1 DUP2 ADD PUSH1 0x40 MSTORE DUP1 SWAP3 SWAP2 SWAP1 DUP2 DUP2 MSTORE PUSH1 0x20 ADD PUSH0 SWAP1 JUMPDEST DUP3 DUP3 LT ISZERO PUSH2 0x5D6 JUMPI PUSH0 DUP5 DUP2 MSTORE PUSH1 0x20 SWAP1 DUP2 SWAP1 KECCAK256 PUSH1 0x40 DUP1 MLOAD PUSH1 0xA0 DUP2 ADD DUP3 MSTORE PUSH1 0x3 DUP7 MUL SWAP1 SWAP3 ADD DUP1 SLOAD PUSH1 0x1 PUSH1 0x1 PUSH1 0xA0 SHL SUB SWAP1 DUP2 AND DUP5 MSTORE PUSH1 0x1 DUP1 DUP4 ADD SLOAD DUP6 DUP8 ADD MSTORE PUSH1 0x2 SWAP1 SWAP3 ADD SLOAD PUSH1 0xFF DUP1 DUP3 AND ISZERO ISZERO SWAP5 DUP7 ADD SWAP5 SWAP1 SWAP5 MSTORE PUSH2 0x100 DUP2 DIV SWAP1 SWAP2 AND PUSH1 0x60 DUP6 ADD MSTORE PUSH1 0x1 PUSH1 0xA8 SHL SWAP1 DIV SWAP1 SWAP2 AND ISZERO ISZERO PUSH1 0x80 DUP4 ADD MSTORE SWAP1 DUP4 MSTORE SWAP1 SWAP3 ADD SWAP2 ADD PUSH2 0x55B JUMP JUMPDEST POP POP POP POP SWAP1 POP SWAP1 SWAP2 SWAP3 SWAP4 SWAP5 SWAP6 SWAP7 JUMP JUMPDEST PUSH0 PUSH2 0x103 DUP1 SLOAD DUP1 PUSH1 0x20 MUL PUSH1 0x20 ADD PUSH1 0x40 MLOAD SWAP1 DUP2 ADD PUSH1 0x40 MSTORE DUP1 SWAP3 SWAP2 SWAP1 DUP2 DUP2 MSTORE PUSH1 0x20 ADD DUP3 DUP1 SLOAD DUP1 ISZERO PUSH2 0x63B JUMPI PUSH1 0x20 MUL DUP3 ADD SWAP2 SWAP1 PUSH0 MSTORE PUSH1 0x20 PUSH0 KECCAK256 SWAP1 JUMPDEST DUP2 SLOAD PUSH1 0x1 PUSH1 0x1 PUSH1 0xA0 SHL SUB AND DUP2 MSTORE PUSH1 0x1 SWAP1 SWAP2 ADD SWAP1 PUSH1 0x20 ADD DUP1 DUP4 GT PUSH2 0x61D JUMPI JUMPDEST POP POP POP POP POP SWAP1 POP PUSH0 PUSH2 0x106 SLOAD SWAP1 POP PUSH0 DUP3 MLOAD DUP3 PUSH2 0x657 SWAP2 SWAP1 PUSH2 0x3EEA JUMP JUMPDEST SWAP1 POP PUSH0 JUMPDEST DUP4 MLOAD DUP2 PUSH1 0xFF AND LT ISZERO PUSH2 0x71A JUMPI DUP5 PUSH1 0x1 PUSH1 0x1 PUSH1 0xA0 SHL SUB AND PUSH4 0xA9059CBB DUP6 DUP4 PUSH1 0xFF AND DUP2 MLOAD DUP2 LT PUSH2 0x68B JUMPI PUSH2 0x68B PUSH2 0x3F09 JUMP JUMPDEST PUSH1 0x20 MUL PUSH1 0x20 ADD ADD MLOAD PUSH2 0x69D DUP6 DUP10 PUSH2 0x17A7 JUMP JUMPDEST PUSH1 0x40 MLOAD PUSH1 0x1 PUSH1 0x1 PUSH1 0xE0 SHL SUB NOT PUSH1 0xE0 DUP6 SWAP1 SHL AND DUP2 MSTORE PUSH1 0x1 PUSH1 0x1 PUSH1 0xA0 SHL SUB SWAP1 SWAP3 AND PUSH1 0x4 DUP4 ADD MSTORE PUSH1 0x24 DUP3 ADD MSTORE PUSH1 0x44 ADD PUSH1 0x20 PUSH1 0x40 MLOAD DUP1 DUP4 SUB DUP2 PUSH0 DUP8 GAS CALL ISZERO DUP1 ISZERO PUSH2 0x6E5 JUMPI RETURNDATASIZE PUSH0 DUP1 RETURNDATACOPY RETURNDATASIZE PUSH0 REVERT JUMPDEST POP POP POP POP PUSH1 0x40 MLOAD RETURNDATASIZE PUSH1 0x1F NOT PUSH1 0x1F DUP3 ADD AND DUP3 ADD DUP1 PUSH1 0x40 MSTORE POP DUP2 ADD SWAP1 PUSH2 0x709 SWAP2 SWAP1 PUSH2 0x3F1D JUMP JUMPDEST POP PUSH2 0x713 DUP2 PUSH2 0x3F38 JUMP JUMPDEST SWAP1 POP PUSH2 0x65B JUMP JUMPDEST POP POP PUSH0 PUSH2 0x106 SSTORE POP POP POP JUMP JUMPDEST PUSH1 0x60 PUSH2 0x109 DUP1 SLOAD DUP1 PUSH1 0x20 MUL PUSH1 0x20 ADD PUSH1 0x40 MLOAD SWAP1 DUP2 ADD PUSH1 0x40 MSTORE DUP1 SWAP3 SWAP2 SWAP1 DUP2 DUP2 MSTORE PUSH1 0x20 ADD PUSH0 SWAP1 JUMPDEST DUP3 DUP3 LT ISZERO PUSH2 0x7C5 JUMPI PUSH0 DUP5 DUP2 MSTORE PUSH1 0x20 SWAP1 DUP2 SWAP1 KECCAK256 PUSH1 0x40 DUP1 MLOAD PUSH1 0xA0 DUP2 ADD DUP3 MSTORE PUSH1 0x3 DUP7 MUL SWAP1 SWAP3 ADD DUP1 SLOAD PUSH1 0x1 PUSH1 0x1 PUSH1 0xA0 SHL SUB SWAP1 DUP2 AND DUP5 MSTORE PUSH1 0x1 DUP1 DUP4 ADD SLOAD DUP6 DUP8 ADD MSTORE PUSH1 0x2 SWAP1 SWAP3 ADD SLOAD PUSH1 0xFF DUP1 DUP3 AND ISZERO ISZERO SWAP5 DUP7 ADD SWAP5 SWAP1 SWAP5 MSTORE PUSH2 0x100 DUP2 DIV SWAP1 SWAP2 AND PUSH1 0x60 DUP6 ADD MSTORE PUSH1 0x1 PUSH1 0xA8 SHL SWAP1 DIV SWAP1 SWAP2 AND ISZERO ISZERO PUSH1 0x80 DUP4 ADD MSTORE SWAP1 DUP4 MSTORE SWAP1 SWAP3 ADD SWAP2 ADD PUSH2 0x74A JUMP JUMPDEST POP POP POP POP SWAP1 POP SWAP1 JUMP JUMPDEST PUSH1 0x1 PUSH1 0x1 PUSH1 0xA0 SHL SUB PUSH32 0x0 AND ADDRESS SUB PUSH2 0x81F JUMPI PUSH1 0x40 MLOAD PUSH3 0x461BCD PUSH1 0xE5 SHL DUP2 MSTORE PUSH1 0x4 ADD PUSH2 0x816 SWAP1 PUSH2 0x3F56 JUMP JUMPDEST PUSH1 0x40 MLOAD DUP1 SWAP2 SUB SWAP1 REVERT JUMPDEST PUSH32 0x0 PUSH1 0x1 PUSH1 0x1 PUSH1 0xA0 SHL SUB AND PUSH2 0x867 PUSH0 DUP1 MLOAD PUSH1 0x20 PUSH2 0x4237 DUP4 CODECOPY DUP2 MLOAD SWAP2 MSTORE SLOAD PUSH1 0x1 PUSH1 0x1 PUSH1 0xA0 SHL SUB AND SWAP1 JUMP JUMPDEST PUSH1 0x1 PUSH1 0x1 PUSH1 0xA0 SHL SUB AND EQ PUSH2 0x88D JUMPI PUSH1 0x40 MLOAD PUSH3 0x461BCD PUSH1 0xE5 SHL DUP2 MSTORE PUSH1 0x4 ADD PUSH2 0x816 SWAP1 PUSH2 0x3FA2 JUMP JUMPDEST PUSH2 0x896 DUP2 PUSH2 0x1837 JUMP JUMPDEST PUSH1 0x40 DUP1 MLOAD PUSH0 DUP1 DUP3 MSTORE PUSH1 0x20 DUP3 ADD SWAP1 SWAP3 MSTORE PUSH2 0x8B1 SWAP2 DUP4 SWAP2 SWAP1 PUSH2 0x183F JUMP JUMPDEST POP JUMP JUMPDEST PUSH2 0x104 SLOAD PUSH0 JUMPDEST DUP6 PUSH1 0xFF AND DUP2 PUSH1 0xFF AND LT ISZERO PUSH2 0x8E4 JUMPI PUSH2 0x8D4 DUP6 DUP6 DUP6 DUP6 PUSH2 0x19AE JUMP JUMPDEST PUSH2 0x8DD DUP2 PUSH2 0x3F38 JUMP JUMPDEST SWAP1 POP PUSH2 0x8BA JUMP JUMPDEST POP POP POP POP POP POP JUMP JUMPDEST PUSH1 0x1 PUSH1 0x1 PUSH1 0xA0 SHL SUB PUSH32 0x0 AND ADDRESS SUB PUSH2 0x934 JUMPI PUSH1 0x40 MLOAD PUSH3 0x461BCD PUSH1 0xE5 SHL DUP2 MSTORE PUSH1 0x4 ADD PUSH2 0x816 SWAP1 PUSH2 0x3F56 JUMP JUMPDEST PUSH32 0x0 PUSH1 0x1 PUSH1 0x1 PUSH1 0xA0 SHL SUB AND PUSH2 0x97C PUSH0 DUP1 MLOAD PUSH1 0x20 PUSH2 0x4237 DUP4 CODECOPY DUP2 MLOAD SWAP2 MSTORE SLOAD PUSH1 0x1 PUSH1 0x1 PUSH1 0xA0 SHL SUB AND SWAP1 JUMP JUMPDEST PUSH1 0x1 PUSH1 0x1 PUSH1 0xA0 SHL SUB AND EQ PUSH2 0x9A2 JUMPI PUSH1 0x40 MLOAD PUSH3 0x461BCD PUSH1 0xE5 SHL DUP2 MSTORE PUSH1 0x4 ADD PUSH2 0x816 SWAP1 PUSH2 0x3FA2 JUMP JUMPDEST PUSH2 0x9AB DUP3 PUSH2 0x1837 JUMP JUMPDEST PUSH2 0x9B7 DUP3 DUP3 PUSH1 0x1 PUSH2 0x183F JUMP JUMPDEST POP POP JUMP JUMPDEST PUSH0 ADDRESS PUSH1 0x1 PUSH1 0x1 PUSH1 0xA0 SHL SUB PUSH32 0x0 AND EQ PUSH2 0xA5A JUMPI PUSH1 0x40 MLOAD PUSH3 0x461BCD PUSH1 0xE5 SHL DUP2 MSTORE PUSH1 0x20 PUSH1 0x4 DUP3 ADD MSTORE PUSH1 0x38 PUSH1 0x24 DUP3 ADD MSTORE PUSH32 0x555550535570677261646561626C653A206D757374206E6F742062652063616C PUSH1 0x44 DUP3 ADD MSTORE PUSH32 0x6C6564207468726F7567682064656C656761746563616C6C0000000000000000 PUSH1 0x64 DUP3 ADD MSTORE PUSH1 0x84 ADD PUSH2 0x816 JUMP JUMPDEST POP PUSH0 DUP1 MLOAD PUSH1 0x20 PUSH2 0x4237 DUP4 CODECOPY DUP2 MLOAD SWAP2 MSTORE SWAP1 JUMP JUMPDEST PUSH2 0xA74 PUSH2 0x1E32 JUMP JUMPDEST PUSH1 0x1 PUSH1 0x1 PUSH1 0xA0 SHL SUB DUP3 DUP2 AND PUSH0 SWAP1 DUP2 MSTORE PUSH2 0x10D PUSH1 0x20 MSTORE PUSH1 0x40 SWAP1 KECCAK256 SLOAD AND PUSH2 0xAF8 JUMPI PUSH1 0x40 MLOAD PUSH3 0x461BCD PUSH1 0xE5 SHL DUP2 MSTORE PUSH1 0x20 PUSH1 0x4 DUP3 ADD MSTORE PUSH1 0x34 PUSH1 0x24 DUP3 ADD MSTORE PUSH32 0x736574537570706F72746564546F6B656E53746174757328293A20546F6B656E PUSH1 0x44 DUP3 ADD MSTORE PUSH20 0x1034B9903737BA1030B23232B21030B23232B217 PUSH1 0x61 SHL PUSH1 0x64 DUP3 ADD MSTORE PUSH1 0x84 ADD PUSH2 0x816 JUMP JUMPDEST PUSH1 0x1 PUSH1 0x1 PUSH1 0xA0 SHL SUB DUP3 AND PUSH0 SWAP1 DUP2 MSTORE PUSH2 0x10D PUSH1 0x20 MSTORE PUSH1 0x40 SWAP1 KECCAK256 PUSH1 0x2 ADD SLOAD DUP2 ISZERO ISZERO PUSH1 0x1 PUSH1 0xA8 SHL SWAP1 SWAP2 DIV PUSH1 0xFF AND ISZERO ISZERO SUB PUSH2 0xBA5 JUMPI PUSH1 0x40 MLOAD PUSH3 0x461BCD PUSH1 0xE5 SHL DUP2 MSTORE PUSH1 0x20 PUSH1 0x4 DUP3 ADD MSTORE PUSH1 0x45 PUSH1 0x24 DUP3 ADD MSTORE PUSH32 0x736574537570706F72746564546F6B656E53746174757328293A20546F6B656E PUSH1 0x44 DUP3 ADD MSTORE PUSH32 0x2073746174757320697320616C72656164792073616D65206173206D656E7469 PUSH1 0x64 DUP3 ADD MSTORE PUSH5 0x37B732B217 PUSH1 0xD9 SHL PUSH1 0x84 DUP3 ADD MSTORE PUSH1 0xA4 ADD PUSH2 0x816 JUMP JUMPDEST PUSH1 0x1 PUSH1 0x1 PUSH1 0xA0 SHL SUB SWAP1 SWAP2 AND PUSH0 SWAP1 DUP2 MSTORE PUSH2 0x10D PUSH1 0x20 MSTORE PUSH1 0x40 SWAP1 KECCAK256 PUSH1 0x2 ADD DUP1 SLOAD SWAP2 ISZERO ISZERO PUSH1 0x1 PUSH1 0xA8 SHL MUL PUSH1 0xFF PUSH1 0xA8 SHL NOT SWAP1 SWAP3 AND SWAP2 SWAP1 SWAP2 OR SWAP1 SSTORE JUMP JUMPDEST PUSH2 0xBE5 PUSH2 0x1E32 JUMP JUMPDEST PUSH2 0xBEE PUSH0 PUSH2 0x1E8C JUMP JUMPDEST JUMP JUMPDEST PUSH2 0xBF8 PUSH2 0x1E32 JUMP JUMPDEST PUSH0 JUMPDEST PUSH1 0xFF DUP2 AND DUP8 GT ISZERO PUSH2 0xCF8 JUMPI PUSH0 PUSH2 0x10E PUSH0 DUP11 DUP11 DUP6 PUSH1 0xFF AND DUP2 DUP2 LT PUSH2 0xC1F JUMPI PUSH2 0xC1F PUSH2 0x3F09 JUMP JUMPDEST SWAP1 POP PUSH1 0x20 MUL ADD PUSH1 0x20 DUP2 ADD SWAP1 PUSH2 0xC34 SWAP2 SWAP1 PUSH2 0x377F JUMP JUMPDEST PUSH1 0xFF AND PUSH1 0xFF AND DUP2 MSTORE PUSH1 0x20 ADD SWAP1 DUP2 MSTORE PUSH1 0x20 ADD PUSH0 KECCAK256 SWAP1 POP DUP9 DUP9 DUP4 PUSH1 0xFF AND DUP2 DUP2 LT PUSH2 0xC5E JUMPI PUSH2 0xC5E PUSH2 0x3F09 JUMP JUMPDEST SWAP1 POP PUSH1 0x20 MUL ADD PUSH1 0x20 DUP2 ADD SWAP1 PUSH2 0xC73 SWAP2 SWAP1 PUSH2 0x377F JUMP JUMPDEST DUP2 SLOAD PUSH1 0xFF NOT AND PUSH1 0xFF SWAP2 DUP3 AND OR DUP3 SSTORE DUP8 SWAP1 DUP8 SWAP1 DUP5 AND DUP2 DUP2 LT PUSH2 0xC96 JUMPI PUSH2 0xC96 PUSH2 0x3F09 JUMP JUMPDEST SWAP1 POP PUSH1 0x20 MUL ADD CALLDATALOAD PUSH8 0xDE0B6B3A7640000 PUSH2 0xCB0 SWAP2 SWAP1 PUSH2 0x3FEE JUMP JUMPDEST PUSH1 0x1 DUP3 ADD SSTORE DUP5 DUP5 PUSH1 0xFF DUP5 AND DUP2 DUP2 LT PUSH2 0xCCA JUMPI PUSH2 0xCCA PUSH2 0x3F09 JUMP JUMPDEST PUSH1 0x20 MUL SWAP2 SWAP1 SWAP2 ADD CALLDATALOAD PUSH1 0x2 DUP4 ADD SSTORE POP PUSH1 0x3 ADD DUP1 SLOAD PUSH1 0xFF NOT AND PUSH1 0xFF DUP5 AND OR SWAP1 SSTORE PUSH2 0xCF1 DUP2 PUSH2 0x3F38 JUMP JUMPDEST SWAP1 POP PUSH2 0xBFA JUMP JUMPDEST POP POP POP POP POP POP POP POP JUMP JUMPDEST PUSH0 SLOAD PUSH2 0x100 SWAP1 DIV PUSH1 0xFF AND ISZERO DUP1 DUP1 ISZERO PUSH2 0xD20 JUMPI POP PUSH0 SLOAD PUSH1 0x1 PUSH1 0xFF SWAP1 SWAP2 AND LT JUMPDEST DUP1 PUSH2 0xD39 JUMPI POP ADDRESS EXTCODESIZE ISZERO DUP1 ISZERO PUSH2 0xD39 JUMPI POP PUSH0 SLOAD PUSH1 0xFF AND PUSH1 0x1 EQ JUMPDEST PUSH2 0xD9C JUMPI PUSH1 0x40 MLOAD PUSH3 0x461BCD PUSH1 0xE5 SHL DUP2 MSTORE PUSH1 0x20 PUSH1 0x4 DUP3 ADD MSTORE PUSH1 0x2E PUSH1 0x24 DUP3 ADD MSTORE PUSH32 0x496E697469616C697A61626C653A20636F6E747261637420697320616C726561 PUSH1 0x44 DUP3 ADD MSTORE PUSH14 0x191E481A5B9A5D1A585B1A5E9959 PUSH1 0x92 SHL PUSH1 0x64 DUP3 ADD MSTORE PUSH1 0x84 ADD PUSH2 0x816 JUMP JUMPDEST PUSH0 DUP1 SLOAD PUSH1 0xFF NOT AND PUSH1 0x1 OR SWAP1 SSTORE DUP1 ISZERO PUSH2 0xDBD JUMPI PUSH0 DUP1 SLOAD PUSH2 0xFF00 NOT AND PUSH2 0x100 OR SWAP1 SSTORE JUMPDEST PUSH1 0x2 PUSH2 0x100 SSTORE PUSH1 0x40 DUP1 MLOAD PUSH1 0x20 DUP2 ADD SWAP1 SWAP2 MSTORE PUSH1 0x32 DUP2 MSTORE PUSH2 0xDE0 SWAP1 PUSH1 0xFF SWAP1 PUSH1 0x1 PUSH2 0x3640 JUMP JUMPDEST POP PUSH2 0x101 DUP1 SLOAD PUSH1 0xFF NOT AND PUSH1 0x14 OR SWAP1 SSTORE PUSH2 0x103 DUP1 SLOAD PUSH1 0x1 DUP2 DUP2 ADD DUP4 SSTORE PUSH0 DUP4 SWAP1 MSTORE PUSH32 0x2C297AB74AAD0AEDE3A1895C857B1F2C71E6A203FEB727BEC95AC752998CB78 SWAP2 DUP3 ADD DUP1 SLOAD PUSH1 0x1 PUSH1 0x1 PUSH1 0xA0 SHL SUB NOT SWAP1 DUP2 AND CALLER OR SWAP1 SWAP2 SSTORE DUP4 SLOAD SWAP2 DUP3 ADD SWAP1 SWAP4 SSTORE ADD DUP1 SLOAD SWAP1 SWAP2 AND PUSH20 0x14A8EE34EDCB63F88D301215862FF5E017EBDFF1 OR SWAP1 SSTORE PUSH9 0x1158E460913D00000 PUSH2 0x102 SSTORE PUSH1 0x5 PUSH2 0x104 SSTORE PUSH2 0xE78 PUSH2 0x1EDD JUMP JUMPDEST PUSH2 0xE80 PUSH2 0x1F0B JUMP JUMPDEST PUSH2 0xE88 PUSH2 0x1F39 JUMP JUMPDEST DUP1 ISZERO PUSH2 0x8B1 JUMPI PUSH0 DUP1 SLOAD PUSH2 0xFF00 NOT AND SWAP1 SSTORE PUSH1 0x40 MLOAD PUSH1 0x1 DUP2 MSTORE PUSH32 0x7F26B83FF96E1F2B6A682F133852F6798A09C465DA95921460CEFB3847402498 SWAP1 PUSH1 0x20 ADD PUSH1 0x40 MLOAD DUP1 SWAP2 SUB SWAP1 LOG1 POP JUMP JUMPDEST PUSH1 0x60 PUSH0 DUP1 PUSH1 0x60 PUSH0 DUP1 PUSH0 DUP1 PUSH0 PUSH1 0xFB DUP1 SLOAD DUP1 PUSH1 0x20 MUL PUSH1 0x20 ADD PUSH1 0x40 MLOAD SWAP1 DUP2 ADD PUSH1 0x40 MSTORE DUP1 SWAP3 SWAP2 SWAP1 DUP2 DUP2 MSTORE PUSH1 0x20 ADD DUP3 DUP1 SLOAD DUP1 ISZERO PUSH2 0xF2E JUMPI PUSH1 0x20 MUL DUP3 ADD SWAP2 SWAP1 PUSH0 MSTORE PUSH1 0x20 PUSH0 KECCAK256 SWAP1 JUMPDEST DUP2 SLOAD PUSH1 0x1 PUSH1 0x1 PUSH1 0xA0 SHL SUB AND DUP2 MSTORE PUSH1 0x1 SWAP1 SWAP2 ADD SWAP1 PUSH1 0x20 ADD DUP1 DUP4 GT PUSH2 0xF10 JUMPI JUMPDEST POP POP POP POP POP SWAP9 POP PUSH1 0xFB DUP1 SLOAD SWAP1 POP SWAP8 POP PUSH1 0xFC SLOAD SWAP7 POP PUSH1 0xFD DUP1 SLOAD SWAP1 POP SWAP5 POP PUSH1 0xFD DUP1 SLOAD DUP1 PUSH1 0x20 MUL PUSH1 0x20 ADD PUSH1 0x40 MLOAD SWAP1 DUP2 ADD PUSH1 0x40 MSTORE DUP1 SWAP3 SWAP2 SWAP1 DUP2 DUP2 MSTORE PUSH1 0x20 ADD DUP3 DUP1 SLOAD DUP1 ISZERO PUSH2 0xF94 JUMPI PUSH1 0x20 MUL DUP3 ADD SWAP2 SWAP1 PUSH0 MSTORE PUSH1 0x20 PUSH0 KECCAK256 SWAP1 JUMPDEST DUP2 SLOAD DUP2 MSTORE PUSH1 0x20 ADD SWAP1 PUSH1 0x1 ADD SWAP1 DUP1 DUP4 GT PUSH2 0xF80 JUMPI JUMPDEST POP POP POP POP POP SWAP6 POP PUSH2 0x107 SLOAD SWAP4 POP PUSH2 0x108 SLOAD SWAP3 POP PUSH2 0x105 SLOAD SWAP2 POP PUSH2 0x106 SLOAD SWAP1 POP SWAP1 SWAP2 SWAP3 SWAP4 SWAP5 SWAP6 SWAP7 SWAP8 SWAP9 JUMP JUMPDEST PUSH2 0x10A SLOAD PUSH1 0xFF AND ISZERO PUSH2 0x1026 JUMPI PUSH1 0x40 MLOAD PUSH3 0x461BCD PUSH1 0xE5 SHL DUP2 MSTORE PUSH1 0x20 PUSH1 0x4 DUP3 ADD MSTORE PUSH1 0x2B PUSH1 0x24 DUP3 ADD MSTORE PUSH32 0x5265656E7472616E6379477561726428293A20436F6E7472616374205265656E PUSH1 0x44 DUP3 ADD MSTORE PUSH11 0x1D1C985B98DE51DD585C99 PUSH1 0xAA SHL PUSH1 0x64 DUP3 ADD MSTORE PUSH1 0x84 ADD PUSH2 0x816 JUMP JUMPDEST PUSH2 0x10A DUP1 SLOAD PUSH1 0xFF NOT AND PUSH1 0x1 OR SWAP1 SSTORE PUSH2 0x104 SLOAD PUSH2 0x1047 SWAP1 DUP5 SWAP1 DUP5 SWAP1 DUP5 SWAP1 PUSH2 0x19AE JUMP JUMPDEST POP POP PUSH2 0x10A DUP1 SLOAD PUSH1 0xFF NOT AND SWAP1 SSTORE POP JUMP JUMPDEST PUSH2 0x109E PUSH1 0x40 MLOAD DUP1 PUSH2 0x100 ADD PUSH1 0x40 MSTORE DUP1 PUSH0 PUSH1 0xFF AND DUP2 MSTORE PUSH1 0x20 ADD PUSH0 DUP2 MSTORE PUSH1 0x20 ADD PUSH0 DUP2 MSTORE PUSH1 0x20 ADD PUSH0 PUSH1 0xFF AND DUP2 MSTORE PUSH1 0x20 ADD PUSH0 DUP2 MSTORE PUSH1 0x20 ADD PUSH0 DUP2 MSTORE PUSH1 0x20 ADD PUSH1 0x60 DUP2 MSTORE PUSH1 0x20 ADD PUSH0 DUP2 MSTORE POP SWAP1 JUMP JUMPDEST PUSH1 0xFF DUP1 DUP4 AND PUSH0 SWAP1 DUP2 MSTORE PUSH2 0x10E PUSH1 0x20 SWAP1 DUP2 MSTORE PUSH1 0x40 SWAP2 DUP3 SWAP1 KECCAK256 DUP3 MLOAD PUSH2 0x100 DUP2 ADD DUP5 MSTORE DUP2 SLOAD DUP6 AND DUP2 MSTORE PUSH1 0x1 DUP3 ADD SLOAD DUP2 DUP5 ADD MSTORE PUSH1 0x2 DUP3 ADD SLOAD DUP2 DUP6 ADD MSTORE PUSH1 0x3 DUP3 ADD SLOAD SWAP1 SWAP5 AND PUSH1 0x60 DUP6 ADD MSTORE PUSH1 0x4 DUP2 ADD SLOAD PUSH1 0x80 DUP6 ADD MSTORE PUSH1 0x5 DUP2 ADD SLOAD PUSH1 0xA0 DUP6 ADD MSTORE PUSH1 0x6 DUP2 ADD DUP1 SLOAD DUP5 MLOAD DUP2 DUP6 MUL DUP2 ADD DUP6 ADD SWAP1 SWAP6 MSTORE DUP1 DUP6 MSTORE SWAP2 SWAP4 PUSH1 0xC0 DUP7 ADD SWAP4 SWAP1 SWAP3 SWAP1 DUP4 ADD DUP3 DUP3 DUP1 ISZERO PUSH2 0x1143 JUMPI PUSH1 0x20 MUL DUP3 ADD SWAP2 SWAP1 PUSH0 MSTORE PUSH1 0x20 PUSH0 KECCAK256 SWAP1 JUMPDEST DUP2 SLOAD DUP2 MSTORE PUSH1 0x20 ADD SWAP1 PUSH1 0x1 ADD SWAP1 DUP1 DUP4 GT PUSH2 0x112F JUMPI JUMPDEST POP POP POP POP POP DUP2 MSTORE PUSH1 0x20 ADD PUSH1 0x7 DUP3 ADD SLOAD DUP2 MSTORE POP POP SWAP1 POP SWAP2 SWAP1 POP JUMP JUMPDEST PUSH2 0x1165 PUSH2 0x1E32 JUMP JUMPDEST PUSH1 0x1 PUSH1 0x1 PUSH1 0xA0 SHL SUB DUP2 AND PUSH2 0x11CA JUMPI PUSH1 0x40 MLOAD PUSH3 0x461BCD PUSH1 0xE5 SHL DUP2 MSTORE PUSH1 0x20 PUSH1 0x4 DUP3 ADD MSTORE PUSH1 0x26 PUSH1 0x24 DUP3 ADD MSTORE PUSH32 0x4F776E61626C653A206E6577206F776E657220697320746865207A65726F2061 PUSH1 0x44 DUP3 ADD MSTORE PUSH6 0x646472657373 PUSH1 0xD0 SHL PUSH1 0x64 DUP3 ADD MSTORE PUSH1 0x84 ADD PUSH2 0x816 JUMP JUMPDEST PUSH2 0x8B1 DUP2 PUSH2 0x1E8C JUMP JUMPDEST PUSH2 0x11DB PUSH2 0x1E32 JUMP JUMPDEST PUSH1 0x1 PUSH1 0x1 PUSH1 0xA0 SHL SUB DUP4 DUP2 AND PUSH0 SWAP1 DUP2 MSTORE PUSH2 0x10D PUSH1 0x20 MSTORE PUSH1 0x40 SWAP1 KECCAK256 SLOAD AND ISZERO PUSH2 0x125F JUMPI PUSH1 0x40 MLOAD PUSH3 0x461BCD PUSH1 0xE5 SHL DUP2 MSTORE PUSH1 0x20 PUSH1 0x4 DUP3 ADD MSTORE PUSH1 0x33 PUSH1 0x24 DUP3 ADD MSTORE PUSH32 0x70757368537570706F72746564546F6B656E546F4C69737428293A20546F6B65 PUSH1 0x44 DUP3 ADD MSTORE PUSH19 0x371034B99030B63932B0B23C9030B23232B217 PUSH1 0x69 SHL PUSH1 0x64 DUP3 ADD MSTORE PUSH1 0x84 ADD PUSH2 0x816 JUMP JUMPDEST PUSH1 0x40 MLOAD DUP1 PUSH1 0xA0 ADD PUSH1 0x40 MSTORE DUP1 DUP5 PUSH1 0x1 PUSH1 0x1 PUSH1 0xA0 SHL SUB AND DUP2 MSTORE PUSH1 0x20 ADD DUP5 PUSH1 0x1 PUSH1 0x1 PUSH1 0xA0 SHL SUB AND PUSH4 0x313CE567 PUSH1 0x40 MLOAD DUP2 PUSH4 0xFFFFFFFF AND PUSH1 0xE0 SHL DUP2 MSTORE PUSH1 0x4 ADD PUSH1 0x20 PUSH1 0x40 MLOAD DUP1 DUP4 SUB DUP2 DUP7 GAS STATICCALL ISZERO DUP1 ISZERO PUSH2 0x12B5 JUMPI RETURNDATASIZE PUSH0 DUP1 RETURNDATACOPY RETURNDATASIZE PUSH0 REVERT JUMPDEST POP POP POP POP PUSH1 0x40 MLOAD RETURNDATASIZE PUSH1 0x1F NOT PUSH1 0x1F DUP3 ADD AND DUP3 ADD DUP1 PUSH1 0x40 MSTORE POP DUP2 ADD SWAP1 PUSH2 0x12D9 SWAP2 SWAP1 PUSH2 0x4005 JUMP JUMPDEST PUSH1 0xFF SWAP1 DUP2 AND DUP3 MSTORE SWAP4 ISZERO ISZERO PUSH1 0x20 DUP1 DUP4 ADD SWAP2 SWAP1 SWAP2 MSTORE PUSH1 0x1 PUSH1 0x1 PUSH1 0xA0 SHL SUB SWAP4 DUP5 AND PUSH1 0x40 DUP1 DUP5 ADD SWAP2 SWAP1 SWAP2 MSTORE PUSH1 0x1 PUSH1 0x60 SWAP4 DUP5 ADD DUP2 SWAP1 MSTORE SWAP7 DUP6 AND PUSH0 SWAP1 DUP2 MSTORE PUSH2 0x10D DUP4 MSTORE DUP2 DUP2 KECCAK256 DUP6 MLOAD DUP2 SLOAD SWAP1 DUP9 AND PUSH1 0x1 PUSH1 0x1 PUSH1 0xA0 SHL SUB NOT SWAP2 DUP3 AND OR DUP3 SSTORE SWAP4 DUP7 ADD MLOAD DUP2 DUP11 ADD SWAP1 DUP2 SSTORE SWAP3 DUP7 ADD MLOAD PUSH1 0x2 DUP3 ADD DUP1 SLOAD SWAP7 DUP9 ADD MLOAD PUSH1 0x80 SWAP1 SWAP9 ADD MLOAD ISZERO ISZERO PUSH1 0x1 PUSH1 0xA8 SHL SWAP1 DUP2 MUL PUSH1 0xFF PUSH1 0xA8 SHL NOT SWAP10 DUP12 AND PUSH2 0x100 SWAP1 DUP2 MUL PUSH2 0x100 PUSH1 0x1 PUSH1 0xA8 SHL SUB NOT SWAP6 ISZERO ISZERO DUP7 AND PUSH1 0x1 PUSH1 0x1 PUSH1 0xA8 SHL SUB NOT SWAP12 DUP13 AND OR OR DUP12 AND SWAP2 SWAP1 SWAP2 OR DUP4 SSTORE PUSH2 0x109 DUP1 SLOAD SWAP14 DUP15 ADD DUP2 SSTORE SWAP1 SWAP6 MSTORE SWAP3 SLOAD PUSH1 0x3 SWAP1 SWAP12 MUL PUSH32 0xD7F48D1C2D4FDCCEABEE32A4FD1437F382C65F0F9AF09A878C95C20147DC06A8 DUP2 ADD DUP1 SLOAD SWAP1 SWAP8 AND SWAP12 DUP11 AND SWAP12 SWAP1 SWAP12 OR SWAP1 SWAP6 SSTORE SWAP3 SLOAD PUSH32 0xD7F48D1C2D4FDCCEABEE32A4FD1437F382C65F0F9AF09A878C95C20147DC06A9 DUP11 ADD SSTORE DUP4 SLOAD PUSH32 0xD7F48D1C2D4FDCCEABEE32A4FD1437F382C65F0F9AF09A878C95C20147DC06AA SWAP1 SWAP10 ADD DUP1 SLOAD SWAP10 DUP10 AND ISZERO ISZERO PUSH1 0xFF NOT DUP12 AND DUP2 OR DUP3 SSTORE DUP6 SLOAD DUP5 SWAP1 DIV SWAP1 SWAP9 AND SWAP1 SWAP3 MUL SWAP7 SWAP1 SWAP3 AND SWAP8 SWAP1 SWAP4 AND SWAP7 SWAP1 SWAP7 OR SWAP4 SWAP1 SWAP4 OR DUP1 DUP3 SSTORE SWAP3 SLOAD DUP6 SWAP1 DIV SWAP1 SWAP4 AND ISZERO ISZERO SWAP1 SWAP4 MUL SWAP3 AND SWAP2 SWAP1 SWAP2 OR SWAP1 SSTORE JUMP JUMPDEST PUSH2 0x148E PUSH1 0x40 MLOAD DUP1 PUSH1 0x60 ADD PUSH1 0x40 MSTORE DUP1 PUSH0 PUSH1 0x1 PUSH1 0x1 PUSH1 0xA0 SHL SUB AND DUP2 MSTORE PUSH1 0x20 ADD PUSH1 0x60 DUP2 MSTORE PUSH1 0x20 ADD PUSH1 0x60 DUP2 MSTORE POP SWAP1 JUMP JUMPDEST PUSH1 0x1 PUSH1 0x1 PUSH1 0xA0 SHL SUB DUP1 DUP4 AND PUSH0 SWAP1 DUP2 MSTORE PUSH2 0x10B PUSH1 0x20 SWAP1 DUP2 MSTORE PUSH1 0x40 SWAP2 DUP3 SWAP1 KECCAK256 DUP3 MLOAD PUSH1 0x60 DUP2 ADD DUP5 MSTORE DUP2 SLOAD SWAP1 SWAP5 AND DUP5 MSTORE PUSH1 0x1 DUP2 ADD DUP1 SLOAD DUP5 MLOAD DUP2 DUP6 MUL DUP2 ADD DUP6 ADD SWAP1 SWAP6 MSTORE DUP1 DUP6 MSTORE SWAP2 SWAP4 DUP6 DUP5 ADD SWAP4 SWAP1 SWAP3 SWAP1 DUP4 ADD DUP3 DUP3 DUP1 ISZERO PUSH2 0x1505 JUMPI PUSH1 0x20 MUL DUP3 ADD SWAP2 SWAP1 PUSH0 MSTORE PUSH1 0x20 PUSH0 KECCAK256 SWAP1 JUMPDEST DUP2 SLOAD DUP2 MSTORE PUSH1 0x20 ADD SWAP1 PUSH1 0x1 ADD SWAP1 DUP1 DUP4 GT PUSH2 0x14F1 JUMPI JUMPDEST POP POP POP POP POP DUP2 MSTORE PUSH1 0x20 ADD PUSH1 0x2 DUP3 ADD DUP1 SLOAD DUP1 PUSH1 0x20 MUL PUSH1 0x20 ADD PUSH1 0x40 MLOAD SWAP1 DUP2 ADD PUSH1 0x40 MSTORE DUP1 SWAP3 SWAP2 SWAP1 DUP2 DUP2 MSTORE PUSH1 0x20 ADD DUP3 DUP1 SLOAD DUP1 ISZERO PUSH2 0x155B JUMPI PUSH1 0x20 MUL DUP3 ADD SWAP2 SWAP1 PUSH0 MSTORE PUSH1 0x20 PUSH0 KECCAK256 SWAP1 JUMPDEST DUP2 SLOAD DUP2 MSTORE PUSH1 0x20 ADD SWAP1 PUSH1 0x1 ADD SWAP1 DUP1 DUP4 GT PUSH2 0x1547 JUMPI JUMPDEST POP POP POP POP POP DUP2 MSTORE POP POP SWAP1 POP SWAP2 SWAP1 POP JUMP JUMPDEST PUSH2 0x1573 PUSH2 0x368E JUMP JUMPDEST PUSH0 DUP3 DUP2 MSTORE PUSH2 0x10C PUSH1 0x20 SWAP1 DUP2 MSTORE PUSH1 0x40 DUP1 DUP4 KECCAK256 DUP2 MLOAD PUSH2 0x140 DUP2 ADD DUP4 MSTORE DUP2 SLOAD DUP2 MSTORE PUSH1 0x1 DUP3 ADD SLOAD PUSH1 0x1 PUSH1 0x1 PUSH1 0xA0 SHL SUB AND DUP2 DUP6 ADD MSTORE PUSH1 0x2 DUP3 ADD SLOAD DUP2 DUP5 ADD MSTORE PUSH1 0x3 DUP3 ADD SLOAD PUSH1 0x60 DUP3 ADD MSTORE PUSH1 0x4 DUP3 ADD DUP1 SLOAD DUP5 MLOAD DUP2 DUP8 MUL DUP2 ADD DUP8 ADD SWAP1 SWAP6 MSTORE DUP1 DUP6 MSTORE SWAP2 SWAP6 SWAP3 SWAP5 PUSH1 0x80 DUP8 ADD SWAP5 SWAP4 SWAP2 SWAP3 SWAP2 SWAP1 DUP5 ADD JUMPDEST DUP3 DUP3 LT ISZERO PUSH2 0x1629 JUMPI DUP4 DUP3 SWAP1 PUSH0 MSTORE PUSH1 0x20 PUSH0 KECCAK256 SWAP1 PUSH1 0x3 MUL ADD PUSH1 0x40 MLOAD DUP1 PUSH1 0x60 ADD PUSH1 0x40 MSTORE SWAP1 DUP2 PUSH0 DUP3 ADD SLOAD DUP2 MSTORE PUSH1 0x20 ADD PUSH1 0x1 DUP3 ADD SLOAD DUP2 MSTORE PUSH1 0x20 ADD PUSH1 0x2 DUP3 ADD SLOAD DUP2 MSTORE POP POP DUP2 MSTORE PUSH1 0x20 ADD SWAP1 PUSH1 0x1 ADD SWAP1 PUSH2 0x15DC JUMP JUMPDEST POP POP POP POP DUP2 MSTORE PUSH1 0x20 ADD PUSH1 0x5 DUP3 ADD DUP1 SLOAD DUP1 PUSH1 0x20 MUL PUSH1 0x20 ADD PUSH1 0x40 MLOAD SWAP1 DUP2 ADD PUSH1 0x40 MSTORE DUP1 SWAP3 SWAP2 SWAP1 DUP2 DUP2 MSTORE PUSH1 0x20 ADD PUSH0 SWAP1 JUMPDEST DUP3 DUP3 LT ISZERO PUSH2 0x1698 JUMPI DUP4 DUP3 SWAP1 PUSH0 MSTORE PUSH1 0x20 PUSH0 KECCAK256 SWAP1 PUSH1 0x2 MUL ADD PUSH1 0x40 MLOAD DUP1 PUSH1 0x40 ADD PUSH1 0x40 MSTORE SWAP1 DUP2 PUSH0 DUP3 ADD SLOAD DUP2 MSTORE PUSH1 0x20 ADD PUSH1 0x1 DUP3 ADD SLOAD DUP2 MSTORE POP POP DUP2 MSTORE PUSH1 0x20 ADD SWAP1 PUSH1 0x1 ADD SWAP1 PUSH2 0x1655 JUMP JUMPDEST POP POP POP SWAP1 DUP3 MSTORE POP PUSH1 0x40 DUP1 MLOAD PUSH1 0x60 DUP1 DUP3 ADD DUP4 MSTORE PUSH1 0x6 DUP6 ADD SLOAD DUP3 MSTORE PUSH1 0x7 DUP6 ADD SLOAD PUSH1 0x20 DUP4 DUP2 ADD SWAP2 SWAP1 SWAP2 MSTORE PUSH1 0x8 DUP7 ADD SLOAD DUP4 DUP6 ADD MSTORE DUP1 DUP6 ADD SWAP3 SWAP1 SWAP3 MSTORE DUP3 MLOAD DUP1 DUP3 ADD DUP5 MSTORE PUSH1 0x9 DUP7 ADD SLOAD DUP2 MSTORE PUSH1 0xA DUP7 ADD SLOAD DUP2 DUP5 ADD MSTORE PUSH1 0xB DUP7 ADD SLOAD DUP2 DUP6 ADD MSTORE DUP4 DUP6 ADD MSTORE DUP3 MLOAD DUP1 DUP3 ADD DUP5 MSTORE PUSH1 0xC DUP7 ADD SLOAD PUSH1 0xFF DUP1 DUP3 AND ISZERO ISZERO DUP4 MSTORE PUSH2 0x100 SWAP1 SWAP2 DIV DUP2 AND DUP3 DUP6 ADD MSTORE PUSH1 0xD DUP8 ADD SLOAD DUP3 DUP7 ADD MSTORE DUP3 DUP7 ADD SWAP2 SWAP1 SWAP2 MSTORE DUP4 MLOAD SWAP2 DUP3 ADD DUP5 MSTORE PUSH1 0xE DUP7 ADD DUP1 SLOAD SWAP1 SWAP2 AND ISZERO ISZERO DUP3 MSTORE PUSH1 0xF DUP7 ADD DUP1 SLOAD DUP6 MLOAD DUP2 DUP7 MUL DUP2 ADD DUP7 ADD SWAP1 SWAP7 MSTORE DUP1 DUP7 MSTORE PUSH1 0x80 SWAP1 SWAP7 ADD SWAP6 SWAP3 SWAP5 SWAP2 SWAP4 DUP6 DUP2 ADD SWAP4 SWAP1 DUP4 ADD DUP3 DUP3 DUP1 ISZERO PUSH2 0x1789 JUMPI PUSH1 0x20 MUL DUP3 ADD SWAP2 SWAP1 PUSH0 MSTORE PUSH1 0x20 PUSH0 KECCAK256 SWAP1 JUMPDEST DUP2 SLOAD DUP2 MSTORE PUSH1 0x20 ADD SWAP1 PUSH1 0x1 ADD SWAP1 DUP1 DUP4 GT PUSH2 0x1775 JUMPI JUMPDEST POP POP POP POP POP DUP2 MSTORE PUSH1 0x20 ADD PUSH1 0x2 DUP3 ADD SLOAD DUP2 MSTORE POP POP DUP2 MSTORE POP POP SWAP1 POP SWAP2 SWAP1 POP JUMP JUMPDEST PUSH0 PUSH8 0xDE0B6B3A7640000 DUP3 PUSH1 0x1 PUSH1 0x1 PUSH1 0xA0 SHL SUB AND PUSH4 0x313CE567 PUSH1 0x40 MLOAD DUP2 PUSH4 0xFFFFFFFF AND PUSH1 0xE0 SHL DUP2 MSTORE PUSH1 0x4 ADD PUSH1 0x20 PUSH1 0x40 MLOAD DUP1 DUP4 SUB DUP2 DUP7 GAS STATICCALL ISZERO DUP1 ISZERO PUSH2 0x17ED JUMPI RETURNDATASIZE PUSH0 DUP1 RETURNDATACOPY RETURNDATASIZE PUSH0 REVERT JUMPDEST POP POP POP POP PUSH1 0x40 MLOAD RETURNDATASIZE PUSH1 0x1F NOT PUSH1 0x1F DUP3 ADD AND DUP3 ADD DUP1 PUSH1 0x40 MSTORE POP DUP2 ADD SWAP1 PUSH2 0x1811 SWAP2 SWAP1 PUSH2 0x4005 JUMP JUMPDEST PUSH2 0x181C SWAP1 PUSH1 0xA PUSH2 0x4100 JUMP JUMPDEST PUSH2 0x1826 SWAP1 DUP6 PUSH2 0x3FEE JUMP JUMPDEST PUSH2 0x1830 SWAP2 SWAP1 PUSH2 0x3EEA JUMP JUMPDEST SWAP4 SWAP3 POP POP POP JUMP JUMPDEST PUSH2 0x8B1 PUSH2 0x1E32 JUMP JUMPDEST PUSH32 0x4910FDFA16FED3260ED0E7147F7CC6DA11A60208B5B9406D12A635614FFD9143 SLOAD PUSH1 0xFF AND ISZERO PUSH2 0x1877 JUMPI PUSH2 0x1872 DUP4 PUSH2 0x1F5F JUMP JUMPDEST POP POP POP JUMP JUMPDEST DUP3 PUSH1 0x1 PUSH1 0x1 PUSH1 0xA0 SHL SUB AND PUSH4 0x52D1902D PUSH1 0x40 MLOAD DUP2 PUSH4 0xFFFFFFFF AND PUSH1 0xE0 SHL DUP2 MSTORE PUSH1 0x4 ADD PUSH1 0x20 PUSH1 0x40 MLOAD DUP1 DUP4 SUB DUP2 DUP7 GAS STATICCALL SWAP3 POP POP POP DUP1 ISZERO PUSH2 0x18D1 JUMPI POP PUSH1 0x40 DUP1 MLOAD PUSH1 0x1F RETURNDATASIZE SWAP1 DUP2 ADD PUSH1 0x1F NOT AND DUP3 ADD SWAP1 SWAP3 MSTORE PUSH2 0x18CE SWAP2 DUP2 ADD SWAP1 PUSH2 0x410E JUMP JUMPDEST PUSH1 0x1 JUMPDEST PUSH2 0x1934 JUMPI PUSH1 0x40 MLOAD PUSH3 0x461BCD PUSH1 0xE5 SHL DUP2 MSTORE PUSH1 0x20 PUSH1 0x4 DUP3 ADD MSTORE PUSH1 0x2E PUSH1 0x24 DUP3 ADD MSTORE PUSH32 0x45524331393637557067726164653A206E657720696D706C656D656E74617469 PUSH1 0x44 DUP3 ADD MSTORE PUSH14 0x6F6E206973206E6F742055555053 PUSH1 0x90 SHL PUSH1 0x64 DUP3 ADD MSTORE PUSH1 0x84 ADD PUSH2 0x816 JUMP JUMPDEST PUSH0 DUP1 MLOAD PUSH1 0x20 PUSH2 0x4237 DUP4 CODECOPY DUP2 MLOAD SWAP2 MSTORE DUP2 EQ PUSH2 0x19A2 JUMPI PUSH1 0x40 MLOAD PUSH3 0x461BCD PUSH1 0xE5 SHL DUP2 MSTORE PUSH1 0x20 PUSH1 0x4 DUP3 ADD MSTORE PUSH1 0x29 PUSH1 0x24 DUP3 ADD MSTORE PUSH32 0x45524331393637557067726164653A20756E737570706F727465642070726F78 PUSH1 0x44 DUP3 ADD MSTORE PUSH9 0x1A58589B1955555251 PUSH1 0xBA SHL PUSH1 0x64 DUP3 ADD MSTORE PUSH1 0x84 ADD PUSH2 0x816 JUMP JUMPDEST POP PUSH2 0x1872 DUP4 DUP4 DUP4 PUSH2 0x1FFA JUMP JUMPDEST PUSH2 0x102 SLOAD PUSH1 0x1 PUSH1 0x1 PUSH1 0xA0 SHL SUB DUP4 AND PUSH0 SWAP1 DUP2 MSTORE PUSH2 0x10D PUSH1 0x20 MSTORE PUSH1 0x40 SWAP1 KECCAK256 PUSH1 0x2 ADD SLOAD CALLER SWAP2 SWAP1 PUSH1 0x1 PUSH1 0xA8 SHL SWAP1 DIV PUSH1 0xFF AND ISZERO PUSH2 0x1A76 JUMPI DUP4 PUSH1 0x1 PUSH1 0x1 PUSH1 0xA0 SHL SUB AND PUSH4 0x23B872DD DUP4 ADDRESS PUSH2 0x19FB DUP6 DUP10 PUSH2 0x17A7 JUMP JUMPDEST PUSH1 0x40 MLOAD PUSH1 0x1 PUSH1 0x1 PUSH1 0xE0 SHL SUB NOT PUSH1 0xE0 DUP7 SWAP1 SHL AND DUP2 MSTORE PUSH1 0x1 PUSH1 0x1 PUSH1 0xA0 SHL SUB SWAP4 DUP5 AND PUSH1 0x4 DUP3 ADD MSTORE SWAP3 SWAP1 SWAP2 AND PUSH1 0x24 DUP4 ADD MSTORE PUSH1 0x44 DUP3 ADD MSTORE PUSH1 0x64 ADD PUSH1 0x20 PUSH1 0x40 MLOAD DUP1 DUP4 SUB DUP2 PUSH0 DUP8 GAS CALL ISZERO DUP1 ISZERO PUSH2 0x1A4C JUMPI RETURNDATASIZE PUSH0 DUP1 RETURNDATACOPY RETURNDATASIZE PUSH0 REVERT JUMPDEST POP POP POP POP PUSH1 0x40 MLOAD RETURNDATASIZE PUSH1 0x1F NOT PUSH1 0x1F DUP3 ADD AND DUP3 ADD DUP1 PUSH1 0x40 MSTORE POP DUP2 ADD SWAP1 PUSH2 0x1A70 SWAP2 SWAP1 PUSH2 0x3F1D JUMP JUMPDEST POP PUSH2 0x1ADD JUMP JUMPDEST PUSH1 0x40 MLOAD PUSH3 0x461BCD PUSH1 0xE5 SHL DUP2 MSTORE PUSH1 0x20 PUSH1 0x4 DUP3 ADD MSTORE PUSH1 0x36 PUSH1 0x24 DUP3 ADD MSTORE PUSH32 0x726567697374657228293A20426173652043757272656E6379206973206E6F74 PUSH1 0x44 DUP3 ADD MSTORE PUSH22 0x1039BAB83837B93A32B21037B91032B730B13632B217 PUSH1 0x51 SHL PUSH1 0x64 DUP3 ADD MSTORE PUSH1 0x84 ADD PUSH2 0x816 JUMP JUMPDEST PUSH0 DUP7 DUP2 MSTORE PUSH2 0x10C PUSH1 0x20 SWAP1 DUP2 MSTORE PUSH1 0x40 DUP1 DUP4 KECCAK256 PUSH1 0x1 PUSH1 0x1 PUSH1 0xA0 SHL SUB DUP10 AND DUP5 MSTORE PUSH2 0x10B SWAP1 SWAP3 MSTORE DUP3 KECCAK256 PUSH1 0x1 DUP2 ADD SLOAD SWAP2 SWAP3 SWAP1 SWAP2 SWAP1 SUB PUSH2 0x1B5C JUMPI PUSH1 0xFB DUP1 SLOAD PUSH1 0x1 DUP2 ADD DUP3 SSTORE PUSH0 SWAP2 SWAP1 SWAP2 MSTORE PUSH32 0x3E7257B7272BB46D49CD6019B04DDEE20DA7C0CB13F7C1EC3391291B2CCEBABC ADD DUP1 SLOAD PUSH1 0x1 PUSH1 0x1 PUSH1 0xA0 SHL SUB NOT AND PUSH1 0x1 PUSH1 0x1 PUSH1 0xA0 SHL SUB DUP7 AND OR SWAP1 SSTORE JUMPDEST PUSH2 0x1B66 DUP2 DUP9 PUSH2 0x2024 JUMP JUMPDEST PUSH0 PUSH2 0x1B6F PUSH2 0x209C JUMP JUMPDEST PUSH0 DUP2 DUP2 MSTORE PUSH2 0x10C PUSH1 0x20 MSTORE PUSH1 0x40 SWAP1 KECCAK256 SWAP1 SWAP2 POP PUSH2 0x1B8A DUP2 DUP5 PUSH2 0x20B1 JUMP JUMPDEST POP PUSH1 0x40 DUP1 MLOAD PUSH2 0x140 DUP2 ADD DUP3 MSTORE DUP3 SLOAD DUP2 MSTORE PUSH1 0x1 DUP4 ADD SLOAD PUSH1 0x1 PUSH1 0x1 PUSH1 0xA0 SHL SUB AND PUSH1 0x20 DUP1 DUP4 ADD SWAP2 SWAP1 SWAP2 MSTORE PUSH1 0x2 DUP5 ADD SLOAD DUP3 DUP5 ADD MSTORE PUSH1 0x3 DUP5 ADD SLOAD PUSH1 0x60 DUP4 ADD MSTORE PUSH1 0x4 DUP5 ADD DUP1 SLOAD DUP5 MLOAD DUP2 DUP5 MUL DUP2 ADD DUP5 ADD SWAP1 SWAP6 MSTORE DUP1 DUP6 MSTORE PUSH2 0x1DE5 SWAP5 DUP7 SWAP4 PUSH1 0x80 DUP7 ADD SWAP4 SWAP2 SWAP3 SWAP1 PUSH0 SWAP1 DUP5 ADD JUMPDEST DUP3 DUP3 LT ISZERO PUSH2 0x1C39 JUMPI DUP4 DUP3 SWAP1 PUSH0 MSTORE PUSH1 0x20 PUSH0 KECCAK256 SWAP1 PUSH1 0x3 MUL ADD PUSH1 0x40 MLOAD DUP1 PUSH1 0x60 ADD PUSH1 0x40 MSTORE SWAP1 DUP2 PUSH0 DUP3 ADD SLOAD DUP2 MSTORE PUSH1 0x20 ADD PUSH1 0x1 DUP3 ADD SLOAD DUP2 MSTORE PUSH1 0x20 ADD PUSH1 0x2 DUP3 ADD SLOAD DUP2 MSTORE POP POP DUP2 MSTORE PUSH1 0x20 ADD SWAP1 PUSH1 0x1 ADD SWAP1 PUSH2 0x1BEC JUMP JUMPDEST POP POP POP POP DUP2 MSTORE PUSH1 0x20 ADD PUSH1 0x5 DUP3 ADD DUP1 SLOAD DUP1 PUSH1 0x20 MUL PUSH1 0x20 ADD PUSH1 0x40 MLOAD SWAP1 DUP2 ADD PUSH1 0x40 MSTORE DUP1 SWAP3 SWAP2 SWAP1 DUP2 DUP2 MSTORE PUSH1 0x20 ADD PUSH0 SWAP1 JUMPDEST DUP3 DUP3 LT ISZERO PUSH2 0x1CA8 JUMPI DUP4 DUP3 SWAP1 PUSH0 MSTORE PUSH1 0x20 PUSH0 KECCAK256 SWAP1 PUSH1 0x2 MUL ADD PUSH1 0x40 MLOAD DUP1 PUSH1 0x40 ADD PUSH1 0x40 MSTORE SWAP1 DUP2 PUSH0 DUP3 ADD SLOAD DUP2 MSTORE PUSH1 0x20 ADD PUSH1 0x1 DUP3 ADD SLOAD DUP2 MSTORE POP POP DUP2 MSTORE PUSH1 0x20 ADD SWAP1 PUSH1 0x1 ADD SWAP1 PUSH2 0x1C65 JUMP JUMPDEST POP POP POP SWAP1 DUP3 MSTORE POP PUSH1 0x40 DUP1 MLOAD PUSH1 0x60 DUP1 DUP3 ADD DUP4 MSTORE PUSH1 0x6 DUP6 ADD SLOAD DUP3 MSTORE PUSH1 0x7 DUP6 ADD SLOAD PUSH1 0x20 DUP4 DUP2 ADD SWAP2 SWAP1 SWAP2 MSTORE PUSH1 0x8 DUP7 ADD SLOAD DUP4 DUP6 ADD MSTORE DUP1 DUP6 ADD SWAP3 SWAP1 SWAP3 MSTORE DUP3 MLOAD DUP1 DUP3 ADD DUP5 MSTORE PUSH1 0x9 DUP7 ADD SLOAD DUP2 MSTORE PUSH1 0xA DUP7 ADD SLOAD DUP2 DUP5 ADD MSTORE PUSH1 0xB DUP7 ADD SLOAD DUP2 DUP6 ADD MSTORE DUP4 DUP6 ADD MSTORE DUP3 MLOAD DUP1 DUP3 ADD DUP5 MSTORE PUSH1 0xC DUP7 ADD SLOAD PUSH1 0xFF DUP1 DUP3 AND ISZERO ISZERO DUP4 MSTORE PUSH2 0x100 SWAP1 SWAP2 DIV DUP2 AND DUP3 DUP6 ADD MSTORE PUSH1 0xD DUP8 ADD SLOAD DUP3 DUP7 ADD MSTORE DUP3 DUP7 ADD SWAP2 SWAP1 SWAP2 MSTORE DUP4 MLOAD SWAP2 DUP3 ADD DUP5 MSTORE PUSH1 0xE DUP7 ADD DUP1 SLOAD SWAP1 SWAP2 AND ISZERO ISZERO DUP3 MSTORE PUSH1 0xF DUP7 ADD DUP1 SLOAD DUP6 MLOAD DUP2 DUP7 MUL DUP2 ADD DUP7 ADD SWAP1 SWAP7 MSTORE DUP1 DUP7 MSTORE PUSH1 0x80 SWAP1 SWAP7 ADD SWAP6 SWAP3 SWAP5 SWAP2 SWAP4 DUP6 DUP2 ADD SWAP4 SWAP1 DUP4 ADD DUP3 DUP3 DUP1 ISZERO PUSH2 0x1D99 JUMPI PUSH1 0x20 MUL DUP3 ADD SWAP2 SWAP1 PUSH0 MSTORE PUSH1 0x20 PUSH0 KECCAK256 SWAP1 JUMPDEST DUP2 SLOAD DUP2 MSTORE PUSH1 0x20 ADD SWAP1 PUSH1 0x1 ADD SWAP1 DUP1 DUP4 GT PUSH2 0x1D85 JUMPI JUMPDEST POP POP POP POP POP DUP2 MSTORE PUSH1 0x20 ADD PUSH1 0x2 DUP3 ADD SLOAD DUP2 MSTORE POP POP DUP2 MSTORE POP POP MLOAD PUSH1 0xFD DUP1 SLOAD PUSH1 0x1 DUP2 ADD DUP3 SSTORE PUSH0 SWAP2 SWAP1 SWAP2 MSTORE PUSH32 0x9346AC6DD7DE6B96975FEC380D4D994C4C12E6A8897544F22915316CC6CCA280 ADD SSTORE JUMP JUMPDEST PUSH2 0x1DEF DUP5 DUP3 PUSH2 0x21EF JUMP JUMPDEST PUSH2 0x1DFB DUP2 DUP7 DUP11 DUP11 PUSH2 0x2770 JUMP JUMPDEST PUSH2 0x1E05 DUP9 DUP9 PUSH2 0x29A1 JUMP JUMPDEST DUP5 PUSH2 0x108 PUSH0 DUP3 DUP3 SLOAD PUSH2 0x1E17 SWAP2 SWAP1 PUSH2 0x4125 JUMP JUMPDEST SWAP1 SWAP2 SSTORE POP PUSH2 0x1E26 SWAP1 POP DUP6 PUSH2 0x2EEE JUMP JUMPDEST POP POP POP POP POP POP POP POP POP POP JUMP JUMPDEST PUSH1 0x65 SLOAD PUSH1 0x1 PUSH1 0x1 PUSH1 0xA0 SHL SUB AND CALLER EQ PUSH2 0xBEE JUMPI PUSH1 0x40 MLOAD PUSH3 0x461BCD PUSH1 0xE5 SHL DUP2 MSTORE PUSH1 0x20 PUSH1 0x4 DUP3 ADD DUP2 SWAP1 MSTORE PUSH1 0x24 DUP3 ADD MSTORE PUSH32 0x4F776E61626C653A2063616C6C6572206973206E6F7420746865206F776E6572 PUSH1 0x44 DUP3 ADD MSTORE PUSH1 0x64 ADD PUSH2 0x816 JUMP JUMPDEST PUSH1 0x65 DUP1 SLOAD PUSH1 0x1 PUSH1 0x1 PUSH1 0xA0 SHL SUB DUP4 DUP2 AND PUSH1 0x1 PUSH1 0x1 PUSH1 0xA0 SHL SUB NOT DUP4 AND DUP2 OR SWAP1 SWAP4 SSTORE PUSH1 0x40 MLOAD SWAP2 AND SWAP2 SWAP1 DUP3 SWAP1 PUSH32 0x8BE0079C531659141344CD1FD0A4F28419497F9722A3DAAFE3B4186F6B6457E0 SWAP1 PUSH0 SWAP1 LOG3 POP POP JUMP JUMPDEST PUSH0 SLOAD PUSH2 0x100 SWAP1 DIV PUSH1 0xFF AND PUSH2 0x1F03 JUMPI PUSH1 0x40 MLOAD PUSH3 0x461BCD PUSH1 0xE5 SHL DUP2 MSTORE PUSH1 0x4 ADD PUSH2 0x816 SWAP1 PUSH2 0x4138 JUMP JUMPDEST PUSH2 0xBEE PUSH2 0x2F40 JUMP JUMPDEST PUSH0 SLOAD PUSH2 0x100 SWAP1 DIV PUSH1 0xFF AND PUSH2 0x1F31 JUMPI PUSH1 0x40 MLOAD PUSH3 0x461BCD PUSH1 0xE5 SHL DUP2 MSTORE PUSH1 0x4 ADD PUSH2 0x816 SWAP1 PUSH2 0x4138 JUMP JUMPDEST PUSH2 0xBEE PUSH2 0x2F72 JUMP JUMPDEST PUSH0 SLOAD PUSH2 0x100 SWAP1 DIV PUSH1 0xFF AND PUSH2 0xBEE JUMPI PUSH1 0x40 MLOAD PUSH3 0x461BCD PUSH1 0xE5 SHL DUP2 MSTORE PUSH1 0x4 ADD PUSH2 0x816 SWAP1 PUSH2 0x4138 JUMP JUMPDEST PUSH1 0x1 PUSH1 0x1 PUSH1 0xA0 SHL SUB DUP2 AND EXTCODESIZE PUSH2 0x1FCC JUMPI PUSH1 0x40 MLOAD PUSH3 0x461BCD PUSH1 0xE5 SHL DUP2 MSTORE PUSH1 0x20 PUSH1 0x4 DUP3 ADD MSTORE PUSH1 0x2D PUSH1 0x24 DUP3 ADD MSTORE PUSH32 0x455243313936373A206E657720696D706C656D656E746174696F6E206973206E PUSH1 0x44 DUP3 ADD MSTORE PUSH13 0x1BDD08184818DBDB9D1C9858DD PUSH1 0x9A SHL PUSH1 0x64 DUP3 ADD MSTORE PUSH1 0x84 ADD PUSH2 0x816 JUMP JUMPDEST PUSH0 DUP1 MLOAD PUSH1 0x20 PUSH2 0x4237 DUP4 CODECOPY DUP2 MLOAD SWAP2 MSTORE DUP1 SLOAD PUSH1 0x1 PUSH1 0x1 PUSH1 0xA0 SHL SUB NOT AND PUSH1 0x1 PUSH1 0x1 PUSH1 0xA0 SHL SUB SWAP3 SWAP1 SWAP3 AND SWAP2 SWAP1 SWAP2 OR SWAP1 SSTORE JUMP JUMPDEST PUSH2 0x2003 DUP4 PUSH2 0x2FA1 JUMP JUMPDEST PUSH0 DUP3 MLOAD GT DUP1 PUSH2 0x200F JUMPI POP DUP1 JUMPDEST ISZERO PUSH2 0x1872 JUMPI PUSH2 0x201E DUP4 DUP4 PUSH2 0x2FE0 JUMP JUMPDEST POP POP POP POP JUMP JUMPDEST DUP2 SLOAD PUSH1 0x1 PUSH1 0x1 PUSH1 0xA0 SHL SUB AND ISZERO DUP1 ISZERO PUSH2 0x2044 JUMPI POP PUSH1 0x1 PUSH1 0x1 PUSH1 0xA0 SHL SUB DUP2 AND ISZERO ISZERO JUMPDEST ISZERO PUSH2 0x9B7 JUMPI DUP2 SLOAD PUSH1 0x1 PUSH1 0x1 PUSH1 0xA0 SHL SUB NOT AND PUSH1 0x1 PUSH1 0x1 PUSH1 0xA0 SHL SUB DUP3 AND SWAP1 DUP2 OR DUP4 SSTORE PUSH1 0x40 MLOAD SWAP1 DUP2 MSTORE PUSH32 0x3B819CFB39116B78A5D1267E92AB85058E96D63A7882322D296AB4135720B79A SWAP1 PUSH1 0x20 ADD JUMPDEST PUSH1 0x40 MLOAD DUP1 SWAP2 SUB SWAP1 LOG1 POP POP JUMP JUMPDEST PUSH0 PUSH1 0xFC SLOAD PUSH1 0x1 PUSH2 0x20AC SWAP2 SWAP1 PUSH2 0x4125 JUMP JUMPDEST SWAP1 POP SWAP1 JUMP JUMPDEST DUP2 SLOAD PUSH0 SWAP1 ISZERO PUSH2 0x210E JUMPI PUSH1 0x40 MLOAD PUSH3 0x461BCD PUSH1 0xE5 SHL DUP2 MSTORE PUSH1 0x20 PUSH1 0x4 DUP3 ADD MSTORE PUSH1 0x23 PUSH1 0x24 DUP3 ADD MSTORE PUSH32 0x5F757064617465496428293A20496420697320616C7265616479206372656174 PUSH1 0x44 DUP3 ADD MSTORE PUSH3 0x32B217 PUSH1 0xE9 SHL PUSH1 0x64 DUP3 ADD MSTORE PUSH1 0x84 ADD PUSH2 0x816 JUMP JUMPDEST PUSH1 0xFC DUP1 SLOAD SWAP1 PUSH0 PUSH2 0x211D DUP4 PUSH2 0x4183 JUMP JUMPDEST SWAP1 SWAP2 SSTORE POP POP PUSH1 0xFC SLOAD DUP1 DUP5 SSTORE PUSH1 0x1 DUP4 DUP2 ADD DUP1 SLOAD SWAP2 DUP3 ADD DUP2 SSTORE PUSH0 SWAP1 DUP2 MSTORE PUSH1 0x20 SWAP1 DUP2 SWAP1 KECCAK256 SWAP1 SWAP2 ADD DUP3 SWAP1 SSTORE DUP4 SLOAD PUSH1 0x40 DUP1 MLOAD PUSH1 0x1 PUSH1 0x1 PUSH1 0xA0 SHL SUB SWAP1 SWAP3 AND DUP3 MSTORE SWAP2 DUP2 ADD DUP4 SWAP1 MSTORE SWAP2 SWAP3 POP PUSH32 0x1EDFAF20EB0251DD2CA45E125C8B9A615022667B9822CF6A8DC1D2CE7E91EA68 SWAP2 ADD PUSH1 0x40 MLOAD DUP1 SWAP2 SUB SWAP1 LOG1 DUP2 SLOAD PUSH1 0x1 DUP5 ADD DUP1 SLOAD PUSH1 0x1 PUSH1 0x1 PUSH1 0xA0 SHL SUB NOT AND PUSH1 0x1 PUSH1 0x1 PUSH1 0xA0 SHL SUB SWAP3 DUP4 AND OR SWAP1 SSTORE DUP3 SLOAD PUSH1 0x40 DUP1 MLOAD SWAP2 SWAP1 SWAP3 AND DUP2 MSTORE PUSH1 0x20 DUP2 ADD DUP4 SWAP1 MSTORE PUSH32 0x4F3673673D1E6F88F67F26845B9609A7707201984D7885988D35AEDF43B9FE44 SWAP2 ADD PUSH1 0x40 MLOAD DUP1 SWAP2 SUB SWAP1 LOG1 SWAP3 SWAP2 POP POP JUMP JUMPDEST DUP1 SLOAD PUSH1 0x65 SLOAD PUSH1 0x1 PUSH1 0x1 PUSH1 0xA0 SHL SUB AND CALLER EQ PUSH2 0x2286 JUMPI DUP3 SLOAD PUSH0 SUB PUSH2 0x2270 JUMPI PUSH1 0x40 MLOAD PUSH3 0x461BCD PUSH1 0xE5 SHL DUP2 MSTORE PUSH1 0x20 PUSH1 0x4 DUP3 ADD MSTORE PUSH1 0x34 PUSH1 0x24 DUP3 ADD MSTORE PUSH32 0x5F616464526566657272657228293A2052656665727265204964206973206E6F PUSH1 0x44 DUP3 ADD MSTORE PUSH20 0x3A1030B1BA34BB30BA32B21037B9103D32B93797 PUSH1 0x61 SHL PUSH1 0x64 DUP3 ADD MSTORE PUSH1 0x84 ADD PUSH2 0x816 JUMP JUMPDEST PUSH1 0x1 DUP4 ADD SLOAD PUSH1 0x1 PUSH1 0x1 PUSH1 0xA0 SHL SUB AND PUSH2 0x2286 JUMPI PUSH0 DUP1 REVERT JUMPDEST DUP1 DUP4 PUSH1 0x2 ADD SLOAD SUB PUSH2 0x22F4 JUMPI PUSH1 0x40 MLOAD PUSH3 0x461BCD PUSH1 0xE5 SHL DUP2 MSTORE PUSH1 0x20 PUSH1 0x4 DUP3 ADD MSTORE PUSH1 0x32 PUSH1 0x24 DUP3 ADD MSTORE PUSH32 0x5F616464526566657272657228293A20526566657265652063616E6E6F742062 PUSH1 0x44 DUP3 ADD MSTORE PUSH18 0x32903932B332B93932B9103AB83634B73297 PUSH1 0x71 SHL PUSH1 0x64 DUP3 ADD MSTORE PUSH1 0x84 ADD PUSH2 0x816 JUMP JUMPDEST PUSH1 0x2 DUP3 ADD SLOAD ISZERO PUSH2 0x2359 JUMPI PUSH1 0x40 MLOAD PUSH3 0x461BCD PUSH1 0xE5 SHL DUP2 MSTORE PUSH1 0x20 PUSH1 0x4 DUP3 ADD MSTORE PUSH1 0x2A PUSH1 0x24 DUP3 ADD MSTORE PUSH32 0x5F616464526566657272657228293A205573657220726566657272657220616C PUSH1 0x44 DUP3 ADD MSTORE PUSH10 0x3932B0B23C9039B2BA17 PUSH1 0xB1 SHL PUSH1 0x64 DUP3 ADD MSTORE PUSH1 0x84 ADD PUSH2 0x816 JUMP JUMPDEST DUP3 SLOAD DUP2 SWAP1 SUB PUSH2 0x23C6 JUMPI PUSH1 0x40 MLOAD PUSH3 0x461BCD PUSH1 0xE5 SHL DUP2 MSTORE PUSH1 0x20 PUSH1 0x4 DUP3 ADD MSTORE PUSH1 0x33 PUSH1 0x24 DUP3 ADD MSTORE PUSH32 0x5F616464526566657272657228293A20526566657272657220616E6420557365 PUSH1 0x44 DUP3 ADD MSTORE PUSH19 0x391024B21031B0B713BA1031329039B0B6B297 PUSH1 0x69 SHL PUSH1 0x64 DUP3 ADD MSTORE PUSH1 0x84 ADD PUSH2 0x816 JUMP JUMPDEST DUP3 SLOAD PUSH1 0x3 DUP1 DUP5 ADD DUP3 SWAP1 SSTORE PUSH1 0x40 DUP1 MLOAD PUSH2 0x140 DUP2 ADD DUP3 MSTORE SWAP3 DUP4 MSTORE PUSH1 0x1 DUP7 ADD SLOAD PUSH1 0x1 PUSH1 0x1 PUSH1 0xA0 SHL SUB AND PUSH1 0x20 DUP1 DUP6 ADD SWAP2 SWAP1 SWAP2 MSTORE PUSH1 0x2 DUP8 ADD SLOAD DUP5 DUP4 ADD MSTORE SWAP2 DUP7 ADD SLOAD PUSH1 0x60 DUP5 ADD MSTORE PUSH1 0x4 DUP7 ADD DUP1 SLOAD DUP3 MLOAD DUP2 DUP6 MUL DUP2 ADD DUP6 ADD SWAP1 SWAP4 MSTORE DUP1 DUP4 MSTORE PUSH2 0x25FA SWAP5 SWAP4 DUP9 SWAP4 PUSH1 0x80 DUP7 ADD SWAP4 SWAP1 SWAP3 SWAP1 SWAP2 PUSH0 SWAP1 DUP5 ADD JUMPDEST DUP3 DUP3 LT ISZERO PUSH2 0x247E JUMPI DUP4 DUP3 SWAP1 PUSH0 MSTORE PUSH1 0x20 PUSH0 KECCAK256 SWAP1 PUSH1 0x3 MUL ADD PUSH1 0x40 MLOAD DUP1 PUSH1 0x60 ADD PUSH1 0x40 MSTORE SWAP1 DUP2 PUSH0 DUP3 ADD SLOAD DUP2 MSTORE PUSH1 0x20 ADD PUSH1 0x1 DUP3 ADD SLOAD DUP2 MSTORE PUSH1 0x20 ADD PUSH1 0x2 DUP3 ADD SLOAD DUP2 MSTORE POP POP DUP2 MSTORE PUSH1 0x20 ADD SWAP1 PUSH1 0x1 ADD SWAP1 PUSH2 0x2431 JUMP JUMPDEST POP POP POP POP DUP2 MSTORE PUSH1 0x20 ADD PUSH1 0x5 DUP3 ADD DUP1 SLOAD DUP1 PUSH1 0x20 MUL PUSH1 0x20 ADD PUSH1 0x40 MLOAD SWAP1 DUP2 ADD PUSH1 0x40 MSTORE DUP1 SWAP3 SWAP2 SWAP1 DUP2 DUP2 MSTORE PUSH1 0x20 ADD PUSH0 SWAP1 JUMPDEST DUP3 DUP3 LT ISZERO PUSH2 0x24ED JUMPI DUP4 DUP3 SWAP1 PUSH0 MSTORE PUSH1 0x20 PUSH0 KECCAK256 SWAP1 PUSH1 0x2 MUL ADD PUSH1 0x40 MLOAD DUP1 PUSH1 0x40 ADD PUSH1 0x40 MSTORE SWAP1 DUP2 PUSH0 DUP3 ADD SLOAD DUP2 MSTORE PUSH1 0x20 ADD PUSH1 0x1 DUP3 ADD SLOAD DUP2 MSTORE POP POP DUP2 MSTORE PUSH1 0x20 ADD SWAP1 PUSH1 0x1 ADD SWAP1 PUSH2 0x24AA JUMP JUMPDEST POP POP POP SWAP1 DUP3 MSTORE POP PUSH1 0x40 DUP1 MLOAD PUSH1 0x60 DUP1 DUP3 ADD DUP4 MSTORE PUSH1 0x6 DUP6 ADD SLOAD DUP3 MSTORE PUSH1 0x7 DUP6 ADD SLOAD PUSH1 0x20 DUP4 DUP2 ADD SWAP2 SWAP1 SWAP2 MSTORE PUSH1 0x8 DUP7 ADD SLOAD DUP4 DUP6 ADD MSTORE DUP1 DUP6 ADD SWAP3 SWAP1 SWAP3 MSTORE DUP3 MLOAD DUP1 DUP3 ADD DUP5 MSTORE PUSH1 0x9 DUP7 ADD SLOAD DUP2 MSTORE PUSH1 0xA DUP7 ADD SLOAD DUP2 DUP5 ADD MSTORE PUSH1 0xB DUP7 ADD SLOAD DUP2 DUP6 ADD MSTORE DUP4 DUP6 ADD MSTORE DUP3 MLOAD DUP1 DUP3 ADD DUP5 MSTORE PUSH1 0xC DUP7 ADD SLOAD PUSH1 0xFF DUP1 DUP3 AND ISZERO ISZERO DUP4 MSTORE PUSH2 0x100 SWAP1 SWAP2 DIV DUP2 AND DUP3 DUP6 ADD MSTORE PUSH1 0xD DUP8 ADD SLOAD DUP3 DUP7 ADD MSTORE DUP3 DUP7 ADD SWAP2 SWAP1 SWAP2 MSTORE DUP4 MLOAD SWAP2 DUP3 ADD DUP5 MSTORE PUSH1 0xE DUP7 ADD DUP1 SLOAD SWAP1 SWAP2 AND ISZERO ISZERO DUP3 MSTORE PUSH1 0xF DUP7 ADD DUP1 SLOAD DUP6 MLOAD DUP2 DUP7 MUL DUP2 ADD DUP7 ADD SWAP1 SWAP7 MSTORE DUP1 DUP7 MSTORE PUSH1 0x80 SWAP1 SWAP7 ADD SWAP6 SWAP3 SWAP5 SWAP2 SWAP4 DUP6 DUP2 ADD SWAP4 SWAP1 DUP4 ADD DUP3 DUP3 DUP1 ISZERO PUSH2 0x25DE JUMPI PUSH1 0x20 MUL DUP3 ADD SWAP2 SWAP1 PUSH0 MSTORE PUSH1 0x20 PUSH0 KECCAK256 SWAP1 JUMPDEST DUP2 SLOAD DUP2 MSTORE PUSH1 0x20 ADD SWAP1 PUSH1 0x1 ADD SWAP1 DUP1 DUP4 GT PUSH2 0x25CA JUMPI JUMPDEST POP POP POP POP POP DUP2 MSTORE PUSH1 0x20 ADD PUSH1 0x2 DUP3 ADD SLOAD DUP2 MSTORE POP POP DUP2 MSTORE POP POP PUSH2 0x30D2 JUMP JUMPDEST PUSH2 0x2699 JUMPI DUP3 SLOAD PUSH1 0x2 DUP1 DUP5 ADD SWAP2 SWAP1 SWAP2 SSTORE PUSH1 0x40 DUP1 MLOAD PUSH1 0x60 DUP2 ADD DUP3 MSTORE DUP4 DUP2 MSTORE PUSH0 PUSH1 0x20 DUP1 DUP4 ADD DUP3 DUP2 MSTORE SWAP4 DUP4 ADD DUP3 DUP2 MSTORE PUSH1 0x4 DUP10 ADD DUP1 SLOAD PUSH1 0x1 DUP2 DUP2 ADD DUP4 SSTORE SWAP2 DUP6 MSTORE SWAP3 SWAP1 SWAP4 KECCAK256 SWAP4 MLOAD PUSH1 0x3 SWAP1 SWAP3 MUL SWAP1 SWAP4 ADD SWAP1 DUP2 SSTORE SWAP3 MLOAD SWAP1 DUP4 ADD SSTORE MLOAD SWAP2 ADD SSTORE PUSH2 0x2659 DUP4 PUSH2 0x30FE JUMP JUMPDEST DUP3 SLOAD PUSH1 0x40 DUP1 MLOAD SWAP2 DUP3 MSTORE PUSH1 0x20 DUP3 ADD DUP4 SWAP1 MSTORE PUSH32 0xE6B2C1CA4B33533EDDCCFDD2DD0FBE5FF44D75017001D4B2329B4DAEE1821436 SWAP2 ADD PUSH1 0x40 MLOAD DUP1 SWAP2 SUB SWAP1 LOG1 PUSH2 0x26A3 JUMP JUMPDEST PUSH2 0x26A3 DUP4 DUP4 PUSH2 0x320E JUMP JUMPDEST PUSH2 0x101 SLOAD PUSH1 0xFF AND PUSH0 JUMPDEST DUP2 DUP2 LT ISZERO PUSH2 0x2769 JUMPI PUSH1 0x2 DUP5 ADD SLOAD PUSH0 DUP2 DUP2 MSTORE PUSH2 0x10C PUSH1 0x20 MSTORE PUSH1 0x40 DUP2 KECCAK256 SWAP2 SWAP1 SUB PUSH2 0x26D4 JUMPI POP PUSH2 0x2769 JUMP JUMPDEST DUP1 PUSH1 0x5 ADD PUSH1 0x40 MLOAD DUP1 PUSH1 0x40 ADD PUSH1 0x40 MSTORE DUP1 DUP7 DUP2 MSTORE PUSH1 0x20 ADD DUP5 PUSH1 0x1 PUSH2 0x26F6 SWAP2 SWAP1 PUSH2 0x4125 JUMP JUMPDEST SWAP1 MSTORE DUP2 SLOAD PUSH1 0x1 DUP1 DUP3 ADD DUP5 SSTORE PUSH0 SWAP4 DUP5 MSTORE PUSH1 0x20 SWAP4 DUP5 SWAP1 KECCAK256 DUP4 MLOAD PUSH1 0x2 SWAP1 SWAP4 MUL ADD SWAP2 DUP3 SSTORE SWAP2 DUP4 ADD MLOAD SWAP2 ADD SSTORE DUP2 SLOAD PUSH1 0x40 DUP1 MLOAD SWAP2 DUP3 MSTORE SWAP2 DUP2 ADD DUP7 SWAP1 MSTORE PUSH32 0x48E403AE2A509CD9336134C0899083BA110BF3A35566606ADD88A2066CCBAA1A SWAP2 ADD PUSH1 0x40 MLOAD DUP1 SWAP2 SUB SWAP1 LOG1 SWAP4 POP PUSH2 0x2762 DUP2 PUSH2 0x4183 JUMP JUMPDEST SWAP1 POP PUSH2 0x26AC JUMP JUMPDEST POP POP POP POP POP JUMP JUMPDEST DUP3 DUP5 PUSH1 0x6 ADD PUSH0 ADD PUSH0 DUP3 DUP3 SLOAD PUSH2 0x2785 SWAP2 SWAP1 PUSH2 0x4125 JUMP JUMPDEST SWAP1 SWAP2 SSTORE POP POP DUP4 SLOAD PUSH1 0x40 DUP1 MLOAD SWAP2 DUP3 MSTORE PUSH1 0x20 DUP3 ADD DUP6 SWAP1 MSTORE PUSH32 0x7BC272836D15A231DBCA2C8759D5BB751D4ECF39D918FEF56F6CC2FC3C2386B0 SWAP2 ADD PUSH1 0x40 MLOAD DUP1 SWAP2 SUB SWAP1 LOG1 PUSH1 0x3 DUP5 ADD SLOAD PUSH0 SWAP1 DUP2 MSTORE PUSH2 0x10C PUSH1 0x20 MSTORE PUSH1 0x40 DUP2 KECCAK256 PUSH1 0x7 DUP2 ADD DUP1 SLOAD SWAP2 SWAP3 DUP7 SWAP3 PUSH2 0x27ED SWAP1 DUP5 SWAP1 PUSH2 0x4125 JUMP JUMPDEST SWAP1 SWAP2 SSTORE POP POP DUP1 SLOAD DUP6 SLOAD PUSH1 0x40 DUP1 MLOAD SWAP3 DUP4 MSTORE PUSH1 0x20 DUP4 ADD SWAP2 SWAP1 SWAP2 MSTORE DUP2 ADD DUP6 SWAP1 MSTORE PUSH32 0x57B50E0E70DAA32AC46409245990BB5A21B96DA6F9C1BCBBA5424AA58723907A SWAP1 PUSH1 0x60 ADD PUSH1 0x40 MLOAD DUP1 SWAP2 SUB SWAP1 LOG1 PUSH0 PUSH1 0x64 PUSH1 0xFF PUSH0 DUP2 SLOAD DUP2 LT PUSH2 0x284D JUMPI PUSH2 0x284D PUSH2 0x3F09 JUMP JUMPDEST SWAP1 PUSH0 MSTORE PUSH1 0x20 PUSH0 KECCAK256 ADD SLOAD DUP7 PUSH2 0x2861 SWAP2 SWAP1 PUSH2 0x3FEE JUMP JUMPDEST PUSH2 0x286B SWAP2 SWAP1 PUSH2 0x3EEA JUMP JUMPDEST PUSH1 0x1 DUP4 ADD SLOAD SWAP1 SWAP2 POP PUSH1 0x1 PUSH1 0x1 PUSH1 0xA0 SHL SUB AND ISZERO PUSH2 0x291A JUMPI PUSH1 0x1 DUP3 ADD SLOAD PUSH1 0x1 PUSH1 0x1 PUSH1 0xA0 SHL SUB DUP1 DUP7 AND SWAP2 PUSH4 0xA9059CBB SWAP2 AND PUSH2 0x28AC PUSH2 0x28A6 DUP6 DUP10 PUSH2 0x17A7 JUMP JUMPDEST DUP8 PUSH2 0x35F5 JUMP JUMPDEST PUSH1 0x40 MLOAD PUSH1 0x1 PUSH1 0x1 PUSH1 0xE0 SHL SUB NOT PUSH1 0xE0 DUP6 SWAP1 SHL AND DUP2 MSTORE PUSH1 0x1 PUSH1 0x1 PUSH1 0xA0 SHL SUB SWAP1 SWAP3 AND PUSH1 0x4 DUP4 ADD MSTORE PUSH1 0x24 DUP3 ADD MSTORE PUSH1 0x44 ADD PUSH1 0x20 PUSH1 0x40 MLOAD DUP1 DUP4 SUB DUP2 PUSH0 DUP8 GAS CALL ISZERO DUP1 ISZERO PUSH2 0x28F4 JUMPI RETURNDATASIZE PUSH0 DUP1 RETURNDATACOPY RETURNDATASIZE PUSH0 REVERT JUMPDEST POP POP POP POP PUSH1 0x40 MLOAD RETURNDATASIZE PUSH1 0x1F NOT PUSH1 0x1F DUP3 ADD AND DUP3 ADD DUP1 PUSH1 0x40 MSTORE POP DUP2 ADD SWAP1 PUSH2 0x2918 SWAP2 SWAP1 PUSH2 0x3F1D JUMP JUMPDEST POP JUMPDEST DUP2 SLOAD DUP7 SLOAD PUSH1 0x40 DUP1 MLOAD SWAP3 DUP4 MSTORE PUSH1 0x20 DUP4 ADD SWAP2 SWAP1 SWAP2 MSTORE DUP2 ADD DUP3 SWAP1 MSTORE PUSH1 0x1 PUSH1 0x60 DUP3 ADD MSTORE PUSH32 0xF4BFF7DDF097F430E0163107B212DDCCC7C9A80FF7D32462BE0C6F30BBBAD0DF SWAP1 PUSH1 0x80 ADD PUSH1 0x40 MLOAD DUP1 SWAP2 SUB SWAP1 LOG1 DUP1 DUP3 PUSH1 0x9 ADD PUSH0 ADD PUSH0 DUP3 DUP3 SLOAD PUSH2 0x297B SWAP2 SWAP1 PUSH2 0x4125 JUMP JUMPDEST SWAP3 POP POP DUP2 SWAP1 SSTORE POP DUP1 PUSH2 0x107 PUSH0 DUP3 DUP3 SLOAD PUSH2 0x2994 SWAP2 SWAP1 PUSH2 0x4125 JUMP JUMPDEST SWAP1 SWAP2 SSTORE POP POP POP POP POP POP POP POP JUMP JUMPDEST PUSH1 0x1 JUMPDEST PUSH1 0x14 DUP2 PUSH1 0xFF AND LT ISZERO PUSH2 0x1872 JUMPI PUSH1 0xFF DUP2 AND PUSH0 SWAP1 DUP2 MSTORE PUSH2 0x10E PUSH1 0x20 MSTORE PUSH1 0x40 SWAP1 KECCAK256 PUSH1 0xFC SLOAD PUSH1 0x6 DUP3 ADD SLOAD ISZERO PUSH2 0x2769 JUMPI DUP2 SLOAD PUSH1 0xFF AND PUSH0 SUB PUSH2 0x29E1 JUMPI POP POP POP POP POP JUMP JUMPDEST PUSH0 PUSH2 0x10C PUSH0 DUP5 PUSH1 0x6 ADD DUP6 PUSH1 0x5 ADD SLOAD DUP2 SLOAD DUP2 LT PUSH2 0x29FF JUMPI PUSH2 0x29FF PUSH2 0x3F09 JUMP JUMPDEST PUSH0 SWAP2 DUP3 MSTORE PUSH1 0x20 DUP1 DUP4 KECCAK256 SWAP1 SWAP2 ADD SLOAD DUP4 MSTORE DUP3 ADD SWAP3 SWAP1 SWAP3 MSTORE PUSH1 0x40 ADD SWAP1 KECCAK256 PUSH1 0x3 DUP5 ADD SLOAD PUSH1 0x4 DUP6 ADD SLOAD SWAP2 SWAP3 POP PUSH1 0xFF AND EQ DUP1 PUSH2 0x2A41 JUMPI POP PUSH1 0x3 DUP4 ADD SLOAD PUSH1 0x4 DUP5 ADD SLOAD PUSH1 0xFF SWAP1 SWAP2 AND LT JUMPDEST ISZERO PUSH2 0x2ED8 JUMPI PUSH0 DUP4 PUSH1 0x2 ADD SLOAD GT DUP1 ISZERO PUSH2 0x2A5E JUMPI POP PUSH1 0xE DUP2 ADD SLOAD PUSH1 0xFF AND ISZERO JUMPDEST ISZERO PUSH2 0x2C5A JUMPI PUSH0 JUMPDEST DUP4 PUSH1 0x2 ADD SLOAD DUP2 PUSH1 0xFF AND LT ISZERO PUSH2 0x2C3E JUMPI PUSH0 PUSH2 0x10C DUP2 PUSH2 0x2A86 PUSH1 0xFF DUP6 AND DUP8 PUSH2 0x4125 JUMP JUMPDEST PUSH2 0x2A91 SWAP1 PUSH1 0x1 PUSH2 0x4125 JUMP JUMPDEST DUP2 MSTORE PUSH1 0x20 ADD SWAP1 DUP2 MSTORE PUSH1 0x20 ADD PUSH0 KECCAK256 SWAP1 POP DUP2 PUSH1 0xFF AND DUP5 PUSH2 0x2AAF SWAP2 SWAP1 PUSH2 0x4125 JUMP JUMPDEST PUSH2 0x2ABA SWAP1 PUSH1 0x1 PUSH2 0x4125 JUMP JUMPDEST DUP2 SSTORE PUSH1 0x1 DUP1 DUP5 ADD SLOAD SWAP1 DUP3 ADD DUP1 SLOAD PUSH1 0x1 PUSH1 0x1 PUSH1 0xA0 SHL SUB NOT AND PUSH1 0x1 PUSH1 0x1 PUSH1 0xA0 SHL SUB SWAP1 SWAP3 AND SWAP2 SWAP1 SWAP2 OR SWAP1 SSTORE DUP3 SLOAD PUSH1 0x3 DUP3 ADD SSTORE PUSH2 0x2AF3 DUP4 DUP3 PUSH2 0x320E JUMP JUMPDEST PUSH1 0xE DUP2 ADD DUP1 SLOAD PUSH1 0x1 PUSH1 0xFF NOT SWAP1 SWAP2 AND DUP2 OR SWAP1 SWAP2 SSTORE DUP4 SLOAD PUSH1 0x10 DUP4 ADD SSTORE DUP2 SLOAD PUSH1 0xF DUP6 ADD DUP1 SLOAD DUP1 DUP5 ADD DUP3 SSTORE PUSH0 SWAP2 DUP3 MSTORE PUSH1 0x20 DUP1 DUP4 KECCAK256 SWAP1 SWAP2 ADD SWAP3 SWAP1 SWAP3 SSTORE PUSH2 0x10E SWAP1 SWAP2 MSTORE PUSH1 0xC DUP4 ADD DUP1 SLOAD PUSH2 0xFFFF NOT AND PUSH2 0x101 OR SWAP1 SSTORE DUP3 SLOAD PUSH32 0xA878EB11FC349DF4D534CEF6FF510E6105E5CF3B4B4FA388042492F04F08403E DUP1 SLOAD SWAP4 DUP5 ADD DUP2 SSTORE DUP1 DUP4 MSTORE PUSH32 0xD25D8021BAF18E67615F94B1797B8535AC46660862294EF46088CAE957D4E434 SWAP1 SWAP4 ADD SSTORE SWAP1 SLOAD PUSH1 0xD DUP4 ADD SSTORE PUSH32 0xA878EB11FC349DF4D534CEF6FF510E6105E5CF3B4B4FA388042492F04F08403C DUP1 SLOAD PUSH32 0xA878EB11FC349DF4D534CEF6FF510E6105E5CF3B4B4FA388042492F04F084038 SWAP3 SWAP1 SWAP2 SWAP1 PUSH2 0x2BEB DUP4 PUSH2 0x4183 JUMP JUMPDEST SWAP1 SWAP2 SSTORE POP POP DUP2 SLOAD PUSH1 0x40 DUP1 MLOAD SWAP2 DUP3 MSTORE PUSH1 0x1 PUSH1 0x20 DUP4 ADD MSTORE PUSH32 0xDAE0BE714878398DF4BCE5E16513993CF11A07C4B626F7ACF376A79F71F721F8 SWAP2 ADD PUSH1 0x40 MLOAD DUP1 SWAP2 SUB SWAP1 LOG1 POP POP DUP1 PUSH2 0x2C37 SWAP1 PUSH2 0x3F38 JUMP JUMPDEST SWAP1 POP PUSH2 0x2A65 JUMP JUMPDEST POP DUP3 PUSH1 0x2 ADD SLOAD PUSH1 0xFC PUSH0 DUP3 DUP3 SLOAD PUSH2 0x2C54 SWAP2 SWAP1 PUSH2 0x4125 JUMP JUMPDEST SWAP1 SWAP2 SSTORE POP POP JUMPDEST PUSH0 PUSH2 0x10E DUP2 PUSH2 0x2C6A DUP8 PUSH1 0x1 PUSH2 0x419B JUMP JUMPDEST PUSH1 0xFF AND PUSH1 0xFF AND DUP2 MSTORE PUSH1 0x20 ADD SWAP1 DUP2 MSTORE PUSH1 0x20 ADD PUSH0 KECCAK256 SWAP1 POP DUP1 PUSH1 0x6 ADD DUP5 PUSH1 0x6 ADD DUP6 PUSH1 0x5 ADD SLOAD DUP2 SLOAD DUP2 LT PUSH2 0x2C9C JUMPI PUSH2 0x2C9C PUSH2 0x3F09 JUMP JUMPDEST PUSH0 SWAP2 DUP3 MSTORE PUSH1 0x20 DUP1 DUP4 KECCAK256 SWAP1 SWAP2 ADD SLOAD DUP4 SLOAD PUSH1 0x1 DUP2 ADD DUP6 SSTORE SWAP4 DUP4 MSTORE SWAP2 KECCAK256 SWAP1 SWAP2 ADD SSTORE PUSH1 0x5 DUP5 ADD SLOAD PUSH1 0x6 DUP6 ADD DUP1 SLOAD PUSH32 0xDAE0BE714878398DF4BCE5E16513993CF11A07C4B626F7ACF376A79F71F721F8 SWAP3 SWAP1 DUP2 LT PUSH2 0x2CF6 JUMPI PUSH2 0x2CF6 PUSH2 0x3F09 JUMP JUMPDEST SWAP1 PUSH0 MSTORE PUSH1 0x20 PUSH0 KECCAK256 ADD SLOAD DUP7 PUSH1 0x1 PUSH2 0x2D0C SWAP2 SWAP1 PUSH2 0x419B JUMP JUMPDEST PUSH1 0x40 DUP1 MLOAD SWAP3 DUP4 MSTORE PUSH1 0xFF SWAP1 SWAP2 AND PUSH1 0x20 DUP4 ADD MSTORE ADD PUSH1 0x40 MLOAD DUP1 SWAP2 SUB SWAP1 LOG1 PUSH1 0x4 DUP2 ADD DUP1 SLOAD SWAP1 PUSH0 PUSH2 0x2D37 DUP4 PUSH2 0x4183 JUMP JUMPDEST SWAP2 SWAP1 POP SSTORE POP DUP7 PUSH1 0x1 PUSH1 0x1 PUSH1 0xA0 SHL SUB AND PUSH4 0xA9059CBB DUP4 PUSH1 0x1 ADD PUSH0 SWAP1 SLOAD SWAP1 PUSH2 0x100 EXP SWAP1 DIV PUSH1 0x1 PUSH1 0x1 PUSH1 0xA0 SHL SUB AND PUSH2 0x2D79 PUSH2 0x2D73 DUP9 PUSH1 0x1 ADD SLOAD DUP13 PUSH2 0x17A7 JUMP JUMPDEST DUP11 PUSH2 0x35F5 JUMP JUMPDEST PUSH1 0x40 MLOAD PUSH1 0x1 PUSH1 0x1 PUSH1 0xE0 SHL SUB NOT PUSH1 0xE0 DUP6 SWAP1 SHL AND DUP2 MSTORE PUSH1 0x1 PUSH1 0x1 PUSH1 0xA0 SHL SUB SWAP1 SWAP3 AND PUSH1 0x4 DUP4 ADD MSTORE PUSH1 0x24 DUP3 ADD MSTORE PUSH1 0x44 ADD PUSH1 0x20 PUSH1 0x40 MLOAD DUP1 DUP4 SUB DUP2 PUSH0 DUP8 GAS CALL ISZERO DUP1 ISZERO PUSH2 0x2DC1 JUMPI RETURNDATASIZE PUSH0 DUP1 RETURNDATACOPY RETURNDATASIZE PUSH0 REVERT JUMPDEST POP POP POP POP PUSH1 0x40 MLOAD RETURNDATASIZE PUSH1 0x1F NOT PUSH1 0x1F DUP3 ADD AND DUP3 ADD DUP1 PUSH1 0x40 MSTORE POP DUP2 ADD SWAP1 PUSH2 0x2DE5 SWAP2 SWAP1 PUSH2 0x3F1D JUMP JUMPDEST POP PUSH32 0x89B70F5F92B02D089769DEA775C6DCE9797EBFB25AE57BCFBAB1D88A31A67212 DUP5 PUSH1 0x6 ADD DUP6 PUSH1 0x5 ADD SLOAD DUP2 SLOAD DUP2 LT PUSH2 0x2E20 JUMPI PUSH2 0x2E20 PUSH2 0x3F09 JUMP JUMPDEST PUSH0 SWAP2 DUP3 MSTORE PUSH1 0x20 SWAP2 DUP3 SWAP1 KECCAK256 ADD SLOAD DUP7 SLOAD PUSH1 0x1 DUP9 ADD SLOAD PUSH1 0x40 DUP1 MLOAD SWAP4 DUP5 MSTORE PUSH1 0xFF SWAP1 SWAP3 AND SWAP4 DUP4 ADD SWAP4 SWAP1 SWAP4 MSTORE DUP2 ADD SWAP2 SWAP1 SWAP2 MSTORE PUSH1 0x60 ADD PUSH1 0x40 MLOAD DUP1 SWAP2 SUB SWAP1 LOG1 DUP1 SLOAD PUSH1 0xC DUP4 ADD DUP1 SLOAD PUSH1 0xFF SWAP1 SWAP3 AND PUSH2 0x100 MUL PUSH2 0xFF00 NOT SWAP1 SWAP3 AND SWAP2 SWAP1 SWAP2 OR SWAP1 SSTORE PUSH1 0x6 DUP2 ADD SLOAD PUSH1 0xD DUP4 ADD SSTORE PUSH1 0x1 DUP5 ADD SLOAD PUSH1 0xB DUP4 ADD DUP1 SLOAD PUSH0 SWAP1 PUSH2 0x2E97 SWAP1 DUP5 SWAP1 PUSH2 0x4125 JUMP JUMPDEST SWAP1 SWAP2 SSTORE POP POP PUSH1 0x1 DUP5 ADD SLOAD PUSH1 0x7 DUP6 ADD DUP1 SLOAD PUSH0 SWAP1 PUSH2 0x2EB4 SWAP1 DUP5 SWAP1 PUSH2 0x4125 JUMP JUMPDEST SWAP1 SWAP2 SSTORE POP POP PUSH0 PUSH1 0x4 DUP6 ADD DUP2 SWAP1 SSTORE PUSH1 0x5 DUP6 ADD DUP1 SLOAD SWAP2 PUSH2 0x2ED1 DUP4 PUSH2 0x4183 JUMP JUMPDEST SWAP2 SWAP1 POP SSTORE POP POP JUMPDEST POP POP POP DUP1 DUP1 PUSH2 0x2EE6 SWAP1 PUSH2 0x3F38 JUMP JUMPDEST SWAP2 POP POP PUSH2 0x29A4 JUMP JUMPDEST PUSH0 PUSH1 0x64 PUSH2 0x104 SLOAD DUP4 PUSH2 0x2F00 SWAP2 SWAP1 PUSH2 0x3FEE JUMP JUMPDEST PUSH2 0x2F0A SWAP2 SWAP1 PUSH2 0x3EEA JUMP JUMPDEST SWAP1 POP DUP1 PUSH2 0x105 PUSH0 DUP3 DUP3 SLOAD PUSH2 0x2F1E SWAP2 SWAP1 PUSH2 0x4125 JUMP JUMPDEST SWAP3 POP POP DUP2 SWAP1 SSTORE POP DUP1 PUSH2 0x106 PUSH0 DUP3 DUP3 SLOAD PUSH2 0x2F37 SWAP2 SWAP1 PUSH2 0x4125 JUMP JUMPDEST SWAP1 SWAP2 SSTORE POP POP POP POP JUMP JUMPDEST PUSH0 SLOAD PUSH2 0x100 SWAP1 DIV PUSH1 0xFF AND PUSH2 0x2F66 JUMPI PUSH1 0x40 MLOAD PUSH3 0x461BCD PUSH1 0xE5 SHL DUP2 MSTORE PUSH1 0x4 ADD PUSH2 0x816 SWAP1 PUSH2 0x4138 JUMP JUMPDEST PUSH1 0x33 DUP1 SLOAD PUSH1 0xFF NOT AND SWAP1 SSTORE JUMP JUMPDEST PUSH0 SLOAD PUSH2 0x100 SWAP1 DIV PUSH1 0xFF AND PUSH2 0x2F98 JUMPI PUSH1 0x40 MLOAD PUSH3 0x461BCD PUSH1 0xE5 SHL DUP2 MSTORE PUSH1 0x4 ADD PUSH2 0x816 SWAP1 PUSH2 0x4138 JUMP JUMPDEST PUSH2 0xBEE CALLER PUSH2 0x1E8C JUMP JUMPDEST PUSH2 0x2FAA DUP2 PUSH2 0x1F5F JUMP JUMPDEST PUSH1 0x40 MLOAD PUSH1 0x1 PUSH1 0x1 PUSH1 0xA0 SHL SUB DUP3 AND SWAP1 PUSH32 0xBC7CD75A20EE27FD9ADEBAB32041F755214DBC6BFFA90CC0225B39DA2E5C2D3B SWAP1 PUSH0 SWAP1 LOG2 POP JUMP JUMPDEST PUSH1 0x60 PUSH1 0x1 PUSH1 0x1 PUSH1 0xA0 SHL SUB DUP4 AND EXTCODESIZE PUSH2 0x3048 JUMPI PUSH1 0x40 MLOAD PUSH3 0x461BCD PUSH1 0xE5 SHL DUP2 MSTORE PUSH1 0x20 PUSH1 0x4 DUP3 ADD MSTORE PUSH1 0x26 PUSH1 0x24 DUP3 ADD MSTORE PUSH32 0x416464726573733A2064656C65676174652063616C6C20746F206E6F6E2D636F PUSH1 0x44 DUP3 ADD MSTORE PUSH6 0x1B9D1C9858DD PUSH1 0xD2 SHL PUSH1 0x64 DUP3 ADD MSTORE PUSH1 0x84 ADD PUSH2 0x816 JUMP JUMPDEST PUSH0 DUP1 DUP5 PUSH1 0x1 PUSH1 0x1 PUSH1 0xA0 SHL SUB AND DUP5 PUSH1 0x40 MLOAD PUSH2 0x3062 SWAP2 SWAP1 PUSH2 0x41D6 JUMP JUMPDEST PUSH0 PUSH1 0x40 MLOAD DUP1 DUP4 SUB DUP2 DUP6 GAS DELEGATECALL SWAP2 POP POP RETURNDATASIZE DUP1 PUSH0 DUP2 EQ PUSH2 0x309A JUMPI PUSH1 0x40 MLOAD SWAP2 POP PUSH1 0x1F NOT PUSH1 0x3F RETURNDATASIZE ADD AND DUP3 ADD PUSH1 0x40 MSTORE RETURNDATASIZE DUP3 MSTORE RETURNDATASIZE PUSH0 PUSH1 0x20 DUP5 ADD RETURNDATACOPY PUSH2 0x309F JUMP JUMPDEST PUSH1 0x60 SWAP2 POP JUMPDEST POP SWAP2 POP SWAP2 POP PUSH2 0x30C7 DUP3 DUP3 PUSH1 0x40 MLOAD DUP1 PUSH1 0x60 ADD PUSH1 0x40 MSTORE DUP1 PUSH1 0x27 DUP2 MSTORE PUSH1 0x20 ADD PUSH2 0x4257 PUSH1 0x27 SWAP2 CODECOPY PUSH2 0x3602 JUMP JUMPDEST SWAP3 POP POP POP JUMPDEST SWAP3 SWAP2 POP POP JUMP JUMPDEST PUSH0 PUSH2 0x100 SLOAD DUP3 PUSH1 0x80 ADD MLOAD MLOAD EQ DUP1 PUSH2 0x30F0 JUMPI POP PUSH2 0x100 SLOAD DUP3 PUSH1 0x80 ADD MLOAD MLOAD GT JUMPDEST ISZERO PUSH2 0x30F9 JUMPI POP PUSH1 0x1 JUMPDEST SWAP2 SWAP1 POP JUMP JUMPDEST PUSH2 0x100 SLOAD PUSH1 0x4 DUP3 ADD SLOAD SUB PUSH2 0x8B1 JUMPI PUSH2 0x10E PUSH1 0x20 MSTORE PUSH1 0xC DUP2 ADD DUP1 SLOAD PUSH2 0xFFFF NOT AND PUSH2 0x101 OR SWAP1 SSTORE DUP1 SLOAD PUSH32 0xA878EB11FC349DF4D534CEF6FF510E6105E5CF3B4B4FA388042492F04F08403E DUP1 SLOAD PUSH1 0x1 DUP2 ADD DUP3 SSTORE PUSH0 DUP3 DUP2 MSTORE PUSH32 0xD25D8021BAF18E67615F94B1797B8535AC46660862294EF46088CAE957D4E434 SWAP1 SWAP2 ADD SWAP3 SWAP1 SWAP3 SSTORE SLOAD PUSH1 0xD DUP4 ADD SSTORE PUSH32 0xA878EB11FC349DF4D534CEF6FF510E6105E5CF3B4B4FA388042492F04F08403C DUP1 SLOAD PUSH32 0xA878EB11FC349DF4D534CEF6FF510E6105E5CF3B4B4FA388042492F04F084038 SWAP3 SWAP1 SWAP2 SWAP1 PUSH2 0x31D1 DUP4 PUSH2 0x4183 JUMP JUMPDEST SWAP1 SWAP2 SSTORE POP POP DUP2 SLOAD PUSH1 0x40 DUP1 MLOAD SWAP2 DUP3 MSTORE PUSH1 0x1 PUSH1 0x20 DUP4 ADD MSTORE PUSH32 0xDAE0BE714878398DF4BCE5E16513993CF11A07C4B626F7ACF376A79F71F721F8 SWAP2 ADD PUSH2 0x2090 JUMP JUMPDEST PUSH0 PUSH1 0xFD DUP1 SLOAD DUP1 PUSH1 0x20 MUL PUSH1 0x20 ADD PUSH1 0x40 MLOAD SWAP1 DUP2 ADD PUSH1 0x40 MSTORE DUP1 SWAP3 SWAP2 SWAP1 DUP2 DUP2 MSTORE PUSH1 0x20 ADD DUP3 DUP1 SLOAD DUP1 ISZERO PUSH2 0x3259 JUMPI PUSH1 0x20 MUL DUP3 ADD SWAP2 SWAP1 PUSH0 MSTORE PUSH1 0x20 PUSH0 KECCAK256 SWAP1 JUMPDEST DUP2 SLOAD DUP2 MSTORE PUSH1 0x20 ADD SWAP1 PUSH1 0x1 ADD SWAP1 DUP1 DUP4 GT PUSH2 0x3245 JUMPI JUMPDEST POP POP POP POP POP SWAP1 POP PUSH0 DUP2 MLOAD GT PUSH2 0x32BC JUMPI PUSH1 0x40 MLOAD PUSH3 0x461BCD PUSH1 0xE5 SHL DUP2 MSTORE PUSH1 0x20 PUSH1 0x4 DUP3 ADD MSTORE PUSH1 0x24 DUP1 DUP3 ADD MSTORE PUSH32 0x5F616464526566657272657228293A20476C6F62616C2069647320617265206F PUSH1 0x44 DUP3 ADD MSTORE PUSH4 0x3B32B917 PUSH1 0xE1 SHL PUSH1 0x64 DUP3 ADD MSTORE PUSH1 0x84 ADD PUSH2 0x816 JUMP JUMPDEST PUSH1 0xFE SLOAD PUSH0 JUMPDEST DUP3 MLOAD DUP2 LT ISZERO PUSH2 0x2769 JUMPI PUSH0 PUSH2 0x10C PUSH0 DUP6 DUP6 DUP2 MLOAD DUP2 LT PUSH2 0x32E1 JUMPI PUSH2 0x32E1 PUSH2 0x3F09 JUMP JUMPDEST PUSH1 0x20 SWAP1 DUP2 MUL SWAP2 SWAP1 SWAP2 ADD DUP2 ADD MLOAD DUP3 MSTORE DUP2 DUP2 ADD SWAP3 SWAP1 SWAP3 MSTORE PUSH1 0x40 SWAP1 DUP2 ADD PUSH0 SWAP1 DUP2 KECCAK256 DUP3 MLOAD PUSH2 0x140 DUP2 ADD DUP5 MSTORE DUP2 SLOAD DUP2 MSTORE PUSH1 0x1 DUP3 ADD SLOAD PUSH1 0x1 PUSH1 0x1 PUSH1 0xA0 SHL SUB AND DUP2 DUP7 ADD MSTORE PUSH1 0x2 DUP3 ADD SLOAD DUP2 DUP6 ADD MSTORE PUSH1 0x3 DUP3 ADD SLOAD PUSH1 0x60 DUP3 ADD MSTORE PUSH1 0x4 DUP3 ADD DUP1 SLOAD DUP6 MLOAD DUP2 DUP9 MUL DUP2 ADD DUP9 ADD SWAP1 SWAP7 MSTORE DUP1 DUP7 MSTORE SWAP3 SWAP7 POP PUSH2 0x33A5 SWAP6 SWAP2 SWAP5 DUP8 SWAP5 PUSH1 0x80 DUP8 ADD SWAP5 SWAP2 SWAP4 DUP5 ADD DUP3 ISZERO PUSH2 0x247E JUMPI DUP4 DUP3 SWAP1 PUSH0 MSTORE PUSH1 0x20 PUSH0 KECCAK256 SWAP1 PUSH1 0x3 MUL ADD PUSH1 0x40 MLOAD DUP1 PUSH1 0x60 ADD PUSH1 0x40 MSTORE SWAP1 DUP2 PUSH0 DUP3 ADD SLOAD DUP2 MSTORE PUSH1 0x20 ADD PUSH1 0x1 DUP3 ADD SLOAD DUP2 MSTORE PUSH1 0x20 ADD PUSH1 0x2 DUP3 ADD SLOAD DUP2 MSTORE POP POP DUP2 MSTORE PUSH1 0x20 ADD SWAP1 PUSH1 0x1 ADD SWAP1 PUSH2 0x2431 JUMP JUMPDEST ISZERO PUSH2 0x33D2 JUMPI PUSH1 0xFE DUP1 SLOAD SWAP1 PUSH0 PUSH2 0x33B9 DUP4 PUSH2 0x4183 JUMP JUMPDEST SWAP2 SWAP1 POP SSTORE POP DUP3 DUP1 PUSH2 0x33C9 SWAP1 PUSH2 0x4183 JUMP JUMPDEST SWAP4 POP POP POP PUSH2 0x35E5 JUMP JUMPDEST DUP5 SLOAD DUP2 SLOAD SUB PUSH2 0x33E5 JUMPI DUP3 PUSH2 0x33C9 DUP2 PUSH2 0x4183 JUMP JUMPDEST DUP1 SLOAD PUSH1 0x2 DUP1 DUP8 ADD DUP3 SWAP1 SSTORE PUSH1 0x40 DUP1 MLOAD PUSH1 0x60 DUP1 DUP3 ADD DUP4 MSTORE DUP10 SLOAD DUP3 MSTORE PUSH1 0x20 DUP1 DUP4 ADD SWAP6 DUP7 MSTORE PUSH0 DUP4 DUP6 ADD DUP2 DUP2 MSTORE PUSH1 0x4 DUP1 DUP16 ADD DUP1 SLOAD PUSH1 0x1 DUP2 DUP2 ADD DUP4 SSTORE SWAP2 DUP6 MSTORE DUP6 DUP6 KECCAK256 SWAP8 MLOAD PUSH1 0x3 SWAP2 DUP3 MUL SWAP1 SWAP9 ADD SWAP8 DUP9 SSTORE SWAP10 MLOAD DUP8 DUP3 ADD SSTORE SWAP2 MLOAD SWAP6 DUP9 ADD SWAP6 SWAP1 SWAP6 SSTORE DUP6 MLOAD SWAP4 DUP5 ADD DUP7 MSTORE DUP13 SLOAD DUP5 MSTORE DUP4 DUP4 ADD DUP3 DUP2 MSTORE DUP15 SLOAD SWAP7 DUP6 ADD SWAP7 DUP8 MSTORE SWAP5 DUP10 ADD DUP1 SLOAD DUP1 DUP4 ADD DUP3 SSTORE SWAP1 DUP4 MSTORE SWAP3 SWAP1 SWAP2 KECCAK256 SWAP3 MLOAD SWAP2 SWAP1 SWAP7 MUL SWAP1 SWAP2 ADD SWAP1 DUP2 SSTORE SWAP1 MLOAD SWAP4 DUP2 ADD SWAP4 SWAP1 SWAP4 SSTORE MLOAD SWAP2 ADD SSTORE PUSH2 0x3489 DUP2 PUSH2 0x30FE JUMP JUMPDEST DUP6 SLOAD DUP2 SLOAD DUP7 SLOAD PUSH1 0x40 DUP1 MLOAD SWAP4 DUP5 MSTORE PUSH1 0x20 DUP5 ADD SWAP3 SWAP1 SWAP3 MSTORE DUP3 DUP3 ADD MSTORE MLOAD PUSH32 0x347A3B2FE969C7AB7C51C290DBCAE965D7B5A6B03D2B9336A480169D79A5F51F SWAP2 DUP2 SWAP1 SUB PUSH1 0x60 ADD SWAP1 LOG1 DUP1 SLOAD DUP6 SLOAD PUSH1 0x40 MLOAD PUSH32 0xE6B2C1CA4B33533EDDCCFDD2DD0FBE5FF44D75017001D4B2329B4DAEE1821436 SWAP3 PUSH2 0x3508 SWAP3 SWAP1 DUP3 MSTORE PUSH1 0x20 DUP3 ADD MSTORE PUSH1 0x40 ADD SWAP1 JUMP JUMPDEST PUSH1 0x40 MLOAD DUP1 SWAP2 SUB SWAP1 LOG1 PUSH1 0x40 DUP1 MLOAD PUSH2 0x140 DUP2 ADD DUP3 MSTORE DUP3 SLOAD DUP2 MSTORE PUSH1 0x1 DUP4 ADD SLOAD PUSH1 0x1 PUSH1 0x1 PUSH1 0xA0 SHL SUB AND PUSH1 0x20 DUP1 DUP4 ADD SWAP2 SWAP1 SWAP2 MSTORE PUSH1 0x2 DUP5 ADD SLOAD DUP3 DUP5 ADD MSTORE PUSH1 0x3 DUP5 ADD SLOAD PUSH1 0x60 DUP4 ADD MSTORE PUSH1 0x4 DUP5 ADD DUP1 SLOAD DUP5 MLOAD DUP2 DUP5 MUL DUP2 ADD DUP5 ADD SWAP1 SWAP6 MSTORE DUP1 DUP6 MSTORE PUSH2 0x35BB SWAP5 DUP7 SWAP4 PUSH1 0x80 DUP7 ADD SWAP4 SWAP2 SWAP3 SWAP1 PUSH0 SWAP1 DUP5 ADD DUP3 ISZERO PUSH2 0x247E JUMPI DUP4 DUP3 SWAP1 PUSH0 MSTORE PUSH1 0x20 PUSH0 KECCAK256 SWAP1 PUSH1 0x3 MUL ADD PUSH1 0x40 MLOAD DUP1 PUSH1 0x60 ADD PUSH1 0x40 MSTORE SWAP1 DUP2 PUSH0 DUP3 ADD SLOAD DUP2 MSTORE PUSH1 0x20 ADD PUSH1 0x1 DUP3 ADD SLOAD DUP2 MSTORE PUSH1 0x20 ADD PUSH1 0x2 DUP3 ADD SLOAD DUP2 MSTORE POP POP DUP2 MSTORE PUSH1 0x20 ADD SWAP1 PUSH1 0x1 ADD SWAP1 PUSH2 0x2431 JUMP JUMPDEST DUP1 ISZERO PUSH2 0x35C5 JUMPI POP DUP2 ISZERO JUMPDEST ISZERO PUSH2 0x35DF JUMPI PUSH1 0xFE DUP1 SLOAD SWAP1 PUSH0 PUSH2 0x35D9 DUP4 PUSH2 0x4183 JUMP JUMPDEST SWAP2 SWAP1 POP SSTORE POP JUMPDEST POP PUSH2 0x2769 JUMP JUMPDEST PUSH2 0x35EE DUP2 PUSH2 0x4183 JUMP JUMPDEST SWAP1 POP PUSH2 0x32C1 JUMP JUMPDEST PUSH0 PUSH1 0x64 PUSH2 0x181C DUP4 DUP3 PUSH2 0x41F1 JUMP JUMPDEST PUSH1 0x60 DUP4 ISZERO PUSH2 0x3611 JUMPI POP DUP2 PUSH2 0x1830 JUMP JUMPDEST PUSH2 0x1830 DUP4 DUP4 DUP2 MLOAD ISZERO PUSH2 0x3626 JUMPI DUP2 MLOAD DUP1 DUP4 PUSH1 0x20 ADD REVERT JUMPDEST DUP1 PUSH1 0x40 MLOAD PUSH3 0x461BCD PUSH1 0xE5 SHL DUP2 MSTORE PUSH1 0x4 ADD PUSH2 0x816 SWAP2 SWAP1 PUSH2 0x4204 JUMP JUMPDEST DUP3 DUP1 SLOAD DUP3 DUP3 SSTORE SWAP1 PUSH0 MSTORE PUSH1 0x20 PUSH0 KECCAK256 SWAP1 DUP2 ADD SWAP3 DUP3 ISZERO PUSH2 0x367E JUMPI SWAP2 PUSH1 0x20 MUL DUP3 ADD JUMPDEST DUP3 DUP2 GT ISZERO PUSH2 0x367E JUMPI DUP3 MLOAD DUP3 SWAP1 PUSH1 0xFF AND SWAP1 SSTORE SWAP2 PUSH1 0x20 ADD SWAP2 SWAP1 PUSH1 0x1 ADD SWAP1 PUSH2 0x365E JUMP JUMPDEST POP PUSH2 0x368A SWAP3 SWAP2 POP PUSH2 0x375D JUMP JUMPDEST POP SWAP1 JUMP JUMPDEST PUSH1 0x40 MLOAD DUP1 PUSH2 0x140 ADD PUSH1 0x40 MSTORE DUP1 PUSH0 DUP2 MSTORE PUSH1 0x20 ADD PUSH0 PUSH1 0x1 PUSH1 0x1 PUSH1 0xA0 SHL SUB AND DUP2 MSTORE PUSH1 0x20 ADD PUSH0 DUP2 MSTORE PUSH1 0x20 ADD PUSH0 DUP2 MSTORE PUSH1 0x20 ADD PUSH1 0x60 DUP2 MSTORE PUSH1 0x20 ADD PUSH1 0x60 DUP2 MSTORE PUSH1 0x20 ADD PUSH2 0x36EA PUSH1 0x40 MLOAD DUP1 PUSH1 0x60 ADD PUSH1 0x40 MSTORE DUP1 PUSH0 DUP2 MSTORE PUSH1 0x20 ADD PUSH0 DUP2 MSTORE PUSH1 0x20 ADD PUSH0 DUP2 MSTORE POP SWAP1 JUMP JUMPDEST DUP2 MSTORE PUSH1 0x20 ADD PUSH2 0x3710 PUSH1 0x40 MLOAD DUP1 PUSH1 0x60 ADD PUSH1 0x40 MSTORE DUP1 PUSH0 DUP2 MSTORE PUSH1 0x20 ADD PUSH0 DUP2 MSTORE PUSH1 0x20 ADD PUSH0 DUP2 MSTORE POP SWAP1 JUMP JUMPDEST DUP2 MSTORE PUSH1 0x40 DUP1 MLOAD PUSH1 0x60 DUP2 ADD DUP3 MSTORE PUSH0 DUP1 DUP3 MSTORE PUSH1 0x20 DUP3 DUP2 ADD DUP3 SWAP1 MSTORE SWAP3 DUP3 ADD MSTORE SWAP2 ADD SWAP1 DUP2 MSTORE PUSH1 0x20 ADD PUSH2 0x3758 PUSH1 0x40 MLOAD DUP1 PUSH1 0x60 ADD PUSH1 0x40 MSTORE DUP1 PUSH0 ISZERO ISZERO DUP2 MSTORE PUSH1 0x20 ADD PUSH1 0x60 DUP2 MSTORE PUSH1 0x20 ADD PUSH0 DUP2 MSTORE POP SWAP1 JUMP JUMPDEST SWAP1 MSTORE SWAP1 JUMP JUMPDEST JUMPDEST DUP1 DUP3 GT ISZERO PUSH2 0x368A JUMPI PUSH0 DUP2 SSTORE PUSH1 0x1 ADD PUSH2 0x375E JUMP JUMPDEST PUSH1 0xFF DUP2 AND DUP2 EQ PUSH2 0x8B1 JUMPI PUSH0 DUP1 REVERT JUMPDEST PUSH0 PUSH1 0x20 DUP3 DUP5 SUB SLT ISZERO PUSH2 0x378F JUMPI PUSH0 DUP1 REVERT JUMPDEST DUP2 CALLDATALOAD PUSH2 0x1830 DUP2 PUSH2 0x3771 JUMP JUMPDEST PUSH0 DUP2 MLOAD DUP1 DUP5 MSTORE PUSH1 0x20 DUP1 DUP6 ADD SWAP5 POP DUP1 DUP5 ADD PUSH0 JUMPDEST DUP4 DUP2 LT ISZERO PUSH2 0x37C8 JUMPI DUP2 MLOAD DUP8 MSTORE SWAP6 DUP3 ADD SWAP6 SWAP1 DUP3 ADD SWAP1 PUSH1 0x1 ADD PUSH2 0x37AC JUMP JUMPDEST POP SWAP5 SWAP6 SWAP5 POP POP POP POP POP JUMP JUMPDEST PUSH1 0x20 DUP2 MSTORE PUSH0 PUSH2 0x1830 PUSH1 0x20 DUP4 ADD DUP5 PUSH2 0x379A JUMP JUMPDEST PUSH0 DUP2 MLOAD DUP1 DUP5 MSTORE PUSH1 0x20 DUP1 DUP6 ADD SWAP5 POP DUP1 DUP5 ADD PUSH0 JUMPDEST DUP4 DUP2 LT ISZERO PUSH2 0x37C8 JUMPI DUP2 MLOAD PUSH1 0x1 PUSH1 0x1 PUSH1 0xA0 SHL SUB AND DUP8 MSTORE SWAP6 DUP3 ADD SWAP6 SWAP1 DUP3 ADD SWAP1 PUSH1 0x1 ADD PUSH2 0x37F7 JUMP JUMPDEST PUSH0 DUP2 MLOAD DUP1 DUP5 MSTORE PUSH1 0x20 DUP1 DUP6 ADD SWAP5 POP DUP1 DUP5 ADD PUSH0 JUMPDEST DUP4 DUP2 LT ISZERO PUSH2 0x37C8 JUMPI DUP2 MLOAD DUP1 MLOAD PUSH1 0x1 PUSH1 0x1 PUSH1 0xA0 SHL SUB SWAP1 DUP2 AND DUP10 MSTORE DUP5 DUP3 ADD MLOAD DUP6 DUP11 ADD MSTORE PUSH1 0x40 DUP1 DUP4 ADD MLOAD ISZERO ISZERO SWAP1 DUP11 ADD MSTORE PUSH1 0x60 DUP1 DUP4 ADD MLOAD SWAP1 SWAP2 AND SWAP1 DUP10 ADD MSTORE PUSH1 0x80 SWAP1 DUP2 ADD MLOAD ISZERO ISZERO SWAP1 DUP9 ADD MSTORE PUSH1 0xA0 SWAP1 SWAP7 ADD SWAP6 SWAP1 DUP3 ADD SWAP1 PUSH1 0x1 ADD PUSH2 0x382E JUMP JUMPDEST PUSH1 0xE0 DUP2 MSTORE PUSH0 PUSH2 0x3898 PUSH1 0xE0 DUP4 ADD DUP11 PUSH2 0x379A JUMP JUMPDEST DUP9 PUSH1 0x20 DUP5 ADD MSTORE DUP8 PUSH1 0x40 DUP5 ADD MSTORE DUP7 PUSH1 0x60 DUP5 ADD MSTORE DUP3 DUP2 SUB PUSH1 0x80 DUP5 ADD MSTORE PUSH2 0x38BC DUP2 DUP8 PUSH2 0x37E5 JUMP JUMPDEST SWAP1 POP DUP5 PUSH1 0xA0 DUP5 ADD MSTORE DUP3 DUP2 SUB PUSH1 0xC0 DUP5 ADD MSTORE PUSH2 0x38D6 DUP2 DUP6 PUSH2 0x381C JUMP JUMPDEST SWAP11 SWAP10 POP POP POP POP POP POP POP POP POP POP JUMP JUMPDEST DUP1 CALLDATALOAD PUSH1 0x1 PUSH1 0x1 PUSH1 0xA0 SHL SUB DUP2 AND DUP2 EQ PUSH2 0x30F9 JUMPI PUSH0 DUP1 REVERT JUMPDEST PUSH0 PUSH1 0x20 DUP3 DUP5 SUB SLT ISZERO PUSH2 0x390A JUMPI PUSH0 DUP1 REVERT JUMPDEST PUSH2 0x1830 DUP3 PUSH2 0x38E4 JUMP JUMPDEST PUSH1 0x20 DUP2 MSTORE PUSH0 PUSH2 0x1830 PUSH1 0x20 DUP4 ADD DUP5 PUSH2 0x381C JUMP JUMPDEST PUSH0 DUP1 PUSH0 DUP1 PUSH1 0x80 DUP6 DUP8 SUB SLT ISZERO PUSH2 0x3938 JUMPI PUSH0 DUP1 REVERT JUMPDEST DUP5 CALLDATALOAD PUSH2 0x3943 DUP2 PUSH2 0x3771 JUMP JUMPDEST SWAP4 POP PUSH1 0x20 DUP6 ADD CALLDATALOAD SWAP3 POP PUSH2 0x3958 PUSH1 0x40 DUP7 ADD PUSH2 0x38E4 JUMP JUMPDEST SWAP2 POP PUSH2 0x3966 PUSH1 0x60 DUP7 ADD PUSH2 0x38E4 JUMP JUMPDEST SWAP1 POP SWAP3 SWAP6 SWAP2 SWAP5 POP SWAP3 POP JUMP JUMPDEST PUSH4 0x4E487B71 PUSH1 0xE0 SHL PUSH0 MSTORE PUSH1 0x41 PUSH1 0x4 MSTORE PUSH1 0x24 PUSH0 REVERT JUMPDEST PUSH0 DUP1 PUSH1 0x40 DUP4 DUP6 SUB SLT ISZERO PUSH2 0x3996 JUMPI PUSH0 DUP1 REVERT JUMPDEST PUSH2 0x399F DUP4 PUSH2 0x38E4 JUMP JUMPDEST SWAP2 POP PUSH1 0x20 DUP4 ADD CALLDATALOAD PUSH8 0xFFFFFFFFFFFFFFFF DUP1 DUP3 GT ISZERO PUSH2 0x39BB JUMPI PUSH0 DUP1 REVERT JUMPDEST DUP2 DUP6 ADD SWAP2 POP DUP6 PUSH1 0x1F DUP4 ADD SLT PUSH2 0x39CE JUMPI PUSH0 DUP1 REVERT JUMPDEST DUP2 CALLDATALOAD DUP2 DUP2 GT ISZERO PUSH2 0x39E0 JUMPI PUSH2 0x39E0 PUSH2 0x3971 JUMP JUMPDEST PUSH1 0x40 MLOAD PUSH1 0x1F DUP3 ADD PUSH1 0x1F NOT SWAP1 DUP2 AND PUSH1 0x3F ADD AND DUP2 ADD SWAP1 DUP4 DUP3 GT DUP2 DUP4 LT OR ISZERO PUSH2 0x3A08 JUMPI PUSH2 0x3A08 PUSH2 0x3971 JUMP JUMPDEST DUP2 PUSH1 0x40 MSTORE DUP3 DUP2 MSTORE DUP9 PUSH1 0x20 DUP5 DUP8 ADD ADD GT ISZERO PUSH2 0x3A20 JUMPI PUSH0 DUP1 REVERT JUMPDEST DUP3 PUSH1 0x20 DUP7 ADD PUSH1 0x20 DUP4 ADD CALLDATACOPY PUSH0 PUSH1 0x20 DUP5 DUP4 ADD ADD MSTORE DUP1 SWAP6 POP POP POP POP POP POP SWAP3 POP SWAP3 SWAP1 POP JUMP JUMPDEST DUP1 ISZERO ISZERO DUP2 EQ PUSH2 0x8B1 JUMPI PUSH0 DUP1 REVERT JUMPDEST PUSH0 DUP1 PUSH1 0x40 DUP4 DUP6 SUB SLT ISZERO PUSH2 0x3A5F JUMPI PUSH0 DUP1 REVERT JUMPDEST PUSH2 0x3A68 DUP4 PUSH2 0x38E4 JUMP JUMPDEST SWAP2 POP PUSH1 0x20 DUP4 ADD CALLDATALOAD PUSH2 0x3A78 DUP2 PUSH2 0x3A41 JUMP JUMPDEST DUP1 SWAP2 POP POP SWAP3 POP SWAP3 SWAP1 POP JUMP JUMPDEST PUSH0 DUP1 DUP4 PUSH1 0x1F DUP5 ADD SLT PUSH2 0x3A93 JUMPI PUSH0 DUP1 REVERT JUMPDEST POP DUP2 CALLDATALOAD PUSH8 0xFFFFFFFFFFFFFFFF DUP2 GT ISZERO PUSH2 0x3AAA JUMPI PUSH0 DUP1 REVERT JUMPDEST PUSH1 0x20 DUP4 ADD SWAP2 POP DUP4 PUSH1 0x20 DUP3 PUSH1 0x5 SHL DUP6 ADD ADD GT ISZERO PUSH2 0x3AC4 JUMPI PUSH0 DUP1 REVERT JUMPDEST SWAP3 POP SWAP3 SWAP1 POP JUMP JUMPDEST PUSH0 DUP1 PUSH0 DUP1 PUSH0 DUP1 PUSH0 PUSH1 0x80 DUP9 DUP11 SUB SLT ISZERO PUSH2 0x3AE1 JUMPI PUSH0 DUP1 REVERT JUMPDEST DUP8 CALLDATALOAD PUSH8 0xFFFFFFFFFFFFFFFF DUP1 DUP3 GT ISZERO PUSH2 0x3AF8 JUMPI PUSH0 DUP1 REVERT JUMPDEST PUSH2 0x3B04 DUP12 DUP4 DUP13 ADD PUSH2 0x3A83 JUMP JUMPDEST SWAP1 SWAP10 POP SWAP8 POP PUSH1 0x20 DUP11 ADD CALLDATALOAD SWAP2 POP DUP1 DUP3 GT ISZERO PUSH2 0x3B1C JUMPI PUSH0 DUP1 REVERT JUMPDEST PUSH2 0x3B28 DUP12 DUP4 DUP13 ADD PUSH2 0x3A83 JUMP JUMPDEST SWAP1 SWAP8 POP SWAP6 POP PUSH1 0x40 DUP11 ADD CALLDATALOAD SWAP2 POP DUP1 DUP3 GT ISZERO PUSH2 0x3B40 JUMPI PUSH0 DUP1 REVERT JUMPDEST POP PUSH2 0x3B4D DUP11 DUP3 DUP12 ADD PUSH2 0x3A83 JUMP JUMPDEST SWAP1 SWAP5 POP SWAP3 POP POP PUSH1 0x60 DUP9 ADD CALLDATALOAD PUSH2 0x3B61 DUP2 PUSH2 0x3771 JUMP JUMPDEST DUP1 SWAP2 POP POP SWAP3 SWAP6 SWAP9 SWAP2 SWAP5 SWAP8 POP SWAP3 SWAP6 POP JUMP JUMPDEST PUSH0 PUSH2 0x120 DUP1 DUP4 MSTORE PUSH2 0x3B84 DUP2 DUP5 ADD DUP14 PUSH2 0x37E5 JUMP JUMPDEST SWAP1 POP DUP11 PUSH1 0x20 DUP5 ADD MSTORE DUP10 PUSH1 0x40 DUP5 ADD MSTORE DUP3 DUP2 SUB PUSH1 0x60 DUP5 ADD MSTORE PUSH2 0x3BA4 DUP2 DUP11 PUSH2 0x379A JUMP JUMPDEST PUSH1 0x80 DUP5 ADD SWAP9 SWAP1 SWAP9 MSTORE POP POP PUSH1 0xA0 DUP2 ADD SWAP5 SWAP1 SWAP5 MSTORE PUSH1 0xC0 DUP5 ADD SWAP3 SWAP1 SWAP3 MSTORE PUSH1 0xE0 DUP4 ADD MSTORE PUSH2 0x100 SWAP1 SWAP2 ADD MSTORE SWAP5 SWAP4 POP POP POP POP JUMP JUMPDEST PUSH0 DUP1 PUSH0 PUSH1 0x60 DUP5 DUP7 SUB SLT ISZERO PUSH2 0x3BE4 JUMPI PUSH0 DUP1 REVERT JUMPDEST DUP4 CALLDATALOAD SWAP3 POP PUSH2 0x3BF4 PUSH1 0x20 DUP6 ADD PUSH2 0x38E4 JUMP JUMPDEST SWAP2 POP PUSH2 0x3C02 PUSH1 0x40 DUP6 ADD PUSH2 0x38E4 JUMP JUMPDEST SWAP1 POP SWAP3 POP SWAP3 POP SWAP3 JUMP JUMPDEST PUSH1 0x20 DUP2 MSTORE PUSH1 0xFF DUP3 MLOAD AND PUSH1 0x20 DUP3 ADD MSTORE PUSH1 0x20 DUP3 ADD MLOAD PUSH1 0x40 DUP3 ADD MSTORE PUSH1 0x40 DUP3 ADD MLOAD PUSH1 0x60 DUP3 ADD MSTORE PUSH1 0xFF PUSH1 0x60 DUP4 ADD MLOAD AND PUSH1 0x80 DUP3 ADD MSTORE PUSH1 0x80 DUP3 ADD MLOAD PUSH1 0xA0 DUP3 ADD MSTORE PUSH1 0xA0 DUP3 ADD MLOAD PUSH1 0xC0 DUP3 ADD MSTORE PUSH0 PUSH1 0xC0 DUP4 ADD MLOAD PUSH2 0x100 DUP1 PUSH1 0xE0 DUP6 ADD MSTORE PUSH2 0x3C6B PUSH2 0x120 DUP6 ADD DUP4 PUSH2 0x379A JUMP JUMPDEST PUSH1 0xE0 SWAP6 SWAP1 SWAP6 ADD MLOAD SWAP4 ADD SWAP3 SWAP1 SWAP3 MSTORE POP SWAP1 SWAP2 SWAP1 POP JUMP JUMPDEST PUSH0 DUP1 PUSH0 PUSH1 0x60 DUP5 DUP7 SUB SLT ISZERO PUSH2 0x3C91 JUMPI PUSH0 DUP1 REVERT JUMPDEST PUSH2 0x3C9A DUP5 PUSH2 0x38E4 JUMP JUMPDEST SWAP3 POP PUSH1 0x20 DUP5 ADD CALLDATALOAD PUSH2 0x3BF4 DUP2 PUSH2 0x3A41 JUMP JUMPDEST PUSH1 0x20 DUP1 DUP3 MSTORE DUP3 MLOAD PUSH1 0x1 PUSH1 0x1 PUSH1 0xA0 SHL SUB AND DUP3 DUP3 ADD MSTORE DUP3 ADD MLOAD PUSH1 0x60 PUSH1 0x40 DUP4 ADD MSTORE PUSH0 SWAP1 PUSH2 0x3CD7 PUSH1 0x80 DUP5 ADD DUP3 PUSH2 0x379A JUMP JUMPDEST SWAP1 POP PUSH1 0x40 DUP5 ADD MLOAD PUSH1 0x1F NOT DUP5 DUP4 SUB ADD PUSH1 0x60 DUP6 ADD MSTORE PUSH2 0x30C7 DUP3 DUP3 PUSH2 0x379A JUMP JUMPDEST PUSH0 PUSH1 0x20 DUP3 DUP5 SUB SLT ISZERO PUSH2 0x3D04 JUMPI PUSH0 DUP1 REVERT JUMPDEST POP CALLDATALOAD SWAP2 SWAP1 POP JUMP JUMPDEST PUSH0 DUP2 MLOAD DUP1 DUP5 MSTORE PUSH1 0x20 DUP1 DUP6 ADD SWAP5 POP DUP1 DUP5 ADD PUSH0 JUMPDEST DUP4 DUP2 LT ISZERO PUSH2 0x37C8 JUMPI PUSH2 0x3D44 DUP8 DUP4 MLOAD DUP1 MLOAD DUP3 MSTORE PUSH1 0x20 DUP1 DUP3 ADD MLOAD SWAP1 DUP4 ADD MSTORE PUSH1 0x40 SWAP1 DUP2 ADD MLOAD SWAP2 ADD MSTORE JUMP JUMPDEST PUSH1 0x60 SWAP7 SWAP1 SWAP7 ADD SWAP6 SWAP1 DUP3 ADD SWAP1 PUSH1 0x1 ADD PUSH2 0x3D1D JUMP JUMPDEST PUSH0 DUP2 MLOAD DUP1 DUP5 MSTORE PUSH1 0x20 DUP1 DUP6 ADD SWAP5 POP DUP1 DUP5 ADD PUSH0 JUMPDEST DUP4 DUP2 LT ISZERO PUSH2 0x37C8 JUMPI DUP2 MLOAD DUP1 MLOAD DUP9 MSTORE DUP4 ADD MLOAD DUP4 DUP9 ADD MSTORE PUSH1 0x40 SWAP1 SWAP7 ADD SWAP6 SWAP1 DUP3 ADD SWAP1 PUSH1 0x1 ADD PUSH2 0x3D69 JUMP JUMPDEST DUP1 MLOAD ISZERO ISZERO DUP3 MSTORE PUSH0 PUSH1 0x20 DUP3 ADD MLOAD PUSH1 0x60 PUSH1 0x20 DUP6 ADD MSTORE PUSH2 0x3DB0 PUSH1 0x60 DUP6 ADD DUP3 PUSH2 0x379A JUMP JUMPDEST PUSH1 0x40 SWAP4 DUP5 ADD MLOAD SWAP5 SWAP1 SWAP4 ADD SWAP4 SWAP1 SWAP4 MSTORE POP SWAP2 SWAP1 POP JUMP JUMPDEST PUSH1 0x20 DUP2 MSTORE DUP2 MLOAD PUSH1 0x20 DUP3 ADD MSTORE PUSH0 PUSH1 0x20 DUP4 ADD MLOAD PUSH2 0x3DEA PUSH1 0x40 DUP5 ADD DUP3 PUSH1 0x1 PUSH1 0x1 PUSH1 0xA0 SHL SUB AND SWAP1 MSTORE JUMP JUMPDEST POP PUSH1 0x40 DUP4 ADD MLOAD PUSH1 0x60 DUP4 ADD MSTORE PUSH1 0x60 DUP4 ADD MLOAD PUSH1 0x80 DUP4 ADD MSTORE PUSH1 0x80 DUP4 ADD MLOAD PUSH2 0x200 DUP1 PUSH1 0xA0 DUP6 ADD MSTORE PUSH2 0x3E1B PUSH2 0x220 DUP6 ADD DUP4 PUSH2 0x3D0B JUMP JUMPDEST SWAP2 POP PUSH1 0xA0 DUP6 ADD MLOAD PUSH1 0x1F NOT DUP1 DUP7 DUP6 SUB ADD PUSH1 0xC0 DUP8 ADD MSTORE PUSH2 0x3E39 DUP5 DUP4 PUSH2 0x3D57 JUMP JUMPDEST PUSH1 0xC0 DUP9 ADD MLOAD DUP1 MLOAD PUSH1 0xE0 DUP10 ADD MSTORE PUSH1 0x20 DUP2 ADD MLOAD PUSH2 0x100 DUP10 ADD MSTORE PUSH1 0x40 DUP2 ADD MLOAD PUSH2 0x120 DUP10 ADD MSTORE SWAP1 SWAP5 POP SWAP2 POP PUSH1 0xE0 DUP8 ADD MLOAD DUP1 MLOAD PUSH2 0x140 DUP9 ADD MSTORE PUSH1 0x20 DUP2 ADD MLOAD PUSH2 0x160 DUP9 ADD MSTORE PUSH1 0x40 DUP2 ADD MLOAD PUSH2 0x180 DUP9 ADD MSTORE SWAP2 POP PUSH2 0x100 DUP8 ADD MLOAD DUP1 MLOAD ISZERO ISZERO PUSH2 0x1A0 DUP9 ADD MSTORE PUSH1 0x20 DUP2 ADD MLOAD PUSH1 0xFF AND PUSH2 0x1C0 DUP9 ADD MSTORE PUSH1 0x40 DUP2 ADD MLOAD PUSH2 0x1E0 DUP9 ADD MSTORE SWAP2 POP PUSH2 0x120 DUP8 ADD MLOAD SWAP2 POP DUP1 DUP7 DUP6 SUB ADD DUP4 DUP8 ADD MSTORE POP PUSH2 0x3ECC DUP4 DUP3 PUSH2 0x3D90 JUMP JUMPDEST SWAP7 SWAP6 POP POP POP POP POP POP JUMP JUMPDEST PUSH4 0x4E487B71 PUSH1 0xE0 SHL PUSH0 MSTORE PUSH1 0x11 PUSH1 0x4 MSTORE PUSH1 0x24 PUSH0 REVERT JUMPDEST PUSH0 DUP3 PUSH2 0x3F04 JUMPI PUSH4 0x4E487B71 PUSH1 0xE0 SHL PUSH0 MSTORE PUSH1 0x12 PUSH1 0x4 MSTORE PUSH1 0x24 PUSH0 REVERT JUMPDEST POP DIV SWAP1 JUMP JUMPDEST PUSH4 0x4E487B71 PUSH1 0xE0 SHL PUSH0 MSTORE PUSH1 0x32 PUSH1 0x4 MSTORE PUSH1 0x24 PUSH0 REVERT JUMPDEST PUSH0 PUSH1 0x20 DUP3 DUP5 SUB SLT ISZERO PUSH2 0x3F2D JUMPI PUSH0 DUP1 REVERT JUMPDEST DUP2 MLOAD PUSH2 0x1830 DUP2 PUSH2 0x3A41 JUMP JUMPDEST PUSH0 PUSH1 0xFF DUP3 AND PUSH1 0xFF DUP2 SUB PUSH2 0x3F4D JUMPI PUSH2 0x3F4D PUSH2 0x3ED6 JUMP JUMPDEST PUSH1 0x1 ADD SWAP3 SWAP2 POP POP JUMP JUMPDEST PUSH1 0x20 DUP1 DUP3 MSTORE PUSH1 0x2C SWAP1 DUP3 ADD MSTORE PUSH32 0x46756E6374696F6E206D7573742062652063616C6C6564207468726F75676820 PUSH1 0x40 DUP3 ADD MSTORE PUSH12 0x19195B1959D85D1958D85B1B PUSH1 0xA2 SHL PUSH1 0x60 DUP3 ADD MSTORE PUSH1 0x80 ADD SWAP1 JUMP JUMPDEST PUSH1 0x20 DUP1 DUP3 MSTORE PUSH1 0x2C SWAP1 DUP3 ADD MSTORE PUSH32 0x46756E6374696F6E206D7573742062652063616C6C6564207468726F75676820 PUSH1 0x40 DUP3 ADD MSTORE PUSH12 0x6163746976652070726F7879 PUSH1 0xA0 SHL PUSH1 0x60 DUP3 ADD MSTORE PUSH1 0x80 ADD SWAP1 JUMP JUMPDEST DUP1 DUP3 MUL DUP2 ISZERO DUP3 DUP3 DIV DUP5 EQ OR PUSH2 0x30CC JUMPI PUSH2 0x30CC PUSH2 0x3ED6 JUMP JUMPDEST PUSH0 PUSH1 0x20 DUP3 DUP5 SUB SLT ISZERO PUSH2 0x4015 JUMPI PUSH0 DUP1 REVERT JUMPDEST DUP2 MLOAD PUSH2 0x1830 DUP2 PUSH2 0x3771 JUMP JUMPDEST PUSH1 0x1 DUP2 DUP2 JUMPDEST DUP1 DUP6 GT ISZERO PUSH2 0x405A JUMPI DUP2 PUSH0 NOT DIV DUP3 GT ISZERO PUSH2 0x4040 JUMPI PUSH2 0x4040 PUSH2 0x3ED6 JUMP JUMPDEST DUP1 DUP6 AND ISZERO PUSH2 0x404D JUMPI SWAP2 DUP2 MUL SWAP2 JUMPDEST SWAP4 DUP5 SHR SWAP4 SWAP1 DUP1 MUL SWAP1 PUSH2 0x4025 JUMP JUMPDEST POP SWAP3 POP SWAP3 SWAP1 POP JUMP JUMPDEST PUSH0 DUP3 PUSH2 0x4070 JUMPI POP PUSH1 0x1 PUSH2 0x30CC JUMP JUMPDEST DUP2 PUSH2 0x407C JUMPI POP PUSH0 PUSH2 0x30CC JUMP JUMPDEST DUP2 PUSH1 0x1 DUP2 EQ PUSH2 0x4092 JUMPI PUSH1 0x2 DUP2 EQ PUSH2 0x409C JUMPI PUSH2 0x40B8 JUMP JUMPDEST PUSH1 0x1 SWAP2 POP POP PUSH2 0x30CC JUMP JUMPDEST PUSH1 0xFF DUP5 GT ISZERO PUSH2 0x40AD JUMPI PUSH2 0x40AD PUSH2 0x3ED6 JUMP JUMPDEST POP POP PUSH1 0x1 DUP3 SHL PUSH2 0x30CC JUMP JUMPDEST POP PUSH1 0x20 DUP4 LT PUSH2 0x133 DUP4 LT AND PUSH1 0x4E DUP5 LT PUSH1 0xB DUP5 LT AND OR ISZERO PUSH2 0x40DB JUMPI POP DUP2 DUP2 EXP PUSH2 0x30CC JUMP JUMPDEST PUSH2 0x40E5 DUP4 DUP4 PUSH2 0x4020 JUMP JUMPDEST DUP1 PUSH0 NOT DIV DUP3 GT ISZERO PUSH2 0x40F8 JUMPI PUSH2 0x40F8 PUSH2 0x3ED6 JUMP JUMPDEST MUL SWAP4 SWAP3 POP POP POP JUMP JUMPDEST PUSH0 PUSH2 0x1830 PUSH1 0xFF DUP5 AND DUP4 PUSH2 0x4062 JUMP JUMPDEST PUSH0 PUSH1 0x20 DUP3 DUP5 SUB SLT ISZERO PUSH2 0x411E JUMPI PUSH0 DUP1 REVERT JUMPDEST POP MLOAD SWAP2 SWAP1 POP JUMP JUMPDEST DUP1 DUP3 ADD DUP1 DUP3 GT ISZERO PUSH2 0x30CC JUMPI PUSH2 0x30CC PUSH2 0x3ED6 JUMP JUMPDEST PUSH1 0x20 DUP1 DUP3 MSTORE PUSH1 0x2B SWAP1 DUP3 ADD MSTORE PUSH32 0x496E697469616C697A61626C653A20636F6E7472616374206973206E6F742069 PUSH1 0x40 DUP3 ADD MSTORE PUSH11 0x6E697469616C697A696E67 PUSH1 0xA8 SHL PUSH1 0x60 DUP3 ADD MSTORE PUSH1 0x80 ADD SWAP1 JUMP JUMPDEST PUSH0 PUSH1 0x1 DUP3 ADD PUSH2 0x4194 JUMPI PUSH2 0x4194 PUSH2 0x3ED6 JUMP JUMPDEST POP PUSH1 0x1 ADD SWAP1 JUMP JUMPDEST PUSH1 0xFF DUP2 DUP2 AND DUP4 DUP3 AND ADD SWAP1 DUP2 GT ISZERO PUSH2 0x30CC JUMPI PUSH2 0x30CC PUSH2 0x3ED6 JUMP JUMPDEST PUSH0 JUMPDEST DUP4 DUP2 LT ISZERO PUSH2 0x41CE JUMPI DUP2 DUP2 ADD MLOAD DUP4 DUP3 ADD MSTORE PUSH1 0x20 ADD PUSH2 0x41B6 JUMP JUMPDEST POP POP PUSH0 SWAP2 ADD MSTORE JUMP JUMPDEST PUSH0 DUP3 MLOAD PUSH2 0x41E7 DUP2 DUP5 PUSH1 0x20 DUP8 ADD PUSH2 0x41B4 JUMP JUMPDEST SWAP2 SWAP1 SWAP2 ADD SWAP3 SWAP2 POP POP JUMP JUMPDEST DUP2 DUP2 SUB DUP2 DUP2 GT ISZERO PUSH2 0x30CC JUMPI PUSH2 0x30CC PUSH2 0x3ED6 JUMP JUMPDEST PUSH1 0x20 DUP2 MSTORE PUSH0 DUP3 MLOAD DUP1 PUSH1 0x20 DUP5 ADD MSTORE PUSH2 0x4222 DUP2 PUSH1 0x40 DUP6 ADD PUSH1 0x20 DUP8 ADD PUSH2 0x41B4 JUMP JUMPDEST PUSH1 0x1F ADD PUSH1 0x1F NOT AND SWAP2 SWAP1 SWAP2 ADD PUSH1 0x40 ADD SWAP3 SWAP2 POP POP JUMP INVALID CALLDATASIZE ADDMOD SWAP5 LOG1 EXTCODESIZE LOG1 LOG3 0x21 MOD PUSH8 0xC828492DB98DCA3E KECCAK256 PUSH23 0xCC3735A920A3CA505D382BBC416464726573733A206C6F PUSH24 0x2D6C6576656C2064656C65676174652063616C6C20666169 PUSH13 0x6564A26469706673582212203D 0xD5 MULMOD 0xE9 0x4F BASEFEE CALLVALUE EXTCODESIZE SGT 0xAD PUSH10 0x89C176DDD6C5A0AEA96B 0xE2 0xCD 0xFB SWAP11 SWAP13 DUP1 DUP14 PUSH24 0x6B525364736F6C6343000814003300000000000000000000 "},"methodIdentifiers":{"addBaseCurrency(address,bool,address)":"f782abc7","claimPendingTax(address)":"2b3412e3","getContractAnalytics()":"83b41e66","getContractDefaults()":"1a746344","getIdAccount(uint256)":"ff43599c","getIdsByPool(uint8)":"15b463ff","getPools(uint8)":"c48d8e02","getSupportedCurrencies()":"2ce75863","getUserAccount(address)":"fb47e016","initialize()":"8129fc1c","owner()":"8da5cb5b","paused()":"5c975abb","proxiableUUID()":"52d1902d","register(uint256,address,address)":"a73c50fa","registerBulk(uint8,uint256,address,address)":"493ce4e1","removeBaseCurrency(address,bool)":"54f132e8","renounceOwnership()":"715018a6","setPools(uint8[],uint256[],uint256[],uint8)":"754ac430","transferOwnership(address)":"f2fde38b","upgradeTo(address)":"3659cfe6","upgradeToAndCall(address,bytes)":"4f1ef286"}},"storageLayout":{"storage":[{"astId":527,"contract":"contracts/GlobalFI.sol:GlobalFi","label":"_initialized","offset":0,"slot":"0","type":"t_uint8"},{"astId":530,"contract":"contracts/GlobalFI.sol:GlobalFi","label":"_initializing","offset":1,"slot":"0","type":"t_bool"},{"astId":1992,"contract":"contracts/GlobalFI.sol:GlobalFi","label":"__gap","offset":0,"slot":"1","type":"t_array(t_uint256)50_storage"},{"astId":846,"contract":"contracts/GlobalFI.sol:GlobalFi","label":"_paused","offset":0,"slot":"51","type":"t_bool"},{"astId":951,"contract":"contracts/GlobalFI.sol:GlobalFi","label":"__gap","offset":0,"slot":"52","type":"t_array(t_uint256)49_storage"},{"astId":10,"contract":"contracts/GlobalFI.sol:GlobalFi","label":"_owner","offset":0,"slot":"101","type":"t_address"},{"astId":130,"contract":"contracts/GlobalFI.sol:GlobalFi","label":"__gap","offset":0,"slot":"102","type":"t_array(t_uint256)49_storage"},{"astId":509,"contract":"contracts/GlobalFI.sol:GlobalFi","label":"__gap","offset":0,"slot":"151","type":"t_array(t_uint256)50_storage"},{"astId":824,"contract":"contracts/GlobalFI.sol:GlobalFi","label":"__gap","offset":0,"slot":"201","type":"t_array(t_uint256)50_storage"},{"astId":2204,"contract":"contracts/GlobalFI.sol:GlobalFi","label":"_users","offset":0,"slot":"251","type":"t_array(t_address)dyn_storage"},{"astId":2206,"contract":"contracts/GlobalFI.sol:GlobalFi","label":"_ids","offset":0,"slot":"252","type":"t_uint256"},{"astId":2209,"contract":"contracts/GlobalFI.sol:GlobalFi","label":"_nonGlobalIds","offset":0,"slot":"253","type":"t_array(t_uint256)dyn_storage"},{"astId":2211,"contract":"contracts/GlobalFI.sol:GlobalFi","label":"_nonGlobalIdIncrement","offset":0,"slot":"254","type":"t_uint256"},{"astId":2214,"contract":"contracts/GlobalFI.sol:GlobalFi","label":"_levelRates","offset":0,"slot":"255","type":"t_array(t_uint256)dyn_storage"},{"astId":2216,"contract":"contracts/GlobalFI.sol:GlobalFi","label":"_maxRefereeLimit","offset":0,"slot":"256","type":"t_uint256"},{"astId":2218,"contract":"contracts/GlobalFI.sol:GlobalFi","label":"_teamLevelsToCount","offset":0,"slot":"257","type":"t_uint8"},{"astId":2220,"contract":"contracts/GlobalFI.sol:GlobalFi","label":"_registrationAmountInUSD","offset":0,"slot":"258","type":"t_uint256"},{"astId":2223,"contract":"contracts/GlobalFI.sol:GlobalFi","label":"_taxBeneficiaryAddresses","offset":0,"slot":"259","type":"t_array(t_address)dyn_storage"},{"astId":2225,"contract":"contracts/GlobalFI.sol:GlobalFi","label":"_taxPer","offset":0,"slot":"260","type":"t_uint256"},{"astId":2227,"contract":"contracts/GlobalFI.sol:GlobalFi","label":"_totalTaxCollected","offset":0,"slot":"261","type":"t_uint256"},{"astId":2229,"contract":"contracts/GlobalFI.sol:GlobalFi","label":"_pendingTaxToWithdraw","offset":0,"slot":"262","type":"t_uint256"},{"astId":2231,"contract":"contracts/GlobalFI.sol:GlobalFi","label":"_totalReferralPaid","offset":0,"slot":"263","type":"t_uint256"},{"astId":2233,"contract":"contracts/GlobalFI.sol:GlobalFi","label":"_totalValueRegistered","offset":0,"slot":"264","type":"t_uint256"},{"astId":2237,"contract":"contracts/GlobalFI.sol:GlobalFi","label":"_supportedTokensList","offset":0,"slot":"265","type":"t_array(t_struct(SupportedTokensStruct)2096_storage)dyn_storage"},{"astId":2239,"contract":"contracts/GlobalFI.sol:GlobalFi","label":"_reentrancy","offset":0,"slot":"266","type":"t_bool"},{"astId":2244,"contract":"contracts/GlobalFI.sol:GlobalFi","label":"_mappingAccounts","offset":0,"slot":"267","type":"t_mapping(t_address,t_struct(AccountStruct)2131_storage)"},{"astId":2249,"contract":"contracts/GlobalFI.sol:GlobalFi","label":"_mappingIds","offset":0,"slot":"268","type":"t_mapping(t_uint256,t_struct(IdStruct)2175_storage)"},{"astId":2254,"contract":"contracts/GlobalFI.sol:GlobalFi","label":"_mappingSupportedToken","offset":0,"slot":"269","type":"t_mapping(t_address,t_struct(SupportedTokensStruct)2096_storage)"},{"astId":2259,"contract":"contracts/GlobalFI.sol:GlobalFi","label":"_mappingPools","offset":0,"slot":"270","type":"t_mapping(t_uint8,t_struct(PoolStruct)2193_storage)"}],"types":{"t_address":{"encoding":"inplace","label":"address","numberOfBytes":"20"},"t_array(t_address)dyn_storage":{"base":"t_address","encoding":"dynamic_array","label":"address[]","numberOfBytes":"32"},"t_array(t_struct(RefereeStruct)2122_storage)dyn_storage":{"base":"t_struct(RefereeStruct)2122_storage","encoding":"dynamic_array","label":"struct RefereeStruct[]","numberOfBytes":"32"},"t_array(t_struct(SupportedTokensStruct)2096_storage)dyn_storage":{"base":"t_struct(SupportedTokensStruct)2096_storage","encoding":"dynamic_array","label":"struct SupportedTokensStruct[]","numberOfBytes":"32"},"t_array(t_struct(TeamStruct)2101_storage)dyn_storage":{"base":"t_struct(TeamStruct)2101_storage","encoding":"dynamic_array","label":"struct TeamStruct[]","numberOfBytes":"32"},"t_array(t_uint256)49_storage":{"base":"t_uint256","encoding":"inplace","label":"uint256[49]","numberOfBytes":"1568"},"t_array(t_uint256)50_storage":{"base":"t_uint256","encoding":"inplace","label":"uint256[50]","numberOfBytes":"1600"},"t_array(t_uint256)dyn_storage":{"base":"t_uint256","encoding":"dynamic_array","label":"uint256[]","numberOfBytes":"32"},"t_bool":{"encoding":"inplace","label":"bool","numberOfBytes":"1"},"t_mapping(t_address,t_struct(AccountStruct)2131_storage)":{"encoding":"mapping","key":"t_address","label":"mapping(address => struct AccountStruct)","numberOfBytes":"32","value":"t_struct(AccountStruct)2131_storage"},"t_mapping(t_address,t_struct(SupportedTokensStruct)2096_storage)":{"encoding":"mapping","key":"t_address","label":"mapping(address => struct SupportedTokensStruct)","numberOfBytes":"32","value":"t_struct(SupportedTokensStruct)2096_storage"},"t_mapping(t_uint256,t_struct(IdStruct)2175_storage)":{"encoding":"mapping","key":"t_uint256","label":"mapping(uint256 => struct IdStruct)","numberOfBytes":"32","value":"t_struct(IdStruct)2175_storage"},"t_mapping(t_uint8,t_struct(PoolStruct)2193_storage)":{"encoding":"mapping","key":"t_uint8","label":"mapping(uint8 => struct PoolStruct)","numberOfBytes":"32","value":"t_struct(PoolStruct)2193_storage"},"t_struct(AccountStruct)2131_storage":{"encoding":"inplace","label":"struct AccountStruct","members":[{"astId":2124,"contract":"contracts/GlobalFI.sol:GlobalFi","label":"selfAddress","offset":0,"slot":"0","type":"t_address"},{"astId":2127,"contract":"contracts/GlobalFI.sol:GlobalFi","label":"ids","offset":0,"slot":"1","type":"t_array(t_uint256)dyn_storage"},{"astId":2130,"contract":"contracts/GlobalFI.sol:GlobalFi","label":"regeneratedIds","offset":0,"slot":"2","type":"t_array(t_uint256)dyn_storage"}],"numberOfBytes":"96"},"t_struct(BusinessStruct)2108_storage":{"encoding":"inplace","label":"struct BusinessStruct","members":[{"astId":2103,"contract":"contracts/GlobalFI.sol:GlobalFi","label":"selfBusiness","offset":0,"slot":"0","type":"t_uint256"},{"astId":2105,"contract":"contracts/GlobalFI.sol:GlobalFi","label":"directBusiness","offset":0,"slot":"1","type":"t_uint256"},{"astId":2107,"contract":"contracts/GlobalFI.sol:GlobalFi","label":"teamBusiness","offset":0,"slot":"2","type":"t_uint256"}],"numberOfBytes":"96"},"t_struct(IdStruct)2175_storage":{"encoding":"inplace","label":"struct IdStruct","members":[{"astId":2148,"contract":"contracts/GlobalFI.sol:GlobalFi","label":"id","offset":0,"slot":"0","type":"t_uint256"},{"astId":2150,"contract":"contracts/GlobalFI.sol:GlobalFi","label":"owner","offset":0,"slot":"1","type":"t_address"},{"astId":2152,"contract":"contracts/GlobalFI.sol:GlobalFi","label":"referrerId","offset":0,"slot":"2","type":"t_uint256"},{"astId":2154,"contract":"contracts/GlobalFI.sol:GlobalFi","label":"parentId","offset":0,"slot":"3","type":"t_uint256"},{"astId":2158,"contract":"contracts/GlobalFI.sol:GlobalFi","label":"refereeIds","offset":0,"slot":"4","type":"t_array(t_struct(RefereeStruct)2122_storage)dyn_storage"},{"astId":2162,"contract":"contracts/GlobalFI.sol:GlobalFi","label":"team","offset":0,"slot":"5","type":"t_array(t_struct(TeamStruct)2101_storage)dyn_storage"},{"astId":2165,"contract":"contracts/GlobalFI.sol:GlobalFi","label":"business","offset":0,"slot":"6","type":"t_struct(BusinessStruct)2108_storage"},{"astId":2168,"contract":"contracts/GlobalFI.sol:GlobalFi","label":"rewards","offset":0,"slot":"9","type":"t_struct(RewardsStruct)2115_storage"},{"astId":2171,"contract":"contracts/GlobalFI.sol:GlobalFi","label":"pool","offset":0,"slot":"12","type":"t_struct(PoolIdStruct)2138_storage"},{"astId":2174,"contract":"contracts/GlobalFI.sol:GlobalFi","label":"regenratedIds","offset":0,"slot":"14","type":"t_struct(RegeneratedIdsStruct)2146_storage"}],"numberOfBytes":"544"},"t_struct(PoolIdStruct)2138_storage":{"encoding":"inplace","label":"struct PoolIdStruct","members":[{"astId":2133,"contract":"contracts/GlobalFI.sol:GlobalFi","label":"isInPool","offset":0,"slot":"0","type":"t_bool"},{"astId":2135,"contract":"contracts/GlobalFI.sol:GlobalFi","label":"currentPool","offset":1,"slot":"0","type":"t_uint8"},{"astId":2137,"contract":"contracts/GlobalFI.sol:GlobalFi","label":"currentPoolIndex","offset":0,"slot":"1","type":"t_uint256"}],"numberOfBytes":"64"},"t_struct(PoolStruct)2193_storage":{"encoding":"inplace","label":"struct PoolStruct","members":[{"astId":2177,"contract":"contracts/GlobalFI.sol:GlobalFi","label":"poolId","offset":0,"slot":"0","type":"t_uint8"},{"astId":2179,"contract":"contracts/GlobalFI.sol:GlobalFi","label":"rewardToDistribute","offset":0,"slot":"1","type":"t_uint256"},{"astId":2181,"contract":"contracts/GlobalFI.sol:GlobalFi","label":"idsToRegenerate","offset":0,"slot":"2","type":"t_uint256"},{"astId":2183,"contract":"contracts/GlobalFI.sol:GlobalFi","label":"minUserCounter","offset":0,"slot":"3","type":"t_uint8"},{"astId":2185,"contract":"contracts/GlobalFI.sol:GlobalFi","label":"count","offset":0,"slot":"4","type":"t_uint256"},{"astId":2187,"contract":"contracts/GlobalFI.sol:GlobalFi","label":"userCountToUpgrade","offset":0,"slot":"5","type":"t_uint256"},{"astId":2190,"contract":"contracts/GlobalFI.sol:GlobalFi","label":"userIds","offset":0,"slot":"6","type":"t_array(t_uint256)dyn_storage"},{"astId":2192,"contract":"contracts/GlobalFI.sol:GlobalFi","label":"totalRewardDistributed","offset":0,"slot":"7","type":"t_uint256"}],"numberOfBytes":"256"},"t_struct(RefereeStruct)2122_storage":{"encoding":"inplace","label":"struct RefereeStruct","members":[{"astId":2117,"contract":"contracts/GlobalFI.sol:GlobalFi","label":"refereeId","offset":0,"slot":"0","type":"t_uint256"},{"astId":2119,"contract":"contracts/GlobalFI.sol:GlobalFi","label":"assignedTo","offset":0,"slot":"1","type":"t_uint256"},{"astId":2121,"contract":"contracts/GlobalFI.sol:GlobalFi","label":"assignedFrom","offset":0,"slot":"2","type":"t_uint256"}],"numberOfBytes":"96"},"t_struct(RegeneratedIdsStruct)2146_storage":{"encoding":"inplace","label":"struct RegeneratedIdsStruct","members":[{"astId":2140,"contract":"contracts/GlobalFI.sol:GlobalFi","label":"isThisRegenerated","offset":0,"slot":"0","type":"t_bool"},{"astId":2143,"contract":"contracts/GlobalFI.sol:GlobalFi","label":"regenratedIds","offset":0,"slot":"1","type":"t_array(t_uint256)dyn_storage"},{"astId":2145,"contract":"contracts/GlobalFI.sol:GlobalFi","label":"regeneratedIdBy","offset":0,"slot":"2","type":"t_uint256"}],"numberOfBytes":"96"},"t_struct(RewardsStruct)2115_storage":{"encoding":"inplace","label":"struct RewardsStruct","members":[{"astId":2110,"contract":"contracts/GlobalFI.sol:GlobalFi","label":"referralRewards","offset":0,"slot":"0","type":"t_uint256"},{"astId":2112,"contract":"contracts/GlobalFI.sol:GlobalFi","label":"spillOverRewards","offset":0,"slot":"1","type":"t_uint256"},{"astId":2114,"contract":"contracts/GlobalFI.sol:GlobalFi","label":"globalRewards","offset":0,"slot":"2","type":"t_uint256"}],"numberOfBytes":"96"},"t_struct(SupportedTokensStruct)2096_storage":{"encoding":"inplace","label":"struct SupportedTokensStruct","members":[{"astId":2087,"contract":"contracts/GlobalFI.sol:GlobalFi","label":"contractAddress","offset":0,"slot":"0","type":"t_address"},{"astId":2089,"contract":"contracts/GlobalFI.sol:GlobalFi","label":"decimals","offset":0,"slot":"1","type":"t_uint256"},{"astId":2091,"contract":"contracts/GlobalFI.sol:GlobalFi","label":"isStable","offset":0,"slot":"2","type":"t_bool"},{"astId":2093,"contract":"contracts/GlobalFI.sol:GlobalFi","label":"aggregatorAddress","offset":1,"slot":"2","type":"t_address"},{"astId":2095,"contract":"contracts/GlobalFI.sol:GlobalFi","label":"isEnaled","offset":21,"slot":"2","type":"t_bool"}],"numberOfBytes":"96"},"t_struct(TeamStruct)2101_storage":{"encoding":"inplace","label":"struct TeamStruct","members":[{"astId":2098,"contract":"contracts/GlobalFI.sol:GlobalFi","label":"teamId","offset":0,"slot":"0","type":"t_uint256"},{"astId":2100,"contract":"contracts/GlobalFI.sol:GlobalFi","label":"teamLevel","offset":0,"slot":"1","type":"t_uint256"}],"numberOfBytes":"64"},"t_uint256":{"encoding":"inplace","label":"uint256","numberOfBytes":"32"},"t_uint8":{"encoding":"inplace","label":"uint8","numberOfBytes":"1"}}}}}}